{
	"data": {
		"bytecode": {
			"linkReferences": {},
			"object": "608060405273dd870fa1b7c4700f2bd7f44238821c26f7392148600160006101000a81548173ffffffffffffffffffffffffffffffffffffffff021916908373ffffffffffffffffffffffffffffffffffffffff1602179055503480156200006657600080fd5b506040516200191d3803806200191d83398181016040528101906200008c9190620004ca565b806200009d620001cf60201b60201c565b606411620000e2576040517f08c379a0000000000000000000000000000000000000000000000000000000008152600401620000d990620005bc565b60405180910390fd5b84600760016101000a81548173ffffffffffffffffffffffffffffffffffffffff021916908373ffffffffffffffffffffffffffffffffffffffff16021790555083600881905550816003908051906020019062000142929190620001dd565b50336000806101000a81548173ffffffffffffffffffffffffffffffffffffffff021916908373ffffffffffffffffffffffffffffffffffffffff16021790555043600481905550618ca06004546200019c91906200060d565b600581905550826002819055506000600760006101000a81548160ff0219169083151502179055505050505050620006cf565b600080600090508091505090565b828054620001eb9062000699565b90600052602060002090601f0160209004810192826200020f57600085556200025b565b82601f106200022a57805160ff19168380011785556200025b565b828001600101855582156200025b579182015b828111156200025a5782518255916020019190600101906200023d565b5b5090506200026a91906200026e565b5090565b5b80821115620002895760008160009055506001016200026f565b5090565b6000604051905090565b600080fd5b600080fd5b600073ffffffffffffffffffffffffffffffffffffffff82169050919050565b6000620002ce82620002a1565b9050919050565b620002e081620002c1565b8114620002ec57600080fd5b50565b6000815190506200030081620002d5565b92915050565b6000819050919050565b6200031b8162000306565b81146200032757600080fd5b50565b6000815190506200033b8162000310565b92915050565b600080fd5b600080fd5b6000601f19601f8301169050919050565b7f4e487b7100000000000000000000000000000000000000000000000000000000600052604160045260246000fd5b62000396826200034b565b810181811067ffffffffffffffff82111715620003b857620003b76200035c565b5b80604052505050565b6000620003cd6200028d565b9050620003db82826200038b565b919050565b600067ffffffffffffffff821115620003fe57620003fd6200035c565b5b62000409826200034b565b9050602081019050919050565b60005b838110156200043657808201518184015260208101905062000419565b8381111562000446576000848401525b50505050565b6000620004636200045d84620003e0565b620003c1565b90508281526020810184848401111562000482576200048162000346565b5b6200048f84828562000416565b509392505050565b600082601f830112620004af57620004ae62000341565b5b8151620004c18482602086016200044c565b91505092915050565b60008060008060808587031215620004e757620004e662000297565b5b6000620004f787828801620002ef565b94505060206200050a878288016200032a565b93505060406200051d878288016200032a565b925050606085015167ffffffffffffffff8111156200054157620005406200029c565b5b6200054f8782880162000497565b91505092959194509250565b600082825260208201905092915050565b7f776f72647320746f6f2068696768000000000000000000000000000000000000600082015250565b6000620005a4600e836200055b565b9150620005b1826200056c565b602082019050919050565b60006020820190508181036000830152620005d78162000595565b9050919050565b7f4e487b7100000000000000000000000000000000000000000000000000000000600052601160045260246000fd5b60006200061a8262000306565b9150620006278362000306565b9250827fffffffffffffffffffffffffffffffffffffffffffffffffffffffffffffffff038211156200065f576200065e620005de565b5b828201905092915050565b7f4e487b7100000000000000000000000000000000000000000000000000000000600052602260045260246000fd5b60006002820490506001821680620006b257607f821691505b60208210811415620006c957620006c86200066a565b5b50919050565b61123e80620006df6000396000f3fe6080604052600436106100915760003560e01c8063d4d33a6f11610059578063d4d33a6f1461015e578063e542294414610189578063e7c03e57146101b4578063fd3b5a69146101df578063fe67a54b146101f657610091565b80631300a6d11461009657806329c61eca146100c157806347ccca02146100dd5780635dd672ec14610108578063c6bc518214610133575b600080fd5b3480156100a257600080fd5b506100ab610200565b6040516100b89190610a6f565b60405180910390f35b6100db60048036038101906100d69190610aff565b610215565b005b3480156100e957600080fd5b506100f26104f1565b6040516100ff9190610b8b565b60405180910390f35b34801561011457600080fd5b5061011d610517565b60405161012a9190610c3f565b60405180910390f35b34801561013f57600080fd5b50610148610566565b6040516101559190610a6f565b60405180910390f35b34801561016a57600080fd5b5061017361056c565b6040516101809190610a6f565b60405180910390f35b34801561019557600080fd5b5061019e61057a565b6040516101ab9190610c7c565b60405180910390f35b3480156101c057600080fd5b506101c9610587565b6040516101d69190610a6f565b60405180910390f35b3480156101eb57600080fd5b506101f4610591565b005b6101fe61059a565b005b6000436005546102109190610cc6565b905090565b8073ffffffffffffffffffffffffffffffffffffffff1663d321fe296040518163ffffffff1660e01b815260040160206040518083038186803b15801561025b57600080fd5b505afa15801561026f573d6000803e3d6000fd5b505050506040513d601f19601f820116820180604052508101906102939190610d26565b60025481116102d7576040517f08c379a00000000000000000000000000000000000000000000000000000000081526004016102ce90610d9f565b60405180910390fd5b8173ffffffffffffffffffffffffffffffffffffffff1663d321fe296040518163ffffffff1660e01b815260040160206040518083038186803b15801561031d57600080fd5b505afa158015610331573d6000803e3d6000fd5b505050506040513d601f19601f820116820180604052508101906103559190610d26565b600081141561036357600080fd5b61036b61057a565b156103ab576040517f08c379a00000000000000000000000000000000000000000000000000000000081526004016103a290610e0b565b60405180910390fd5b6000600560008282546103be9190610e2b565b925050819055508273ffffffffffffffffffffffffffffffffffffffff1663d321fe296040518163ffffffff1660e01b815260040160206040518083038186803b15801561040b57600080fd5b505afa15801561041f573d6000803e3d6000fd5b505050506040513d601f19601f820116820180604052508101906104439190610d26565b6002819055506009839080600181540180825580915050600190039060005260206000200160009091909190916101000a81548173ffffffffffffffffffffffffffffffffffffffff021916908373ffffffffffffffffffffffffffffffffffffffff1602179055507f32867fb66a0f5dac86fdc38f0b8835473938f9c0092c2dd0108f7fbda42992e160025460025460096040516104e493929190610fb7565b60405180910390a1505050565b600760019054906101000a900473ffffffffffffffffffffffffffffffffffffffff1681565b60607e07f4a0e162470e17be3635daf366f38cf61529b24227a8df481cbd19d753e66002546040516105499190610a6f565b60405180910390a160405180602001604052806000815250905090565b60085481565b600080600090508091505090565b6000436005541115905090565b6000600254905090565b43600581905550565b600160009054906101000a900473ffffffffffffffffffffffffffffffffffffffff1673ffffffffffffffffffffffffffffffffffffffff163373ffffffffffffffffffffffffffffffffffffffff161461062a576040517f08c379a000000000000000000000000000000000000000000000000000000000815260040161062190611041565b60405180910390fd5b61063261057a565b610671576040517f08c379a0000000000000000000000000000000000000000000000000000000008152600401610668906110ad565b60405180910390fd5b600760009054906101000a900460ff1661087257600760019054906101000a900473ffffffffffffffffffffffffffffffffffffffff1673ffffffffffffffffffffffffffffffffffffffff166342842e0e60008054906101000a900473ffffffffffffffffffffffffffffffffffffffff16600960016009805490506106f89190610cc6565b81548110610709576107086110cd565b5b9060005260206000200160009054906101000a900473ffffffffffffffffffffffffffffffffffffffff1673ffffffffffffffffffffffffffffffffffffffff166338cc48316040518163ffffffff1660e01b815260040160206040518083038186803b15801561077957600080fd5b505afa15801561078d573d6000803e3d6000fd5b505050506040513d601f19601f820116820180604052508101906107b1919061113a565b6006546040518463ffffffff1660e01b81526004016107d293929190611188565b600060405180830381600087803b1580156107ec57600080fd5b505af1158015610800573d6000803e3d6000fd5b5050505060008054906101000a900473ffffffffffffffffffffffffffffffffffffffff1673ffffffffffffffffffffffffffffffffffffffff166108fc6002549081150290604051600060405180830381858888f1935050505015801561086c573d6000803e3d6000fd5b50610a54565b60005b600980549050811015610a525760098181548110610896576108956110cd565b5b9060005260206000200160009054906101000a900473ffffffffffffffffffffffffffffffffffffffff1673ffffffffffffffffffffffffffffffffffffffff166338cc48316040518163ffffffff1660e01b815260040160206040518083038186803b15801561090657600080fd5b505afa15801561091a573d6000803e3d6000fd5b505050506040513d601f19601f8201168201806040525081019061093e919061113a565b73ffffffffffffffffffffffffffffffffffffffff166108fc6009838154811061096b5761096a6110cd565b5b9060005260206000200160009054906101000a900473ffffffffffffffffffffffffffffffffffffffff1673ffffffffffffffffffffffffffffffffffffffff1663d321fe296040518163ffffffff1660e01b815260040160206040518083038186803b1580156109db57600080fd5b505afa1580156109ef573d6000803e3d6000fd5b505050506040513d601f19601f82011682018060405250810190610a139190610d26565b9081150290604051600060405180830381858888f19350505050158015610a3e573d6000803e3d6000fd5b508080610a4a906111bf565b915050610875565b505b565b6000819050919050565b610a6981610a56565b82525050565b6000602082019050610a846000830184610a60565b92915050565b600080fd5b600073ffffffffffffffffffffffffffffffffffffffff82169050919050565b6000610aba82610a8f565b9050919050565b6000610acc82610aaf565b9050919050565b610adc81610ac1565b8114610ae757600080fd5b50565b600081359050610af981610ad3565b92915050565b600060208284031215610b1557610b14610a8a565b5b6000610b2384828501610aea565b91505092915050565b6000819050919050565b6000610b51610b4c610b4784610a8f565b610b2c565b610a8f565b9050919050565b6000610b6382610b36565b9050919050565b6000610b7582610b58565b9050919050565b610b8581610b6a565b82525050565b6000602082019050610ba06000830184610b7c565b92915050565b600081519050919050565b600082825260208201905092915050565b60005b83811015610be0578082015181840152602081019050610bc5565b83811115610bef576000848401525b50505050565b6000601f19601f8301169050919050565b6000610c1182610ba6565b610c1b8185610bb1565b9350610c2b818560208601610bc2565b610c3481610bf5565b840191505092915050565b60006020820190508181036000830152610c598184610c06565b905092915050565b60008115159050919050565b610c7681610c61565b82525050565b6000602082019050610c916000830184610c6d565b92915050565b7f4e487b7100000000000000000000000000000000000000000000000000000000600052601160045260246000fd5b6000610cd182610a56565b9150610cdc83610a56565b925082821015610cef57610cee610c97565b5b828203905092915050565b610d0381610a56565b8114610d0e57600080fd5b50565b600081519050610d2081610cfa565b92915050565b600060208284031215610d3c57610d3b610a8a565b5b6000610d4a84828501610d11565b91505092915050565b7f62696420746f6f206c6f77000000000000000000000000000000000000000000600082015250565b6000610d89600b83610bb1565b9150610d9482610d53565b602082019050919050565b60006020820190508181036000830152610db881610d7c565b9050919050565b7f61756374696f6e20697320616c7265616479206f766572000000000000000000600082015250565b6000610df5601783610bb1565b9150610e0082610dbf565b602082019050919050565b60006020820190508181036000830152610e2481610de8565b9050919050565b6000610e3682610a56565b9150610e4183610a56565b9250827fffffffffffffffffffffffffffffffffffffffffffffffffffffffffffffffff03821115610e7657610e75610c97565b5b828201905092915050565b600081549050919050565b600082825260208201905092915050565b60008190508160005260206000209050919050565b6000610ebd82610b58565b9050919050565b610ecd81610eb2565b82525050565b6000610edf8383610ec4565b60208301905092915050565b60008160001c9050919050565b600073ffffffffffffffffffffffffffffffffffffffff82169050919050565b6000610f2b610f2683610eeb565b610ef8565b9050919050565b6000610f3e8254610f18565b9050919050565b6000600182019050919050565b6000610f5d82610e81565b610f678185610e8c565b9350610f7283610e9d565b8060005b83811015610faa57610f8782610f32565b610f918882610ed3565b9750610f9c83610f45565b925050600181019050610f76565b5085935050505092915050565b6000606082019050610fcc6000830186610a60565b610fd96020830185610a60565b8181036040830152610feb8184610f52565b9050949350505050565b7f4e6f7420686f6c64657200000000000000000000000000000000000000000000600082015250565b600061102b600a83610bb1565b915061103682610ff5565b602082019050919050565b6000602082019050818103600083015261105a8161101e565b9050919050565b7f61756374696f6e206861736e277420656e646564000000000000000000000000600082015250565b6000611097601483610bb1565b91506110a282611061565b602082019050919050565b600060208201905081810360008301526110c68161108a565b9050919050565b7f4e487b7100000000000000000000000000000000000000000000000000000000600052603260045260246000fd5b600061110782610a8f565b9050919050565b611117816110fc565b811461112257600080fd5b50565b6000815190506111348161110e565b92915050565b6000602082840312156111505761114f610a8a565b5b600061115e84828501611125565b91505092915050565b600061117282610b58565b9050919050565b61118281611167565b82525050565b600060608201905061119d6000830186611179565b6111aa6020830185611179565b6111b76040830184610a60565b949350505050565b60006111ca82610a56565b91507fffffffffffffffffffffffffffffffffffffffffffffffffffffffffffffffff8214156111fd576111fc610c97565b5b60018201905091905056fea2646970667358221220cb2d35c2ca9ea52c941efc4b574849641f868a41678f50f17240014f7e37391264736f6c63430008090033",
			"opcodes": "PUSH1 0x80 PUSH1 0x40 MSTORE PUSH20 0xDD870FA1B7C4700F2BD7F44238821C26F7392148 PUSH1 0x1 PUSH1 0x0 PUSH2 0x100 EXP DUP2 SLOAD DUP2 PUSH20 0xFFFFFFFFFFFFFFFFFFFFFFFFFFFFFFFFFFFFFFFF MUL NOT AND SWAP1 DUP4 PUSH20 0xFFFFFFFFFFFFFFFFFFFFFFFFFFFFFFFFFFFFFFFF AND MUL OR SWAP1 SSTORE POP CALLVALUE DUP1 ISZERO PUSH3 0x66 JUMPI PUSH1 0x0 DUP1 REVERT JUMPDEST POP PUSH1 0x40 MLOAD PUSH3 0x191D CODESIZE SUB DUP1 PUSH3 0x191D DUP4 CODECOPY DUP2 DUP2 ADD PUSH1 0x40 MSTORE DUP2 ADD SWAP1 PUSH3 0x8C SWAP2 SWAP1 PUSH3 0x4CA JUMP JUMPDEST DUP1 PUSH3 0x9D PUSH3 0x1CF PUSH1 0x20 SHL PUSH1 0x20 SHR JUMP JUMPDEST PUSH1 0x64 GT PUSH3 0xE2 JUMPI PUSH1 0x40 MLOAD PUSH32 0x8C379A000000000000000000000000000000000000000000000000000000000 DUP2 MSTORE PUSH1 0x4 ADD PUSH3 0xD9 SWAP1 PUSH3 0x5BC JUMP JUMPDEST PUSH1 0x40 MLOAD DUP1 SWAP2 SUB SWAP1 REVERT JUMPDEST DUP5 PUSH1 0x7 PUSH1 0x1 PUSH2 0x100 EXP DUP2 SLOAD DUP2 PUSH20 0xFFFFFFFFFFFFFFFFFFFFFFFFFFFFFFFFFFFFFFFF MUL NOT AND SWAP1 DUP4 PUSH20 0xFFFFFFFFFFFFFFFFFFFFFFFFFFFFFFFFFFFFFFFF AND MUL OR SWAP1 SSTORE POP DUP4 PUSH1 0x8 DUP2 SWAP1 SSTORE POP DUP2 PUSH1 0x3 SWAP1 DUP1 MLOAD SWAP1 PUSH1 0x20 ADD SWAP1 PUSH3 0x142 SWAP3 SWAP2 SWAP1 PUSH3 0x1DD JUMP JUMPDEST POP CALLER PUSH1 0x0 DUP1 PUSH2 0x100 EXP DUP2 SLOAD DUP2 PUSH20 0xFFFFFFFFFFFFFFFFFFFFFFFFFFFFFFFFFFFFFFFF MUL NOT AND SWAP1 DUP4 PUSH20 0xFFFFFFFFFFFFFFFFFFFFFFFFFFFFFFFFFFFFFFFF AND MUL OR SWAP1 SSTORE POP NUMBER PUSH1 0x4 DUP2 SWAP1 SSTORE POP PUSH2 0x8CA0 PUSH1 0x4 SLOAD PUSH3 0x19C SWAP2 SWAP1 PUSH3 0x60D JUMP JUMPDEST PUSH1 0x5 DUP2 SWAP1 SSTORE POP DUP3 PUSH1 0x2 DUP2 SWAP1 SSTORE POP PUSH1 0x0 PUSH1 0x7 PUSH1 0x0 PUSH2 0x100 EXP DUP2 SLOAD DUP2 PUSH1 0xFF MUL NOT AND SWAP1 DUP4 ISZERO ISZERO MUL OR SWAP1 SSTORE POP POP POP POP POP POP PUSH3 0x6CF JUMP JUMPDEST PUSH1 0x0 DUP1 PUSH1 0x0 SWAP1 POP DUP1 SWAP2 POP POP SWAP1 JUMP JUMPDEST DUP3 DUP1 SLOAD PUSH3 0x1EB SWAP1 PUSH3 0x699 JUMP JUMPDEST SWAP1 PUSH1 0x0 MSTORE PUSH1 0x20 PUSH1 0x0 KECCAK256 SWAP1 PUSH1 0x1F ADD PUSH1 0x20 SWAP1 DIV DUP2 ADD SWAP3 DUP3 PUSH3 0x20F JUMPI PUSH1 0x0 DUP6 SSTORE PUSH3 0x25B JUMP JUMPDEST DUP3 PUSH1 0x1F LT PUSH3 0x22A JUMPI DUP1 MLOAD PUSH1 0xFF NOT AND DUP4 DUP1 ADD OR DUP6 SSTORE PUSH3 0x25B JUMP JUMPDEST DUP3 DUP1 ADD PUSH1 0x1 ADD DUP6 SSTORE DUP3 ISZERO PUSH3 0x25B JUMPI SWAP2 DUP3 ADD JUMPDEST DUP3 DUP2 GT ISZERO PUSH3 0x25A JUMPI DUP3 MLOAD DUP3 SSTORE SWAP2 PUSH1 0x20 ADD SWAP2 SWAP1 PUSH1 0x1 ADD SWAP1 PUSH3 0x23D JUMP JUMPDEST JUMPDEST POP SWAP1 POP PUSH3 0x26A SWAP2 SWAP1 PUSH3 0x26E JUMP JUMPDEST POP SWAP1 JUMP JUMPDEST JUMPDEST DUP1 DUP3 GT ISZERO PUSH3 0x289 JUMPI PUSH1 0x0 DUP2 PUSH1 0x0 SWAP1 SSTORE POP PUSH1 0x1 ADD PUSH3 0x26F JUMP JUMPDEST POP SWAP1 JUMP JUMPDEST PUSH1 0x0 PUSH1 0x40 MLOAD SWAP1 POP SWAP1 JUMP JUMPDEST PUSH1 0x0 DUP1 REVERT JUMPDEST PUSH1 0x0 DUP1 REVERT JUMPDEST PUSH1 0x0 PUSH20 0xFFFFFFFFFFFFFFFFFFFFFFFFFFFFFFFFFFFFFFFF DUP3 AND SWAP1 POP SWAP2 SWAP1 POP JUMP JUMPDEST PUSH1 0x0 PUSH3 0x2CE DUP3 PUSH3 0x2A1 JUMP JUMPDEST SWAP1 POP SWAP2 SWAP1 POP JUMP JUMPDEST PUSH3 0x2E0 DUP2 PUSH3 0x2C1 JUMP JUMPDEST DUP2 EQ PUSH3 0x2EC JUMPI PUSH1 0x0 DUP1 REVERT JUMPDEST POP JUMP JUMPDEST PUSH1 0x0 DUP2 MLOAD SWAP1 POP PUSH3 0x300 DUP2 PUSH3 0x2D5 JUMP JUMPDEST SWAP3 SWAP2 POP POP JUMP JUMPDEST PUSH1 0x0 DUP2 SWAP1 POP SWAP2 SWAP1 POP JUMP JUMPDEST PUSH3 0x31B DUP2 PUSH3 0x306 JUMP JUMPDEST DUP2 EQ PUSH3 0x327 JUMPI PUSH1 0x0 DUP1 REVERT JUMPDEST POP JUMP JUMPDEST PUSH1 0x0 DUP2 MLOAD SWAP1 POP PUSH3 0x33B DUP2 PUSH3 0x310 JUMP JUMPDEST SWAP3 SWAP2 POP POP JUMP JUMPDEST PUSH1 0x0 DUP1 REVERT JUMPDEST PUSH1 0x0 DUP1 REVERT JUMPDEST PUSH1 0x0 PUSH1 0x1F NOT PUSH1 0x1F DUP4 ADD AND SWAP1 POP SWAP2 SWAP1 POP JUMP JUMPDEST PUSH32 0x4E487B7100000000000000000000000000000000000000000000000000000000 PUSH1 0x0 MSTORE PUSH1 0x41 PUSH1 0x4 MSTORE PUSH1 0x24 PUSH1 0x0 REVERT JUMPDEST PUSH3 0x396 DUP3 PUSH3 0x34B JUMP JUMPDEST DUP2 ADD DUP2 DUP2 LT PUSH8 0xFFFFFFFFFFFFFFFF DUP3 GT OR ISZERO PUSH3 0x3B8 JUMPI PUSH3 0x3B7 PUSH3 0x35C JUMP JUMPDEST JUMPDEST DUP1 PUSH1 0x40 MSTORE POP POP POP JUMP JUMPDEST PUSH1 0x0 PUSH3 0x3CD PUSH3 0x28D JUMP JUMPDEST SWAP1 POP PUSH3 0x3DB DUP3 DUP3 PUSH3 0x38B JUMP JUMPDEST SWAP2 SWAP1 POP JUMP JUMPDEST PUSH1 0x0 PUSH8 0xFFFFFFFFFFFFFFFF DUP3 GT ISZERO PUSH3 0x3FE JUMPI PUSH3 0x3FD PUSH3 0x35C JUMP JUMPDEST JUMPDEST PUSH3 0x409 DUP3 PUSH3 0x34B JUMP JUMPDEST SWAP1 POP PUSH1 0x20 DUP2 ADD SWAP1 POP SWAP2 SWAP1 POP JUMP JUMPDEST PUSH1 0x0 JUMPDEST DUP4 DUP2 LT ISZERO PUSH3 0x436 JUMPI DUP1 DUP3 ADD MLOAD DUP2 DUP5 ADD MSTORE PUSH1 0x20 DUP2 ADD SWAP1 POP PUSH3 0x419 JUMP JUMPDEST DUP4 DUP2 GT ISZERO PUSH3 0x446 JUMPI PUSH1 0x0 DUP5 DUP5 ADD MSTORE JUMPDEST POP POP POP POP JUMP JUMPDEST PUSH1 0x0 PUSH3 0x463 PUSH3 0x45D DUP5 PUSH3 0x3E0 JUMP JUMPDEST PUSH3 0x3C1 JUMP JUMPDEST SWAP1 POP DUP3 DUP2 MSTORE PUSH1 0x20 DUP2 ADD DUP5 DUP5 DUP5 ADD GT ISZERO PUSH3 0x482 JUMPI PUSH3 0x481 PUSH3 0x346 JUMP JUMPDEST JUMPDEST PUSH3 0x48F DUP5 DUP3 DUP6 PUSH3 0x416 JUMP JUMPDEST POP SWAP4 SWAP3 POP POP POP JUMP JUMPDEST PUSH1 0x0 DUP3 PUSH1 0x1F DUP4 ADD SLT PUSH3 0x4AF JUMPI PUSH3 0x4AE PUSH3 0x341 JUMP JUMPDEST JUMPDEST DUP2 MLOAD PUSH3 0x4C1 DUP5 DUP3 PUSH1 0x20 DUP7 ADD PUSH3 0x44C JUMP JUMPDEST SWAP2 POP POP SWAP3 SWAP2 POP POP JUMP JUMPDEST PUSH1 0x0 DUP1 PUSH1 0x0 DUP1 PUSH1 0x80 DUP6 DUP8 SUB SLT ISZERO PUSH3 0x4E7 JUMPI PUSH3 0x4E6 PUSH3 0x297 JUMP JUMPDEST JUMPDEST PUSH1 0x0 PUSH3 0x4F7 DUP8 DUP3 DUP9 ADD PUSH3 0x2EF JUMP JUMPDEST SWAP5 POP POP PUSH1 0x20 PUSH3 0x50A DUP8 DUP3 DUP9 ADD PUSH3 0x32A JUMP JUMPDEST SWAP4 POP POP PUSH1 0x40 PUSH3 0x51D DUP8 DUP3 DUP9 ADD PUSH3 0x32A JUMP JUMPDEST SWAP3 POP POP PUSH1 0x60 DUP6 ADD MLOAD PUSH8 0xFFFFFFFFFFFFFFFF DUP2 GT ISZERO PUSH3 0x541 JUMPI PUSH3 0x540 PUSH3 0x29C JUMP JUMPDEST JUMPDEST PUSH3 0x54F DUP8 DUP3 DUP9 ADD PUSH3 0x497 JUMP JUMPDEST SWAP2 POP POP SWAP3 SWAP6 SWAP2 SWAP5 POP SWAP3 POP JUMP JUMPDEST PUSH1 0x0 DUP3 DUP3 MSTORE PUSH1 0x20 DUP3 ADD SWAP1 POP SWAP3 SWAP2 POP POP JUMP JUMPDEST PUSH32 0x776F72647320746F6F2068696768000000000000000000000000000000000000 PUSH1 0x0 DUP3 ADD MSTORE POP JUMP JUMPDEST PUSH1 0x0 PUSH3 0x5A4 PUSH1 0xE DUP4 PUSH3 0x55B JUMP JUMPDEST SWAP2 POP PUSH3 0x5B1 DUP3 PUSH3 0x56C JUMP JUMPDEST PUSH1 0x20 DUP3 ADD SWAP1 POP SWAP2 SWAP1 POP JUMP JUMPDEST PUSH1 0x0 PUSH1 0x20 DUP3 ADD SWAP1 POP DUP2 DUP2 SUB PUSH1 0x0 DUP4 ADD MSTORE PUSH3 0x5D7 DUP2 PUSH3 0x595 JUMP JUMPDEST SWAP1 POP SWAP2 SWAP1 POP JUMP JUMPDEST PUSH32 0x4E487B7100000000000000000000000000000000000000000000000000000000 PUSH1 0x0 MSTORE PUSH1 0x11 PUSH1 0x4 MSTORE PUSH1 0x24 PUSH1 0x0 REVERT JUMPDEST PUSH1 0x0 PUSH3 0x61A DUP3 PUSH3 0x306 JUMP JUMPDEST SWAP2 POP PUSH3 0x627 DUP4 PUSH3 0x306 JUMP JUMPDEST SWAP3 POP DUP3 PUSH32 0xFFFFFFFFFFFFFFFFFFFFFFFFFFFFFFFFFFFFFFFFFFFFFFFFFFFFFFFFFFFFFFFF SUB DUP3 GT ISZERO PUSH3 0x65F JUMPI PUSH3 0x65E PUSH3 0x5DE JUMP JUMPDEST JUMPDEST DUP3 DUP3 ADD SWAP1 POP SWAP3 SWAP2 POP POP JUMP JUMPDEST PUSH32 0x4E487B7100000000000000000000000000000000000000000000000000000000 PUSH1 0x0 MSTORE PUSH1 0x22 PUSH1 0x4 MSTORE PUSH1 0x24 PUSH1 0x0 REVERT JUMPDEST PUSH1 0x0 PUSH1 0x2 DUP3 DIV SWAP1 POP PUSH1 0x1 DUP3 AND DUP1 PUSH3 0x6B2 JUMPI PUSH1 0x7F DUP3 AND SWAP2 POP JUMPDEST PUSH1 0x20 DUP3 LT DUP2 EQ ISZERO PUSH3 0x6C9 JUMPI PUSH3 0x6C8 PUSH3 0x66A JUMP JUMPDEST JUMPDEST POP SWAP2 SWAP1 POP JUMP JUMPDEST PUSH2 0x123E DUP1 PUSH3 0x6DF PUSH1 0x0 CODECOPY PUSH1 0x0 RETURN INVALID PUSH1 0x80 PUSH1 0x40 MSTORE PUSH1 0x4 CALLDATASIZE LT PUSH2 0x91 JUMPI PUSH1 0x0 CALLDATALOAD PUSH1 0xE0 SHR DUP1 PUSH4 0xD4D33A6F GT PUSH2 0x59 JUMPI DUP1 PUSH4 0xD4D33A6F EQ PUSH2 0x15E JUMPI DUP1 PUSH4 0xE5422944 EQ PUSH2 0x189 JUMPI DUP1 PUSH4 0xE7C03E57 EQ PUSH2 0x1B4 JUMPI DUP1 PUSH4 0xFD3B5A69 EQ PUSH2 0x1DF JUMPI DUP1 PUSH4 0xFE67A54B EQ PUSH2 0x1F6 JUMPI PUSH2 0x91 JUMP JUMPDEST DUP1 PUSH4 0x1300A6D1 EQ PUSH2 0x96 JUMPI DUP1 PUSH4 0x29C61ECA EQ PUSH2 0xC1 JUMPI DUP1 PUSH4 0x47CCCA02 EQ PUSH2 0xDD JUMPI DUP1 PUSH4 0x5DD672EC EQ PUSH2 0x108 JUMPI DUP1 PUSH4 0xC6BC5182 EQ PUSH2 0x133 JUMPI JUMPDEST PUSH1 0x0 DUP1 REVERT JUMPDEST CALLVALUE DUP1 ISZERO PUSH2 0xA2 JUMPI PUSH1 0x0 DUP1 REVERT JUMPDEST POP PUSH2 0xAB PUSH2 0x200 JUMP JUMPDEST PUSH1 0x40 MLOAD PUSH2 0xB8 SWAP2 SWAP1 PUSH2 0xA6F JUMP JUMPDEST PUSH1 0x40 MLOAD DUP1 SWAP2 SUB SWAP1 RETURN JUMPDEST PUSH2 0xDB PUSH1 0x4 DUP1 CALLDATASIZE SUB DUP2 ADD SWAP1 PUSH2 0xD6 SWAP2 SWAP1 PUSH2 0xAFF JUMP JUMPDEST PUSH2 0x215 JUMP JUMPDEST STOP JUMPDEST CALLVALUE DUP1 ISZERO PUSH2 0xE9 JUMPI PUSH1 0x0 DUP1 REVERT JUMPDEST POP PUSH2 0xF2 PUSH2 0x4F1 JUMP JUMPDEST PUSH1 0x40 MLOAD PUSH2 0xFF SWAP2 SWAP1 PUSH2 0xB8B JUMP JUMPDEST PUSH1 0x40 MLOAD DUP1 SWAP2 SUB SWAP1 RETURN JUMPDEST CALLVALUE DUP1 ISZERO PUSH2 0x114 JUMPI PUSH1 0x0 DUP1 REVERT JUMPDEST POP PUSH2 0x11D PUSH2 0x517 JUMP JUMPDEST PUSH1 0x40 MLOAD PUSH2 0x12A SWAP2 SWAP1 PUSH2 0xC3F JUMP JUMPDEST PUSH1 0x40 MLOAD DUP1 SWAP2 SUB SWAP1 RETURN JUMPDEST CALLVALUE DUP1 ISZERO PUSH2 0x13F JUMPI PUSH1 0x0 DUP1 REVERT JUMPDEST POP PUSH2 0x148 PUSH2 0x566 JUMP JUMPDEST PUSH1 0x40 MLOAD PUSH2 0x155 SWAP2 SWAP1 PUSH2 0xA6F JUMP JUMPDEST PUSH1 0x40 MLOAD DUP1 SWAP2 SUB SWAP1 RETURN JUMPDEST CALLVALUE DUP1 ISZERO PUSH2 0x16A JUMPI PUSH1 0x0 DUP1 REVERT JUMPDEST POP PUSH2 0x173 PUSH2 0x56C JUMP JUMPDEST PUSH1 0x40 MLOAD PUSH2 0x180 SWAP2 SWAP1 PUSH2 0xA6F JUMP JUMPDEST PUSH1 0x40 MLOAD DUP1 SWAP2 SUB SWAP1 RETURN JUMPDEST CALLVALUE DUP1 ISZERO PUSH2 0x195 JUMPI PUSH1 0x0 DUP1 REVERT JUMPDEST POP PUSH2 0x19E PUSH2 0x57A JUMP JUMPDEST PUSH1 0x40 MLOAD PUSH2 0x1AB SWAP2 SWAP1 PUSH2 0xC7C JUMP JUMPDEST PUSH1 0x40 MLOAD DUP1 SWAP2 SUB SWAP1 RETURN JUMPDEST CALLVALUE DUP1 ISZERO PUSH2 0x1C0 JUMPI PUSH1 0x0 DUP1 REVERT JUMPDEST POP PUSH2 0x1C9 PUSH2 0x587 JUMP JUMPDEST PUSH1 0x40 MLOAD PUSH2 0x1D6 SWAP2 SWAP1 PUSH2 0xA6F JUMP JUMPDEST PUSH1 0x40 MLOAD DUP1 SWAP2 SUB SWAP1 RETURN JUMPDEST CALLVALUE DUP1 ISZERO PUSH2 0x1EB JUMPI PUSH1 0x0 DUP1 REVERT JUMPDEST POP PUSH2 0x1F4 PUSH2 0x591 JUMP JUMPDEST STOP JUMPDEST PUSH2 0x1FE PUSH2 0x59A JUMP JUMPDEST STOP JUMPDEST PUSH1 0x0 NUMBER PUSH1 0x5 SLOAD PUSH2 0x210 SWAP2 SWAP1 PUSH2 0xCC6 JUMP JUMPDEST SWAP1 POP SWAP1 JUMP JUMPDEST DUP1 PUSH20 0xFFFFFFFFFFFFFFFFFFFFFFFFFFFFFFFFFFFFFFFF AND PUSH4 0xD321FE29 PUSH1 0x40 MLOAD DUP2 PUSH4 0xFFFFFFFF AND PUSH1 0xE0 SHL DUP2 MSTORE PUSH1 0x4 ADD PUSH1 0x20 PUSH1 0x40 MLOAD DUP1 DUP4 SUB DUP2 DUP7 DUP1 EXTCODESIZE ISZERO DUP1 ISZERO PUSH2 0x25B JUMPI PUSH1 0x0 DUP1 REVERT JUMPDEST POP GAS STATICCALL ISZERO DUP1 ISZERO PUSH2 0x26F JUMPI RETURNDATASIZE PUSH1 0x0 DUP1 RETURNDATACOPY RETURNDATASIZE PUSH1 0x0 REVERT JUMPDEST POP POP POP POP PUSH1 0x40 MLOAD RETURNDATASIZE PUSH1 0x1F NOT PUSH1 0x1F DUP3 ADD AND DUP3 ADD DUP1 PUSH1 0x40 MSTORE POP DUP2 ADD SWAP1 PUSH2 0x293 SWAP2 SWAP1 PUSH2 0xD26 JUMP JUMPDEST PUSH1 0x2 SLOAD DUP2 GT PUSH2 0x2D7 JUMPI PUSH1 0x40 MLOAD PUSH32 0x8C379A000000000000000000000000000000000000000000000000000000000 DUP2 MSTORE PUSH1 0x4 ADD PUSH2 0x2CE SWAP1 PUSH2 0xD9F JUMP JUMPDEST PUSH1 0x40 MLOAD DUP1 SWAP2 SUB SWAP1 REVERT JUMPDEST DUP2 PUSH20 0xFFFFFFFFFFFFFFFFFFFFFFFFFFFFFFFFFFFFFFFF AND PUSH4 0xD321FE29 PUSH1 0x40 MLOAD DUP2 PUSH4 0xFFFFFFFF AND PUSH1 0xE0 SHL DUP2 MSTORE PUSH1 0x4 ADD PUSH1 0x20 PUSH1 0x40 MLOAD DUP1 DUP4 SUB DUP2 DUP7 DUP1 EXTCODESIZE ISZERO DUP1 ISZERO PUSH2 0x31D JUMPI PUSH1 0x0 DUP1 REVERT JUMPDEST POP GAS STATICCALL ISZERO DUP1 ISZERO PUSH2 0x331 JUMPI RETURNDATASIZE PUSH1 0x0 DUP1 RETURNDATACOPY RETURNDATASIZE PUSH1 0x0 REVERT JUMPDEST POP POP POP POP PUSH1 0x40 MLOAD RETURNDATASIZE PUSH1 0x1F NOT PUSH1 0x1F DUP3 ADD AND DUP3 ADD DUP1 PUSH1 0x40 MSTORE POP DUP2 ADD SWAP1 PUSH2 0x355 SWAP2 SWAP1 PUSH2 0xD26 JUMP JUMPDEST PUSH1 0x0 DUP2 EQ ISZERO PUSH2 0x363 JUMPI PUSH1 0x0 DUP1 REVERT JUMPDEST PUSH2 0x36B PUSH2 0x57A JUMP JUMPDEST ISZERO PUSH2 0x3AB JUMPI PUSH1 0x40 MLOAD PUSH32 0x8C379A000000000000000000000000000000000000000000000000000000000 DUP2 MSTORE PUSH1 0x4 ADD PUSH2 0x3A2 SWAP1 PUSH2 0xE0B JUMP JUMPDEST PUSH1 0x40 MLOAD DUP1 SWAP2 SUB SWAP1 REVERT JUMPDEST PUSH1 0x0 PUSH1 0x5 PUSH1 0x0 DUP3 DUP3 SLOAD PUSH2 0x3BE SWAP2 SWAP1 PUSH2 0xE2B JUMP JUMPDEST SWAP3 POP POP DUP2 SWAP1 SSTORE POP DUP3 PUSH20 0xFFFFFFFFFFFFFFFFFFFFFFFFFFFFFFFFFFFFFFFF AND PUSH4 0xD321FE29 PUSH1 0x40 MLOAD DUP2 PUSH4 0xFFFFFFFF AND PUSH1 0xE0 SHL DUP2 MSTORE PUSH1 0x4 ADD PUSH1 0x20 PUSH1 0x40 MLOAD DUP1 DUP4 SUB DUP2 DUP7 DUP1 EXTCODESIZE ISZERO DUP1 ISZERO PUSH2 0x40B JUMPI PUSH1 0x0 DUP1 REVERT JUMPDEST POP GAS STATICCALL ISZERO DUP1 ISZERO PUSH2 0x41F JUMPI RETURNDATASIZE PUSH1 0x0 DUP1 RETURNDATACOPY RETURNDATASIZE PUSH1 0x0 REVERT JUMPDEST POP POP POP POP PUSH1 0x40 MLOAD RETURNDATASIZE PUSH1 0x1F NOT PUSH1 0x1F DUP3 ADD AND DUP3 ADD DUP1 PUSH1 0x40 MSTORE POP DUP2 ADD SWAP1 PUSH2 0x443 SWAP2 SWAP1 PUSH2 0xD26 JUMP JUMPDEST PUSH1 0x2 DUP2 SWAP1 SSTORE POP PUSH1 0x9 DUP4 SWAP1 DUP1 PUSH1 0x1 DUP2 SLOAD ADD DUP1 DUP3 SSTORE DUP1 SWAP2 POP POP PUSH1 0x1 SWAP1 SUB SWAP1 PUSH1 0x0 MSTORE PUSH1 0x20 PUSH1 0x0 KECCAK256 ADD PUSH1 0x0 SWAP1 SWAP2 SWAP1 SWAP2 SWAP1 SWAP2 PUSH2 0x100 EXP DUP2 SLOAD DUP2 PUSH20 0xFFFFFFFFFFFFFFFFFFFFFFFFFFFFFFFFFFFFFFFF MUL NOT AND SWAP1 DUP4 PUSH20 0xFFFFFFFFFFFFFFFFFFFFFFFFFFFFFFFFFFFFFFFF AND MUL OR SWAP1 SSTORE POP PUSH32 0x32867FB66A0F5DAC86FDC38F0B8835473938F9C0092C2DD0108F7FBDA42992E1 PUSH1 0x2 SLOAD PUSH1 0x2 SLOAD PUSH1 0x9 PUSH1 0x40 MLOAD PUSH2 0x4E4 SWAP4 SWAP3 SWAP2 SWAP1 PUSH2 0xFB7 JUMP JUMPDEST PUSH1 0x40 MLOAD DUP1 SWAP2 SUB SWAP1 LOG1 POP POP POP JUMP JUMPDEST PUSH1 0x7 PUSH1 0x1 SWAP1 SLOAD SWAP1 PUSH2 0x100 EXP SWAP1 DIV PUSH20 0xFFFFFFFFFFFFFFFFFFFFFFFFFFFFFFFFFFFFFFFF AND DUP2 JUMP JUMPDEST PUSH1 0x60 PUSH31 0x7F4A0E162470E17BE3635DAF366F38CF61529B24227A8DF481CBD19D753E6 PUSH1 0x2 SLOAD PUSH1 0x40 MLOAD PUSH2 0x549 SWAP2 SWAP1 PUSH2 0xA6F JUMP JUMPDEST PUSH1 0x40 MLOAD DUP1 SWAP2 SUB SWAP1 LOG1 PUSH1 0x40 MLOAD DUP1 PUSH1 0x20 ADD PUSH1 0x40 MSTORE DUP1 PUSH1 0x0 DUP2 MSTORE POP SWAP1 POP SWAP1 JUMP JUMPDEST PUSH1 0x8 SLOAD DUP2 JUMP JUMPDEST PUSH1 0x0 DUP1 PUSH1 0x0 SWAP1 POP DUP1 SWAP2 POP POP SWAP1 JUMP JUMPDEST PUSH1 0x0 NUMBER PUSH1 0x5 SLOAD GT ISZERO SWAP1 POP SWAP1 JUMP JUMPDEST PUSH1 0x0 PUSH1 0x2 SLOAD SWAP1 POP SWAP1 JUMP JUMPDEST NUMBER PUSH1 0x5 DUP2 SWAP1 SSTORE POP JUMP JUMPDEST PUSH1 0x1 PUSH1 0x0 SWAP1 SLOAD SWAP1 PUSH2 0x100 EXP SWAP1 DIV PUSH20 0xFFFFFFFFFFFFFFFFFFFFFFFFFFFFFFFFFFFFFFFF AND PUSH20 0xFFFFFFFFFFFFFFFFFFFFFFFFFFFFFFFFFFFFFFFF AND CALLER PUSH20 0xFFFFFFFFFFFFFFFFFFFFFFFFFFFFFFFFFFFFFFFF AND EQ PUSH2 0x62A JUMPI PUSH1 0x40 MLOAD PUSH32 0x8C379A000000000000000000000000000000000000000000000000000000000 DUP2 MSTORE PUSH1 0x4 ADD PUSH2 0x621 SWAP1 PUSH2 0x1041 JUMP JUMPDEST PUSH1 0x40 MLOAD DUP1 SWAP2 SUB SWAP1 REVERT JUMPDEST PUSH2 0x632 PUSH2 0x57A JUMP JUMPDEST PUSH2 0x671 JUMPI PUSH1 0x40 MLOAD PUSH32 0x8C379A000000000000000000000000000000000000000000000000000000000 DUP2 MSTORE PUSH1 0x4 ADD PUSH2 0x668 SWAP1 PUSH2 0x10AD JUMP JUMPDEST PUSH1 0x40 MLOAD DUP1 SWAP2 SUB SWAP1 REVERT JUMPDEST PUSH1 0x7 PUSH1 0x0 SWAP1 SLOAD SWAP1 PUSH2 0x100 EXP SWAP1 DIV PUSH1 0xFF AND PUSH2 0x872 JUMPI PUSH1 0x7 PUSH1 0x1 SWAP1 SLOAD SWAP1 PUSH2 0x100 EXP SWAP1 DIV PUSH20 0xFFFFFFFFFFFFFFFFFFFFFFFFFFFFFFFFFFFFFFFF AND PUSH20 0xFFFFFFFFFFFFFFFFFFFFFFFFFFFFFFFFFFFFFFFF AND PUSH4 0x42842E0E PUSH1 0x0 DUP1 SLOAD SWAP1 PUSH2 0x100 EXP SWAP1 DIV PUSH20 0xFFFFFFFFFFFFFFFFFFFFFFFFFFFFFFFFFFFFFFFF AND PUSH1 0x9 PUSH1 0x1 PUSH1 0x9 DUP1 SLOAD SWAP1 POP PUSH2 0x6F8 SWAP2 SWAP1 PUSH2 0xCC6 JUMP JUMPDEST DUP2 SLOAD DUP2 LT PUSH2 0x709 JUMPI PUSH2 0x708 PUSH2 0x10CD JUMP JUMPDEST JUMPDEST SWAP1 PUSH1 0x0 MSTORE PUSH1 0x20 PUSH1 0x0 KECCAK256 ADD PUSH1 0x0 SWAP1 SLOAD SWAP1 PUSH2 0x100 EXP SWAP1 DIV PUSH20 0xFFFFFFFFFFFFFFFFFFFFFFFFFFFFFFFFFFFFFFFF AND PUSH20 0xFFFFFFFFFFFFFFFFFFFFFFFFFFFFFFFFFFFFFFFF AND PUSH4 0x38CC4831 PUSH1 0x40 MLOAD DUP2 PUSH4 0xFFFFFFFF AND PUSH1 0xE0 SHL DUP2 MSTORE PUSH1 0x4 ADD PUSH1 0x20 PUSH1 0x40 MLOAD DUP1 DUP4 SUB DUP2 DUP7 DUP1 EXTCODESIZE ISZERO DUP1 ISZERO PUSH2 0x779 JUMPI PUSH1 0x0 DUP1 REVERT JUMPDEST POP GAS STATICCALL ISZERO DUP1 ISZERO PUSH2 0x78D JUMPI RETURNDATASIZE PUSH1 0x0 DUP1 RETURNDATACOPY RETURNDATASIZE PUSH1 0x0 REVERT JUMPDEST POP POP POP POP PUSH1 0x40 MLOAD RETURNDATASIZE PUSH1 0x1F NOT PUSH1 0x1F DUP3 ADD AND DUP3 ADD DUP1 PUSH1 0x40 MSTORE POP DUP2 ADD SWAP1 PUSH2 0x7B1 SWAP2 SWAP1 PUSH2 0x113A JUMP JUMPDEST PUSH1 0x6 SLOAD PUSH1 0x40 MLOAD DUP5 PUSH4 0xFFFFFFFF AND PUSH1 0xE0 SHL DUP2 MSTORE PUSH1 0x4 ADD PUSH2 0x7D2 SWAP4 SWAP3 SWAP2 SWAP1 PUSH2 0x1188 JUMP JUMPDEST PUSH1 0x0 PUSH1 0x40 MLOAD DUP1 DUP4 SUB DUP2 PUSH1 0x0 DUP8 DUP1 EXTCODESIZE ISZERO DUP1 ISZERO PUSH2 0x7EC JUMPI PUSH1 0x0 DUP1 REVERT JUMPDEST POP GAS CALL ISZERO DUP1 ISZERO PUSH2 0x800 JUMPI RETURNDATASIZE PUSH1 0x0 DUP1 RETURNDATACOPY RETURNDATASIZE PUSH1 0x0 REVERT JUMPDEST POP POP POP POP PUSH1 0x0 DUP1 SLOAD SWAP1 PUSH2 0x100 EXP SWAP1 DIV PUSH20 0xFFFFFFFFFFFFFFFFFFFFFFFFFFFFFFFFFFFFFFFF AND PUSH20 0xFFFFFFFFFFFFFFFFFFFFFFFFFFFFFFFFFFFFFFFF AND PUSH2 0x8FC PUSH1 0x2 SLOAD SWAP1 DUP2 ISZERO MUL SWAP1 PUSH1 0x40 MLOAD PUSH1 0x0 PUSH1 0x40 MLOAD DUP1 DUP4 SUB DUP2 DUP6 DUP9 DUP9 CALL SWAP4 POP POP POP POP ISZERO DUP1 ISZERO PUSH2 0x86C JUMPI RETURNDATASIZE PUSH1 0x0 DUP1 RETURNDATACOPY RETURNDATASIZE PUSH1 0x0 REVERT JUMPDEST POP PUSH2 0xA54 JUMP JUMPDEST PUSH1 0x0 JUMPDEST PUSH1 0x9 DUP1 SLOAD SWAP1 POP DUP2 LT ISZERO PUSH2 0xA52 JUMPI PUSH1 0x9 DUP2 DUP2 SLOAD DUP2 LT PUSH2 0x896 JUMPI PUSH2 0x895 PUSH2 0x10CD JUMP JUMPDEST JUMPDEST SWAP1 PUSH1 0x0 MSTORE PUSH1 0x20 PUSH1 0x0 KECCAK256 ADD PUSH1 0x0 SWAP1 SLOAD SWAP1 PUSH2 0x100 EXP SWAP1 DIV PUSH20 0xFFFFFFFFFFFFFFFFFFFFFFFFFFFFFFFFFFFFFFFF AND PUSH20 0xFFFFFFFFFFFFFFFFFFFFFFFFFFFFFFFFFFFFFFFF AND PUSH4 0x38CC4831 PUSH1 0x40 MLOAD DUP2 PUSH4 0xFFFFFFFF AND PUSH1 0xE0 SHL DUP2 MSTORE PUSH1 0x4 ADD PUSH1 0x20 PUSH1 0x40 MLOAD DUP1 DUP4 SUB DUP2 DUP7 DUP1 EXTCODESIZE ISZERO DUP1 ISZERO PUSH2 0x906 JUMPI PUSH1 0x0 DUP1 REVERT JUMPDEST POP GAS STATICCALL ISZERO DUP1 ISZERO PUSH2 0x91A JUMPI RETURNDATASIZE PUSH1 0x0 DUP1 RETURNDATACOPY RETURNDATASIZE PUSH1 0x0 REVERT JUMPDEST POP POP POP POP PUSH1 0x40 MLOAD RETURNDATASIZE PUSH1 0x1F NOT PUSH1 0x1F DUP3 ADD AND DUP3 ADD DUP1 PUSH1 0x40 MSTORE POP DUP2 ADD SWAP1 PUSH2 0x93E SWAP2 SWAP1 PUSH2 0x113A JUMP JUMPDEST PUSH20 0xFFFFFFFFFFFFFFFFFFFFFFFFFFFFFFFFFFFFFFFF AND PUSH2 0x8FC PUSH1 0x9 DUP4 DUP2 SLOAD DUP2 LT PUSH2 0x96B JUMPI PUSH2 0x96A PUSH2 0x10CD JUMP JUMPDEST JUMPDEST SWAP1 PUSH1 0x0 MSTORE PUSH1 0x20 PUSH1 0x0 KECCAK256 ADD PUSH1 0x0 SWAP1 SLOAD SWAP1 PUSH2 0x100 EXP SWAP1 DIV PUSH20 0xFFFFFFFFFFFFFFFFFFFFFFFFFFFFFFFFFFFFFFFF AND PUSH20 0xFFFFFFFFFFFFFFFFFFFFFFFFFFFFFFFFFFFFFFFF AND PUSH4 0xD321FE29 PUSH1 0x40 MLOAD DUP2 PUSH4 0xFFFFFFFF AND PUSH1 0xE0 SHL DUP2 MSTORE PUSH1 0x4 ADD PUSH1 0x20 PUSH1 0x40 MLOAD DUP1 DUP4 SUB DUP2 DUP7 DUP1 EXTCODESIZE ISZERO DUP1 ISZERO PUSH2 0x9DB JUMPI PUSH1 0x0 DUP1 REVERT JUMPDEST POP GAS STATICCALL ISZERO DUP1 ISZERO PUSH2 0x9EF JUMPI RETURNDATASIZE PUSH1 0x0 DUP1 RETURNDATACOPY RETURNDATASIZE PUSH1 0x0 REVERT JUMPDEST POP POP POP POP PUSH1 0x40 MLOAD RETURNDATASIZE PUSH1 0x1F NOT PUSH1 0x1F DUP3 ADD AND DUP3 ADD DUP1 PUSH1 0x40 MSTORE POP DUP2 ADD SWAP1 PUSH2 0xA13 SWAP2 SWAP1 PUSH2 0xD26 JUMP JUMPDEST SWAP1 DUP2 ISZERO MUL SWAP1 PUSH1 0x40 MLOAD PUSH1 0x0 PUSH1 0x40 MLOAD DUP1 DUP4 SUB DUP2 DUP6 DUP9 DUP9 CALL SWAP4 POP POP POP POP ISZERO DUP1 ISZERO PUSH2 0xA3E JUMPI RETURNDATASIZE PUSH1 0x0 DUP1 RETURNDATACOPY RETURNDATASIZE PUSH1 0x0 REVERT JUMPDEST POP DUP1 DUP1 PUSH2 0xA4A SWAP1 PUSH2 0x11BF JUMP JUMPDEST SWAP2 POP POP PUSH2 0x875 JUMP JUMPDEST POP JUMPDEST JUMP JUMPDEST PUSH1 0x0 DUP2 SWAP1 POP SWAP2 SWAP1 POP JUMP JUMPDEST PUSH2 0xA69 DUP2 PUSH2 0xA56 JUMP JUMPDEST DUP3 MSTORE POP POP JUMP JUMPDEST PUSH1 0x0 PUSH1 0x20 DUP3 ADD SWAP1 POP PUSH2 0xA84 PUSH1 0x0 DUP4 ADD DUP5 PUSH2 0xA60 JUMP JUMPDEST SWAP3 SWAP2 POP POP JUMP JUMPDEST PUSH1 0x0 DUP1 REVERT JUMPDEST PUSH1 0x0 PUSH20 0xFFFFFFFFFFFFFFFFFFFFFFFFFFFFFFFFFFFFFFFF DUP3 AND SWAP1 POP SWAP2 SWAP1 POP JUMP JUMPDEST PUSH1 0x0 PUSH2 0xABA DUP3 PUSH2 0xA8F JUMP JUMPDEST SWAP1 POP SWAP2 SWAP1 POP JUMP JUMPDEST PUSH1 0x0 PUSH2 0xACC DUP3 PUSH2 0xAAF JUMP JUMPDEST SWAP1 POP SWAP2 SWAP1 POP JUMP JUMPDEST PUSH2 0xADC DUP2 PUSH2 0xAC1 JUMP JUMPDEST DUP2 EQ PUSH2 0xAE7 JUMPI PUSH1 0x0 DUP1 REVERT JUMPDEST POP JUMP JUMPDEST PUSH1 0x0 DUP2 CALLDATALOAD SWAP1 POP PUSH2 0xAF9 DUP2 PUSH2 0xAD3 JUMP JUMPDEST SWAP3 SWAP2 POP POP JUMP JUMPDEST PUSH1 0x0 PUSH1 0x20 DUP3 DUP5 SUB SLT ISZERO PUSH2 0xB15 JUMPI PUSH2 0xB14 PUSH2 0xA8A JUMP JUMPDEST JUMPDEST PUSH1 0x0 PUSH2 0xB23 DUP5 DUP3 DUP6 ADD PUSH2 0xAEA JUMP JUMPDEST SWAP2 POP POP SWAP3 SWAP2 POP POP JUMP JUMPDEST PUSH1 0x0 DUP2 SWAP1 POP SWAP2 SWAP1 POP JUMP JUMPDEST PUSH1 0x0 PUSH2 0xB51 PUSH2 0xB4C PUSH2 0xB47 DUP5 PUSH2 0xA8F JUMP JUMPDEST PUSH2 0xB2C JUMP JUMPDEST PUSH2 0xA8F JUMP JUMPDEST SWAP1 POP SWAP2 SWAP1 POP JUMP JUMPDEST PUSH1 0x0 PUSH2 0xB63 DUP3 PUSH2 0xB36 JUMP JUMPDEST SWAP1 POP SWAP2 SWAP1 POP JUMP JUMPDEST PUSH1 0x0 PUSH2 0xB75 DUP3 PUSH2 0xB58 JUMP JUMPDEST SWAP1 POP SWAP2 SWAP1 POP JUMP JUMPDEST PUSH2 0xB85 DUP2 PUSH2 0xB6A JUMP JUMPDEST DUP3 MSTORE POP POP JUMP JUMPDEST PUSH1 0x0 PUSH1 0x20 DUP3 ADD SWAP1 POP PUSH2 0xBA0 PUSH1 0x0 DUP4 ADD DUP5 PUSH2 0xB7C JUMP JUMPDEST SWAP3 SWAP2 POP POP JUMP JUMPDEST PUSH1 0x0 DUP2 MLOAD SWAP1 POP SWAP2 SWAP1 POP JUMP JUMPDEST PUSH1 0x0 DUP3 DUP3 MSTORE PUSH1 0x20 DUP3 ADD SWAP1 POP SWAP3 SWAP2 POP POP JUMP JUMPDEST PUSH1 0x0 JUMPDEST DUP4 DUP2 LT ISZERO PUSH2 0xBE0 JUMPI DUP1 DUP3 ADD MLOAD DUP2 DUP5 ADD MSTORE PUSH1 0x20 DUP2 ADD SWAP1 POP PUSH2 0xBC5 JUMP JUMPDEST DUP4 DUP2 GT ISZERO PUSH2 0xBEF JUMPI PUSH1 0x0 DUP5 DUP5 ADD MSTORE JUMPDEST POP POP POP POP JUMP JUMPDEST PUSH1 0x0 PUSH1 0x1F NOT PUSH1 0x1F DUP4 ADD AND SWAP1 POP SWAP2 SWAP1 POP JUMP JUMPDEST PUSH1 0x0 PUSH2 0xC11 DUP3 PUSH2 0xBA6 JUMP JUMPDEST PUSH2 0xC1B DUP2 DUP6 PUSH2 0xBB1 JUMP JUMPDEST SWAP4 POP PUSH2 0xC2B DUP2 DUP6 PUSH1 0x20 DUP7 ADD PUSH2 0xBC2 JUMP JUMPDEST PUSH2 0xC34 DUP2 PUSH2 0xBF5 JUMP JUMPDEST DUP5 ADD SWAP2 POP POP SWAP3 SWAP2 POP POP JUMP JUMPDEST PUSH1 0x0 PUSH1 0x20 DUP3 ADD SWAP1 POP DUP2 DUP2 SUB PUSH1 0x0 DUP4 ADD MSTORE PUSH2 0xC59 DUP2 DUP5 PUSH2 0xC06 JUMP JUMPDEST SWAP1 POP SWAP3 SWAP2 POP POP JUMP JUMPDEST PUSH1 0x0 DUP2 ISZERO ISZERO SWAP1 POP SWAP2 SWAP1 POP JUMP JUMPDEST PUSH2 0xC76 DUP2 PUSH2 0xC61 JUMP JUMPDEST DUP3 MSTORE POP POP JUMP JUMPDEST PUSH1 0x0 PUSH1 0x20 DUP3 ADD SWAP1 POP PUSH2 0xC91 PUSH1 0x0 DUP4 ADD DUP5 PUSH2 0xC6D JUMP JUMPDEST SWAP3 SWAP2 POP POP JUMP JUMPDEST PUSH32 0x4E487B7100000000000000000000000000000000000000000000000000000000 PUSH1 0x0 MSTORE PUSH1 0x11 PUSH1 0x4 MSTORE PUSH1 0x24 PUSH1 0x0 REVERT JUMPDEST PUSH1 0x0 PUSH2 0xCD1 DUP3 PUSH2 0xA56 JUMP JUMPDEST SWAP2 POP PUSH2 0xCDC DUP4 PUSH2 0xA56 JUMP JUMPDEST SWAP3 POP DUP3 DUP3 LT ISZERO PUSH2 0xCEF JUMPI PUSH2 0xCEE PUSH2 0xC97 JUMP JUMPDEST JUMPDEST DUP3 DUP3 SUB SWAP1 POP SWAP3 SWAP2 POP POP JUMP JUMPDEST PUSH2 0xD03 DUP2 PUSH2 0xA56 JUMP JUMPDEST DUP2 EQ PUSH2 0xD0E JUMPI PUSH1 0x0 DUP1 REVERT JUMPDEST POP JUMP JUMPDEST PUSH1 0x0 DUP2 MLOAD SWAP1 POP PUSH2 0xD20 DUP2 PUSH2 0xCFA JUMP JUMPDEST SWAP3 SWAP2 POP POP JUMP JUMPDEST PUSH1 0x0 PUSH1 0x20 DUP3 DUP5 SUB SLT ISZERO PUSH2 0xD3C JUMPI PUSH2 0xD3B PUSH2 0xA8A JUMP JUMPDEST JUMPDEST PUSH1 0x0 PUSH2 0xD4A DUP5 DUP3 DUP6 ADD PUSH2 0xD11 JUMP JUMPDEST SWAP2 POP POP SWAP3 SWAP2 POP POP JUMP JUMPDEST PUSH32 0x62696420746F6F206C6F77000000000000000000000000000000000000000000 PUSH1 0x0 DUP3 ADD MSTORE POP JUMP JUMPDEST PUSH1 0x0 PUSH2 0xD89 PUSH1 0xB DUP4 PUSH2 0xBB1 JUMP JUMPDEST SWAP2 POP PUSH2 0xD94 DUP3 PUSH2 0xD53 JUMP JUMPDEST PUSH1 0x20 DUP3 ADD SWAP1 POP SWAP2 SWAP1 POP JUMP JUMPDEST PUSH1 0x0 PUSH1 0x20 DUP3 ADD SWAP1 POP DUP2 DUP2 SUB PUSH1 0x0 DUP4 ADD MSTORE PUSH2 0xDB8 DUP2 PUSH2 0xD7C JUMP JUMPDEST SWAP1 POP SWAP2 SWAP1 POP JUMP JUMPDEST PUSH32 0x61756374696F6E20697320616C7265616479206F766572000000000000000000 PUSH1 0x0 DUP3 ADD MSTORE POP JUMP JUMPDEST PUSH1 0x0 PUSH2 0xDF5 PUSH1 0x17 DUP4 PUSH2 0xBB1 JUMP JUMPDEST SWAP2 POP PUSH2 0xE00 DUP3 PUSH2 0xDBF JUMP JUMPDEST PUSH1 0x20 DUP3 ADD SWAP1 POP SWAP2 SWAP1 POP JUMP JUMPDEST PUSH1 0x0 PUSH1 0x20 DUP3 ADD SWAP1 POP DUP2 DUP2 SUB PUSH1 0x0 DUP4 ADD MSTORE PUSH2 0xE24 DUP2 PUSH2 0xDE8 JUMP JUMPDEST SWAP1 POP SWAP2 SWAP1 POP JUMP JUMPDEST PUSH1 0x0 PUSH2 0xE36 DUP3 PUSH2 0xA56 JUMP JUMPDEST SWAP2 POP PUSH2 0xE41 DUP4 PUSH2 0xA56 JUMP JUMPDEST SWAP3 POP DUP3 PUSH32 0xFFFFFFFFFFFFFFFFFFFFFFFFFFFFFFFFFFFFFFFFFFFFFFFFFFFFFFFFFFFFFFFF SUB DUP3 GT ISZERO PUSH2 0xE76 JUMPI PUSH2 0xE75 PUSH2 0xC97 JUMP JUMPDEST JUMPDEST DUP3 DUP3 ADD SWAP1 POP SWAP3 SWAP2 POP POP JUMP JUMPDEST PUSH1 0x0 DUP2 SLOAD SWAP1 POP SWAP2 SWAP1 POP JUMP JUMPDEST PUSH1 0x0 DUP3 DUP3 MSTORE PUSH1 0x20 DUP3 ADD SWAP1 POP SWAP3 SWAP2 POP POP JUMP JUMPDEST PUSH1 0x0 DUP2 SWAP1 POP DUP2 PUSH1 0x0 MSTORE PUSH1 0x20 PUSH1 0x0 KECCAK256 SWAP1 POP SWAP2 SWAP1 POP JUMP JUMPDEST PUSH1 0x0 PUSH2 0xEBD DUP3 PUSH2 0xB58 JUMP JUMPDEST SWAP1 POP SWAP2 SWAP1 POP JUMP JUMPDEST PUSH2 0xECD DUP2 PUSH2 0xEB2 JUMP JUMPDEST DUP3 MSTORE POP POP JUMP JUMPDEST PUSH1 0x0 PUSH2 0xEDF DUP4 DUP4 PUSH2 0xEC4 JUMP JUMPDEST PUSH1 0x20 DUP4 ADD SWAP1 POP SWAP3 SWAP2 POP POP JUMP JUMPDEST PUSH1 0x0 DUP2 PUSH1 0x0 SHR SWAP1 POP SWAP2 SWAP1 POP JUMP JUMPDEST PUSH1 0x0 PUSH20 0xFFFFFFFFFFFFFFFFFFFFFFFFFFFFFFFFFFFFFFFF DUP3 AND SWAP1 POP SWAP2 SWAP1 POP JUMP JUMPDEST PUSH1 0x0 PUSH2 0xF2B PUSH2 0xF26 DUP4 PUSH2 0xEEB JUMP JUMPDEST PUSH2 0xEF8 JUMP JUMPDEST SWAP1 POP SWAP2 SWAP1 POP JUMP JUMPDEST PUSH1 0x0 PUSH2 0xF3E DUP3 SLOAD PUSH2 0xF18 JUMP JUMPDEST SWAP1 POP SWAP2 SWAP1 POP JUMP JUMPDEST PUSH1 0x0 PUSH1 0x1 DUP3 ADD SWAP1 POP SWAP2 SWAP1 POP JUMP JUMPDEST PUSH1 0x0 PUSH2 0xF5D DUP3 PUSH2 0xE81 JUMP JUMPDEST PUSH2 0xF67 DUP2 DUP6 PUSH2 0xE8C JUMP JUMPDEST SWAP4 POP PUSH2 0xF72 DUP4 PUSH2 0xE9D JUMP JUMPDEST DUP1 PUSH1 0x0 JUMPDEST DUP4 DUP2 LT ISZERO PUSH2 0xFAA JUMPI PUSH2 0xF87 DUP3 PUSH2 0xF32 JUMP JUMPDEST PUSH2 0xF91 DUP9 DUP3 PUSH2 0xED3 JUMP JUMPDEST SWAP8 POP PUSH2 0xF9C DUP4 PUSH2 0xF45 JUMP JUMPDEST SWAP3 POP POP PUSH1 0x1 DUP2 ADD SWAP1 POP PUSH2 0xF76 JUMP JUMPDEST POP DUP6 SWAP4 POP POP POP POP SWAP3 SWAP2 POP POP JUMP JUMPDEST PUSH1 0x0 PUSH1 0x60 DUP3 ADD SWAP1 POP PUSH2 0xFCC PUSH1 0x0 DUP4 ADD DUP7 PUSH2 0xA60 JUMP JUMPDEST PUSH2 0xFD9 PUSH1 0x20 DUP4 ADD DUP6 PUSH2 0xA60 JUMP JUMPDEST DUP2 DUP2 SUB PUSH1 0x40 DUP4 ADD MSTORE PUSH2 0xFEB DUP2 DUP5 PUSH2 0xF52 JUMP JUMPDEST SWAP1 POP SWAP5 SWAP4 POP POP POP POP JUMP JUMPDEST PUSH32 0x4E6F7420686F6C64657200000000000000000000000000000000000000000000 PUSH1 0x0 DUP3 ADD MSTORE POP JUMP JUMPDEST PUSH1 0x0 PUSH2 0x102B PUSH1 0xA DUP4 PUSH2 0xBB1 JUMP JUMPDEST SWAP2 POP PUSH2 0x1036 DUP3 PUSH2 0xFF5 JUMP JUMPDEST PUSH1 0x20 DUP3 ADD SWAP1 POP SWAP2 SWAP1 POP JUMP JUMPDEST PUSH1 0x0 PUSH1 0x20 DUP3 ADD SWAP1 POP DUP2 DUP2 SUB PUSH1 0x0 DUP4 ADD MSTORE PUSH2 0x105A DUP2 PUSH2 0x101E JUMP JUMPDEST SWAP1 POP SWAP2 SWAP1 POP JUMP JUMPDEST PUSH32 0x61756374696F6E206861736E277420656E646564000000000000000000000000 PUSH1 0x0 DUP3 ADD MSTORE POP JUMP JUMPDEST PUSH1 0x0 PUSH2 0x1097 PUSH1 0x14 DUP4 PUSH2 0xBB1 JUMP JUMPDEST SWAP2 POP PUSH2 0x10A2 DUP3 PUSH2 0x1061 JUMP JUMPDEST PUSH1 0x20 DUP3 ADD SWAP1 POP SWAP2 SWAP1 POP JUMP JUMPDEST PUSH1 0x0 PUSH1 0x20 DUP3 ADD SWAP1 POP DUP2 DUP2 SUB PUSH1 0x0 DUP4 ADD MSTORE PUSH2 0x10C6 DUP2 PUSH2 0x108A JUMP JUMPDEST SWAP1 POP SWAP2 SWAP1 POP JUMP JUMPDEST PUSH32 0x4E487B7100000000000000000000000000000000000000000000000000000000 PUSH1 0x0 MSTORE PUSH1 0x32 PUSH1 0x4 MSTORE PUSH1 0x24 PUSH1 0x0 REVERT JUMPDEST PUSH1 0x0 PUSH2 0x1107 DUP3 PUSH2 0xA8F JUMP JUMPDEST SWAP1 POP SWAP2 SWAP1 POP JUMP JUMPDEST PUSH2 0x1117 DUP2 PUSH2 0x10FC JUMP JUMPDEST DUP2 EQ PUSH2 0x1122 JUMPI PUSH1 0x0 DUP1 REVERT JUMPDEST POP JUMP JUMPDEST PUSH1 0x0 DUP2 MLOAD SWAP1 POP PUSH2 0x1134 DUP2 PUSH2 0x110E JUMP JUMPDEST SWAP3 SWAP2 POP POP JUMP JUMPDEST PUSH1 0x0 PUSH1 0x20 DUP3 DUP5 SUB SLT ISZERO PUSH2 0x1150 JUMPI PUSH2 0x114F PUSH2 0xA8A JUMP JUMPDEST JUMPDEST PUSH1 0x0 PUSH2 0x115E DUP5 DUP3 DUP6 ADD PUSH2 0x1125 JUMP JUMPDEST SWAP2 POP POP SWAP3 SWAP2 POP POP JUMP JUMPDEST PUSH1 0x0 PUSH2 0x1172 DUP3 PUSH2 0xB58 JUMP JUMPDEST SWAP1 POP SWAP2 SWAP1 POP JUMP JUMPDEST PUSH2 0x1182 DUP2 PUSH2 0x1167 JUMP JUMPDEST DUP3 MSTORE POP POP JUMP JUMPDEST PUSH1 0x0 PUSH1 0x60 DUP3 ADD SWAP1 POP PUSH2 0x119D PUSH1 0x0 DUP4 ADD DUP7 PUSH2 0x1179 JUMP JUMPDEST PUSH2 0x11AA PUSH1 0x20 DUP4 ADD DUP6 PUSH2 0x1179 JUMP JUMPDEST PUSH2 0x11B7 PUSH1 0x40 DUP4 ADD DUP5 PUSH2 0xA60 JUMP JUMPDEST SWAP5 SWAP4 POP POP POP POP JUMP JUMPDEST PUSH1 0x0 PUSH2 0x11CA DUP3 PUSH2 0xA56 JUMP JUMPDEST SWAP2 POP PUSH32 0xFFFFFFFFFFFFFFFFFFFFFFFFFFFFFFFFFFFFFFFFFFFFFFFFFFFFFFFFFFFFFFFF DUP3 EQ ISZERO PUSH2 0x11FD JUMPI PUSH2 0x11FC PUSH2 0xC97 JUMP JUMPDEST JUMPDEST PUSH1 0x1 DUP3 ADD SWAP1 POP SWAP2 SWAP1 POP JUMP INVALID LOG2 PUSH5 0x6970667358 0x22 SLT KECCAK256 0xCB 0x2D CALLDATALOAD 0xC2 0xCA SWAP15 0xA5 0x2C SWAP5 0x1E 0xFC 0x4B JUMPI BASEFEE 0x49 PUSH5 0x1F868A4167 DUP16 POP CALL PUSH19 0x40014F7E37391264736F6C6343000809003300 "
		},
		"gasEstimates": {
			"creation": {
				"codeDepositCost": "934000",
				"executionCost": "infinite",
				"totalCost": "infinite"
			},
			"external": {
				"aucEnding()": "2473",
				"countWords()": "350",
				"endAuction()": "infinite",
				"forceEndAuction()": "22323",
				"latestB()": "2481",
				"latestBid()": "4001",
				"nft()": "infinite",
				"nftId()": "2518",
				"timeLeft()": "infinite",
				"updateBiddingPrice(address)": "infinite"
			}
		},
		"methodIdentifiers": {
			"aucEnding()": "e5422944",
			"countWords()": "d4d33a6f",
			"endAuction()": "fe67a54b",
			"forceEndAuction()": "fd3b5a69",
			"latestB()": "e7c03e57",
			"latestBid()": "5dd672ec",
			"nft()": "47ccca02",
			"nftId()": "c6bc5182",
			"timeLeft()": "1300a6d1",
			"updateBiddingPrice(address)": "29c61eca"
		}
	},
	"abi": [
		{
			"inputs": [
				{
					"internalType": "address",
					"name": "_nftaddress",
					"type": "address"
				},
				{
					"internalType": "uint256",
					"name": "_nftId",
					"type": "uint256"
				},
				{
					"internalType": "uint256",
					"name": "startingprice",
					"type": "uint256"
				},
				{
					"internalType": "string",
					"name": "_desc",
					"type": "string"
				}
			],
			"stateMutability": "nonpayable",
			"type": "constructor"
		},
		{
			"anonymous": false,
			"inputs": [
				{
					"indexed": false,
					"internalType": "uint256",
					"name": "price",
					"type": "uint256"
				},
				{
					"indexed": false,
					"internalType": "uint256",
					"name": "auctionEnd",
					"type": "uint256"
				},
				{
					"indexed": false,
					"internalType": "contract Sender[]",
					"name": "history",
					"type": "address[]"
				}
			],
			"name": "bidUpdated",
			"type": "event"
		},
		{
			"anonymous": false,
			"inputs": [
				{
					"indexed": false,
					"internalType": "uint256",
					"name": "price",
					"type": "uint256"
				}
			],
			"name": "latest",
			"type": "event"
		},
		{
			"inputs": [],
			"name": "aucEnding",
			"outputs": [
				{
					"internalType": "bool",
					"name": "",
					"type": "bool"
				}
			],
			"stateMutability": "view",
			"type": "function"
		},
		{
			"inputs": [],
			"name": "countWords",
			"outputs": [
				{
					"internalType": "uint256",
					"name": "",
					"type": "uint256"
				}
			],
			"stateMutability": "pure",
			"type": "function"
		},
		{
			"inputs": [],
			"name": "endAuction",
			"outputs": [],
			"stateMutability": "payable",
			"type": "function"
		},
		{
			"inputs": [],
			"name": "forceEndAuction",
			"outputs": [],
			"stateMutability": "nonpayable",
			"type": "function"
		},
		{
			"inputs": [],
			"name": "latestB",
			"outputs": [
				{
					"internalType": "uint256",
					"name": "price",
					"type": "uint256"
				}
			],
			"stateMutability": "view",
			"type": "function"
		},
		{
			"inputs": [],
			"name": "latestBid",
			"outputs": [
				{
					"internalType": "string",
					"name": "",
					"type": "string"
				}
			],
			"stateMutability": "nonpayable",
			"type": "function"
		},
		{
			"inputs": [],
			"name": "nft",
			"outputs": [
				{
					"internalType": "contract IERC721",
					"name": "",
					"type": "address"
				}
			],
			"stateMutability": "view",
			"type": "function"
		},
		{
			"inputs": [],
			"name": "nftId",
			"outputs": [
				{
					"internalType": "uint256",
					"name": "",
					"type": "uint256"
				}
			],
			"stateMutability": "view",
			"type": "function"
		},
		{
			"inputs": [],
			"name": "timeLeft",
			"outputs": [
				{
					"internalType": "uint256",
					"name": "",
					"type": "uint256"
				}
			],
			"stateMutability": "view",
			"type": "function"
		},
		{
			"inputs": [
				{
					"internalType": "contract Sender",
					"name": "sender",
					"type": "address"
				}
			],
			"name": "updateBiddingPrice",
			"outputs": [],
			"stateMutability": "payable",
			"type": "function"
		}
	]
}