{
	"data": {
		"bytecode": {
			"linkReferences": {},
			"object": "60806040523480156200001157600080fd5b506040516200158338038062001583833981810160405281019062000037919062000475565b80620000486200017a60201b60201c565b6064116200008d576040517f08c379a0000000000000000000000000000000000000000000000000000000008152600401620000849062000551565b60405180910390fd5b83600660016101000a81548173ffffffffffffffffffffffffffffffffffffffff021916908373ffffffffffffffffffffffffffffffffffffffff160217905550826007819055508160029080519060200190620000ed92919062000188565b50336000806101000a81548173ffffffffffffffffffffffffffffffffffffffff021916908373ffffffffffffffffffffffffffffffffffffffff16021790555043600381905550618ca0600354620001479190620005a2565b60048190555060006001819055506000600660006101000a81548160ff0219169083151502179055505050505062000664565b600080600090508091505090565b82805462000196906200062e565b90600052602060002090601f016020900481019282620001ba576000855562000206565b82601f10620001d557805160ff191683800117855562000206565b8280016001018555821562000206579182015b8281111562000205578251825591602001919060010190620001e8565b5b50905062000215919062000219565b5090565b5b80821115620002345760008160009055506001016200021a565b5090565b6000604051905090565b600080fd5b600080fd5b600073ffffffffffffffffffffffffffffffffffffffff82169050919050565b600062000279826200024c565b9050919050565b6200028b816200026c565b81146200029757600080fd5b50565b600081519050620002ab8162000280565b92915050565b6000819050919050565b620002c681620002b1565b8114620002d257600080fd5b50565b600081519050620002e681620002bb565b92915050565b600080fd5b600080fd5b6000601f19601f8301169050919050565b7f4e487b7100000000000000000000000000000000000000000000000000000000600052604160045260246000fd5b6200034182620002f6565b810181811067ffffffffffffffff8211171562000363576200036262000307565b5b80604052505050565b60006200037862000238565b905062000386828262000336565b919050565b600067ffffffffffffffff821115620003a957620003a862000307565b5b620003b482620002f6565b9050602081019050919050565b60005b83811015620003e1578082015181840152602081019050620003c4565b83811115620003f1576000848401525b50505050565b60006200040e62000408846200038b565b6200036c565b9050828152602081018484840111156200042d576200042c620002f1565b5b6200043a848285620003c1565b509392505050565b600082601f8301126200045a5762000459620002ec565b5b81516200046c848260208601620003f7565b91505092915050565b60008060006060848603121562000491576200049062000242565b5b6000620004a1868287016200029a565b9350506020620004b486828701620002d5565b925050604084015167ffffffffffffffff811115620004d857620004d762000247565b5b620004e68682870162000442565b9150509250925092565b600082825260208201905092915050565b7f776f72647320746f6f2068696768000000000000000000000000000000000000600082015250565b600062000539600e83620004f0565b9150620005468262000501565b602082019050919050565b600060208201905081810360008301526200056c816200052a565b9050919050565b7f4e487b7100000000000000000000000000000000000000000000000000000000600052601160045260246000fd5b6000620005af82620002b1565b9150620005bc83620002b1565b9250827fffffffffffffffffffffffffffffffffffffffffffffffffffffffffffffffff03821115620005f457620005f362000573565b5b828201905092915050565b7f4e487b7100000000000000000000000000000000000000000000000000000000600052602260045260246000fd5b600060028204905060018216806200064757607f821691505b602082108114156200065e576200065d620005ff565b5b50919050565b610f0f80620006746000396000f3fe6080604052600436106100865760003560e01c8063c6bc518211610059578063c6bc518214610116578063d4d33a6f14610141578063e54229441461016c578063fd3b5a6914610197578063fe67a54b146101ae57610086565b80631300a6d11461008b57806346297c1b146100b657806347ccca02146100c05780635dd672ec146100eb575b600080fd5b34801561009757600080fd5b506100a06101b8565b6040516100ad91906107fe565b60405180910390f35b6100be6101cd565b005b3480156100cc57600080fd5b506100d56103c0565b6040516100e29190610898565b60405180910390f35b3480156100f757600080fd5b506101006103e6565b60405161010d919061094c565b60405180910390f35b34801561012257600080fd5b5061012b6104c2565b60405161013891906107fe565b60405180910390f35b34801561014d57600080fd5b506101566104c8565b60405161016391906107fe565b60405180910390f35b34801561017857600080fd5b506101816104d6565b60405161018e9190610989565b60405180910390f35b3480156101a357600080fd5b506101ac6104e3565b005b6101b6610507565b005b6000436004546101c891906109d3565b905090565b346001548111610212576040517f08c379a000000000000000000000000000000000000000000000000000000000815260040161020990610a53565b60405180910390fd5b61021a6104d6565b1561025a576040517f08c379a000000000000000000000000000000000000000000000000000000000815260040161025190610abf565b60405180910390fd5b3373ffffffffffffffffffffffffffffffffffffffff163134106102b3576040517f08c379a00000000000000000000000000000000000000000000000000000000081526004016102aa90610b2b565b60405180910390fd5b6000600460008282546102c69190610b4b565b9250508190555034600181905550600860405180604001604052803373ffffffffffffffffffffffffffffffffffffffff16815260200134815250908060018154018082558091505060019003906000526020600020906002020160009091909190915060008201518160000160006101000a81548173ffffffffffffffffffffffffffffffffffffffff021916908373ffffffffffffffffffffffffffffffffffffffff1602179055506020820151816001015550507f43ad5caa51c726fde88b9a8754205f6f718737df0c9d5d4bd55b17e2847daef460015460015460086040516103b593929190610d36565b60405180910390a150565b600660019054906101000a900473ffffffffffffffffffffffffffffffffffffffff1681565b60607f0248d3bfddf405c2684a91805207544032ccd269d9d54219da4ac941585d609c6008600160088054905061041d91906109d3565b8154811061042e5761042d610d74565b5b906000526020600020906002020160000160009054906101000a900473ffffffffffffffffffffffffffffffffffffffff166008600160088054905061047491906109d3565b8154811061048557610484610d74565b5b9060005260206000209060020201600101546040516104a5929190610dc4565b60405180910390a160405180602001604052806000815250905090565b60075481565b600080600090508091505090565b6000436004541115905090565b436004819055506001600660006101000a81548160ff021916908315150217905550565b61050f6104d6565b61054e576040517f08c379a000000000000000000000000000000000000000000000000000000000815260040161054590610e39565b60405180910390fd5b600660009054906101000a900460ff1661070d57600660019054906101000a900473ffffffffffffffffffffffffffffffffffffffff1673ffffffffffffffffffffffffffffffffffffffff166342842e0e60008054906101000a900473ffffffffffffffffffffffffffffffffffffffff16600860016008805490506105d591906109d3565b815481106105e6576105e5610d74565b5b906000526020600020906002020160000160009054906101000a900473ffffffffffffffffffffffffffffffffffffffff166005546040518463ffffffff1660e01b815260040161063993929190610e59565b600060405180830381600087803b15801561065357600080fd5b505af1158015610667573d6000803e3d6000fd5b5050505060008054906101000a900473ffffffffffffffffffffffffffffffffffffffff1673ffffffffffffffffffffffffffffffffffffffff166108fc600860016008805490506106b991906109d3565b815481106106ca576106c9610d74565b5b9060005260206000209060020201600101549081150290604051600060405180830381858888f19350505050158015610707573d6000803e3d6000fd5b506107e3565b60005b6008805490508110156107e1576008818154811061073157610730610d74565b5b906000526020600020906002020160000160009054906101000a900473ffffffffffffffffffffffffffffffffffffffff1673ffffffffffffffffffffffffffffffffffffffff166108fc600883815481106107905761078f610d74565b5b9060005260206000209060020201600101549081150290604051600060405180830381858888f193505050501580156107cd573d6000803e3d6000fd5b5080806107d990610e90565b915050610710565b505b565b6000819050919050565b6107f8816107e5565b82525050565b600060208201905061081360008301846107ef565b92915050565b600073ffffffffffffffffffffffffffffffffffffffff82169050919050565b6000819050919050565b600061085e61085961085484610819565b610839565b610819565b9050919050565b600061087082610843565b9050919050565b600061088282610865565b9050919050565b61089281610877565b82525050565b60006020820190506108ad6000830184610889565b92915050565b600081519050919050565b600082825260208201905092915050565b60005b838110156108ed5780820151818401526020810190506108d2565b838111156108fc576000848401525b50505050565b6000601f19601f8301169050919050565b600061091e826108b3565b61092881856108be565b93506109388185602086016108cf565b61094181610902565b840191505092915050565b600060208201905081810360008301526109668184610913565b905092915050565b60008115159050919050565b6109838161096e565b82525050565b600060208201905061099e600083018461097a565b92915050565b7f4e487b7100000000000000000000000000000000000000000000000000000000600052601160045260246000fd5b60006109de826107e5565b91506109e9836107e5565b9250828210156109fc576109fb6109a4565b5b828203905092915050565b7f62696420746f6f206c6f77000000000000000000000000000000000000000000600082015250565b6000610a3d600b836108be565b9150610a4882610a07565b602082019050919050565b60006020820190508181036000830152610a6c81610a30565b9050919050565b7f61756374696f6e20697320616c7265616479206f766572000000000000000000600082015250565b6000610aa96017836108be565b9150610ab482610a73565b602082019050919050565b60006020820190508181036000830152610ad881610a9c565b9050919050565b7f62616c616e636520746f6f206c6f772075722062726f6b65206c6f6c00000000600082015250565b6000610b15601c836108be565b9150610b2082610adf565b602082019050919050565b60006020820190508181036000830152610b4481610b08565b9050919050565b6000610b56826107e5565b9150610b61836107e5565b9250827fffffffffffffffffffffffffffffffffffffffffffffffffffffffffffffffff03821115610b9657610b956109a4565b5b828201905092915050565b600081549050919050565b600082825260208201905092915050565b60008190508160005260206000209050919050565b60008160001c9050919050565b600073ffffffffffffffffffffffffffffffffffffffff82169050919050565b6000610c12610c0d83610bd2565b610bdf565b9050919050565b6000610c2482610819565b9050919050565b610c3481610c19565b82525050565b6000819050919050565b6000610c57610c5283610bd2565b610c3a565b9050919050565b610c67816107e5565b82525050565b604082016000808301549050610c8281610bff565b610c8f6000860182610c2b565b5060018301549050610ca081610c44565b610cad6020860182610c5e565b5050505050565b6000610cc08383610c6d565b60408301905092915050565b6000600282019050919050565b6000610ce482610ba1565b610cee8185610bac565b9350610cf983610bbd565b8060005b83811015610d295781610d108882610cb4565b9750610d1b83610ccc565b925050600181019050610cfd565b5085935050505092915050565b6000606082019050610d4b60008301866107ef565b610d5860208301856107ef565b8181036040830152610d6a8184610cd9565b9050949350505050565b7f4e487b7100000000000000000000000000000000000000000000000000000000600052603260045260246000fd5b6000610dae82610865565b9050919050565b610dbe81610da3565b82525050565b6000604082019050610dd96000830185610db5565b610de660208301846107ef565b9392505050565b7f61756374696f6e206861736e277420656e646564000000000000000000000000600082015250565b6000610e236014836108be565b9150610e2e82610ded565b602082019050919050565b60006020820190508181036000830152610e5281610e16565b9050919050565b6000606082019050610e6e6000830186610db5565b610e7b6020830185610db5565b610e8860408301846107ef565b949350505050565b6000610e9b826107e5565b91507fffffffffffffffffffffffffffffffffffffffffffffffffffffffffffffffff821415610ece57610ecd6109a4565b5b60018201905091905056fea264697066735822122070dc44b4055f4f835669c7f99e69c3232e730a296ea8b9eb664a4d1aa0a63c5264736f6c63430008090033",
			"opcodes": "PUSH1 0x80 PUSH1 0x40 MSTORE CALLVALUE DUP1 ISZERO PUSH3 0x11 JUMPI PUSH1 0x0 DUP1 REVERT JUMPDEST POP PUSH1 0x40 MLOAD PUSH3 0x1583 CODESIZE SUB DUP1 PUSH3 0x1583 DUP4 CODECOPY DUP2 DUP2 ADD PUSH1 0x40 MSTORE DUP2 ADD SWAP1 PUSH3 0x37 SWAP2 SWAP1 PUSH3 0x475 JUMP JUMPDEST DUP1 PUSH3 0x48 PUSH3 0x17A PUSH1 0x20 SHL PUSH1 0x20 SHR JUMP JUMPDEST PUSH1 0x64 GT PUSH3 0x8D JUMPI PUSH1 0x40 MLOAD PUSH32 0x8C379A000000000000000000000000000000000000000000000000000000000 DUP2 MSTORE PUSH1 0x4 ADD PUSH3 0x84 SWAP1 PUSH3 0x551 JUMP JUMPDEST PUSH1 0x40 MLOAD DUP1 SWAP2 SUB SWAP1 REVERT JUMPDEST DUP4 PUSH1 0x6 PUSH1 0x1 PUSH2 0x100 EXP DUP2 SLOAD DUP2 PUSH20 0xFFFFFFFFFFFFFFFFFFFFFFFFFFFFFFFFFFFFFFFF MUL NOT AND SWAP1 DUP4 PUSH20 0xFFFFFFFFFFFFFFFFFFFFFFFFFFFFFFFFFFFFFFFF AND MUL OR SWAP1 SSTORE POP DUP3 PUSH1 0x7 DUP2 SWAP1 SSTORE POP DUP2 PUSH1 0x2 SWAP1 DUP1 MLOAD SWAP1 PUSH1 0x20 ADD SWAP1 PUSH3 0xED SWAP3 SWAP2 SWAP1 PUSH3 0x188 JUMP JUMPDEST POP CALLER PUSH1 0x0 DUP1 PUSH2 0x100 EXP DUP2 SLOAD DUP2 PUSH20 0xFFFFFFFFFFFFFFFFFFFFFFFFFFFFFFFFFFFFFFFF MUL NOT AND SWAP1 DUP4 PUSH20 0xFFFFFFFFFFFFFFFFFFFFFFFFFFFFFFFFFFFFFFFF AND MUL OR SWAP1 SSTORE POP NUMBER PUSH1 0x3 DUP2 SWAP1 SSTORE POP PUSH2 0x8CA0 PUSH1 0x3 SLOAD PUSH3 0x147 SWAP2 SWAP1 PUSH3 0x5A2 JUMP JUMPDEST PUSH1 0x4 DUP2 SWAP1 SSTORE POP PUSH1 0x0 PUSH1 0x1 DUP2 SWAP1 SSTORE POP PUSH1 0x0 PUSH1 0x6 PUSH1 0x0 PUSH2 0x100 EXP DUP2 SLOAD DUP2 PUSH1 0xFF MUL NOT AND SWAP1 DUP4 ISZERO ISZERO MUL OR SWAP1 SSTORE POP POP POP POP POP PUSH3 0x664 JUMP JUMPDEST PUSH1 0x0 DUP1 PUSH1 0x0 SWAP1 POP DUP1 SWAP2 POP POP SWAP1 JUMP JUMPDEST DUP3 DUP1 SLOAD PUSH3 0x196 SWAP1 PUSH3 0x62E JUMP JUMPDEST SWAP1 PUSH1 0x0 MSTORE PUSH1 0x20 PUSH1 0x0 KECCAK256 SWAP1 PUSH1 0x1F ADD PUSH1 0x20 SWAP1 DIV DUP2 ADD SWAP3 DUP3 PUSH3 0x1BA JUMPI PUSH1 0x0 DUP6 SSTORE PUSH3 0x206 JUMP JUMPDEST DUP3 PUSH1 0x1F LT PUSH3 0x1D5 JUMPI DUP1 MLOAD PUSH1 0xFF NOT AND DUP4 DUP1 ADD OR DUP6 SSTORE PUSH3 0x206 JUMP JUMPDEST DUP3 DUP1 ADD PUSH1 0x1 ADD DUP6 SSTORE DUP3 ISZERO PUSH3 0x206 JUMPI SWAP2 DUP3 ADD JUMPDEST DUP3 DUP2 GT ISZERO PUSH3 0x205 JUMPI DUP3 MLOAD DUP3 SSTORE SWAP2 PUSH1 0x20 ADD SWAP2 SWAP1 PUSH1 0x1 ADD SWAP1 PUSH3 0x1E8 JUMP JUMPDEST JUMPDEST POP SWAP1 POP PUSH3 0x215 SWAP2 SWAP1 PUSH3 0x219 JUMP JUMPDEST POP SWAP1 JUMP JUMPDEST JUMPDEST DUP1 DUP3 GT ISZERO PUSH3 0x234 JUMPI PUSH1 0x0 DUP2 PUSH1 0x0 SWAP1 SSTORE POP PUSH1 0x1 ADD PUSH3 0x21A JUMP JUMPDEST POP SWAP1 JUMP JUMPDEST PUSH1 0x0 PUSH1 0x40 MLOAD SWAP1 POP SWAP1 JUMP JUMPDEST PUSH1 0x0 DUP1 REVERT JUMPDEST PUSH1 0x0 DUP1 REVERT JUMPDEST PUSH1 0x0 PUSH20 0xFFFFFFFFFFFFFFFFFFFFFFFFFFFFFFFFFFFFFFFF DUP3 AND SWAP1 POP SWAP2 SWAP1 POP JUMP JUMPDEST PUSH1 0x0 PUSH3 0x279 DUP3 PUSH3 0x24C JUMP JUMPDEST SWAP1 POP SWAP2 SWAP1 POP JUMP JUMPDEST PUSH3 0x28B DUP2 PUSH3 0x26C JUMP JUMPDEST DUP2 EQ PUSH3 0x297 JUMPI PUSH1 0x0 DUP1 REVERT JUMPDEST POP JUMP JUMPDEST PUSH1 0x0 DUP2 MLOAD SWAP1 POP PUSH3 0x2AB DUP2 PUSH3 0x280 JUMP JUMPDEST SWAP3 SWAP2 POP POP JUMP JUMPDEST PUSH1 0x0 DUP2 SWAP1 POP SWAP2 SWAP1 POP JUMP JUMPDEST PUSH3 0x2C6 DUP2 PUSH3 0x2B1 JUMP JUMPDEST DUP2 EQ PUSH3 0x2D2 JUMPI PUSH1 0x0 DUP1 REVERT JUMPDEST POP JUMP JUMPDEST PUSH1 0x0 DUP2 MLOAD SWAP1 POP PUSH3 0x2E6 DUP2 PUSH3 0x2BB JUMP JUMPDEST SWAP3 SWAP2 POP POP JUMP JUMPDEST PUSH1 0x0 DUP1 REVERT JUMPDEST PUSH1 0x0 DUP1 REVERT JUMPDEST PUSH1 0x0 PUSH1 0x1F NOT PUSH1 0x1F DUP4 ADD AND SWAP1 POP SWAP2 SWAP1 POP JUMP JUMPDEST PUSH32 0x4E487B7100000000000000000000000000000000000000000000000000000000 PUSH1 0x0 MSTORE PUSH1 0x41 PUSH1 0x4 MSTORE PUSH1 0x24 PUSH1 0x0 REVERT JUMPDEST PUSH3 0x341 DUP3 PUSH3 0x2F6 JUMP JUMPDEST DUP2 ADD DUP2 DUP2 LT PUSH8 0xFFFFFFFFFFFFFFFF DUP3 GT OR ISZERO PUSH3 0x363 JUMPI PUSH3 0x362 PUSH3 0x307 JUMP JUMPDEST JUMPDEST DUP1 PUSH1 0x40 MSTORE POP POP POP JUMP JUMPDEST PUSH1 0x0 PUSH3 0x378 PUSH3 0x238 JUMP JUMPDEST SWAP1 POP PUSH3 0x386 DUP3 DUP3 PUSH3 0x336 JUMP JUMPDEST SWAP2 SWAP1 POP JUMP JUMPDEST PUSH1 0x0 PUSH8 0xFFFFFFFFFFFFFFFF DUP3 GT ISZERO PUSH3 0x3A9 JUMPI PUSH3 0x3A8 PUSH3 0x307 JUMP JUMPDEST JUMPDEST PUSH3 0x3B4 DUP3 PUSH3 0x2F6 JUMP JUMPDEST SWAP1 POP PUSH1 0x20 DUP2 ADD SWAP1 POP SWAP2 SWAP1 POP JUMP JUMPDEST PUSH1 0x0 JUMPDEST DUP4 DUP2 LT ISZERO PUSH3 0x3E1 JUMPI DUP1 DUP3 ADD MLOAD DUP2 DUP5 ADD MSTORE PUSH1 0x20 DUP2 ADD SWAP1 POP PUSH3 0x3C4 JUMP JUMPDEST DUP4 DUP2 GT ISZERO PUSH3 0x3F1 JUMPI PUSH1 0x0 DUP5 DUP5 ADD MSTORE JUMPDEST POP POP POP POP JUMP JUMPDEST PUSH1 0x0 PUSH3 0x40E PUSH3 0x408 DUP5 PUSH3 0x38B JUMP JUMPDEST PUSH3 0x36C JUMP JUMPDEST SWAP1 POP DUP3 DUP2 MSTORE PUSH1 0x20 DUP2 ADD DUP5 DUP5 DUP5 ADD GT ISZERO PUSH3 0x42D JUMPI PUSH3 0x42C PUSH3 0x2F1 JUMP JUMPDEST JUMPDEST PUSH3 0x43A DUP5 DUP3 DUP6 PUSH3 0x3C1 JUMP JUMPDEST POP SWAP4 SWAP3 POP POP POP JUMP JUMPDEST PUSH1 0x0 DUP3 PUSH1 0x1F DUP4 ADD SLT PUSH3 0x45A JUMPI PUSH3 0x459 PUSH3 0x2EC JUMP JUMPDEST JUMPDEST DUP2 MLOAD PUSH3 0x46C DUP5 DUP3 PUSH1 0x20 DUP7 ADD PUSH3 0x3F7 JUMP JUMPDEST SWAP2 POP POP SWAP3 SWAP2 POP POP JUMP JUMPDEST PUSH1 0x0 DUP1 PUSH1 0x0 PUSH1 0x60 DUP5 DUP7 SUB SLT ISZERO PUSH3 0x491 JUMPI PUSH3 0x490 PUSH3 0x242 JUMP JUMPDEST JUMPDEST PUSH1 0x0 PUSH3 0x4A1 DUP7 DUP3 DUP8 ADD PUSH3 0x29A JUMP JUMPDEST SWAP4 POP POP PUSH1 0x20 PUSH3 0x4B4 DUP7 DUP3 DUP8 ADD PUSH3 0x2D5 JUMP JUMPDEST SWAP3 POP POP PUSH1 0x40 DUP5 ADD MLOAD PUSH8 0xFFFFFFFFFFFFFFFF DUP2 GT ISZERO PUSH3 0x4D8 JUMPI PUSH3 0x4D7 PUSH3 0x247 JUMP JUMPDEST JUMPDEST PUSH3 0x4E6 DUP7 DUP3 DUP8 ADD PUSH3 0x442 JUMP JUMPDEST SWAP2 POP POP SWAP3 POP SWAP3 POP SWAP3 JUMP JUMPDEST PUSH1 0x0 DUP3 DUP3 MSTORE PUSH1 0x20 DUP3 ADD SWAP1 POP SWAP3 SWAP2 POP POP JUMP JUMPDEST PUSH32 0x776F72647320746F6F2068696768000000000000000000000000000000000000 PUSH1 0x0 DUP3 ADD MSTORE POP JUMP JUMPDEST PUSH1 0x0 PUSH3 0x539 PUSH1 0xE DUP4 PUSH3 0x4F0 JUMP JUMPDEST SWAP2 POP PUSH3 0x546 DUP3 PUSH3 0x501 JUMP JUMPDEST PUSH1 0x20 DUP3 ADD SWAP1 POP SWAP2 SWAP1 POP JUMP JUMPDEST PUSH1 0x0 PUSH1 0x20 DUP3 ADD SWAP1 POP DUP2 DUP2 SUB PUSH1 0x0 DUP4 ADD MSTORE PUSH3 0x56C DUP2 PUSH3 0x52A JUMP JUMPDEST SWAP1 POP SWAP2 SWAP1 POP JUMP JUMPDEST PUSH32 0x4E487B7100000000000000000000000000000000000000000000000000000000 PUSH1 0x0 MSTORE PUSH1 0x11 PUSH1 0x4 MSTORE PUSH1 0x24 PUSH1 0x0 REVERT JUMPDEST PUSH1 0x0 PUSH3 0x5AF DUP3 PUSH3 0x2B1 JUMP JUMPDEST SWAP2 POP PUSH3 0x5BC DUP4 PUSH3 0x2B1 JUMP JUMPDEST SWAP3 POP DUP3 PUSH32 0xFFFFFFFFFFFFFFFFFFFFFFFFFFFFFFFFFFFFFFFFFFFFFFFFFFFFFFFFFFFFFFFF SUB DUP3 GT ISZERO PUSH3 0x5F4 JUMPI PUSH3 0x5F3 PUSH3 0x573 JUMP JUMPDEST JUMPDEST DUP3 DUP3 ADD SWAP1 POP SWAP3 SWAP2 POP POP JUMP JUMPDEST PUSH32 0x4E487B7100000000000000000000000000000000000000000000000000000000 PUSH1 0x0 MSTORE PUSH1 0x22 PUSH1 0x4 MSTORE PUSH1 0x24 PUSH1 0x0 REVERT JUMPDEST PUSH1 0x0 PUSH1 0x2 DUP3 DIV SWAP1 POP PUSH1 0x1 DUP3 AND DUP1 PUSH3 0x647 JUMPI PUSH1 0x7F DUP3 AND SWAP2 POP JUMPDEST PUSH1 0x20 DUP3 LT DUP2 EQ ISZERO PUSH3 0x65E JUMPI PUSH3 0x65D PUSH3 0x5FF JUMP JUMPDEST JUMPDEST POP SWAP2 SWAP1 POP JUMP JUMPDEST PUSH2 0xF0F DUP1 PUSH3 0x674 PUSH1 0x0 CODECOPY PUSH1 0x0 RETURN INVALID PUSH1 0x80 PUSH1 0x40 MSTORE PUSH1 0x4 CALLDATASIZE LT PUSH2 0x86 JUMPI PUSH1 0x0 CALLDATALOAD PUSH1 0xE0 SHR DUP1 PUSH4 0xC6BC5182 GT PUSH2 0x59 JUMPI DUP1 PUSH4 0xC6BC5182 EQ PUSH2 0x116 JUMPI DUP1 PUSH4 0xD4D33A6F EQ PUSH2 0x141 JUMPI DUP1 PUSH4 0xE5422944 EQ PUSH2 0x16C JUMPI DUP1 PUSH4 0xFD3B5A69 EQ PUSH2 0x197 JUMPI DUP1 PUSH4 0xFE67A54B EQ PUSH2 0x1AE JUMPI PUSH2 0x86 JUMP JUMPDEST DUP1 PUSH4 0x1300A6D1 EQ PUSH2 0x8B JUMPI DUP1 PUSH4 0x46297C1B EQ PUSH2 0xB6 JUMPI DUP1 PUSH4 0x47CCCA02 EQ PUSH2 0xC0 JUMPI DUP1 PUSH4 0x5DD672EC EQ PUSH2 0xEB JUMPI JUMPDEST PUSH1 0x0 DUP1 REVERT JUMPDEST CALLVALUE DUP1 ISZERO PUSH2 0x97 JUMPI PUSH1 0x0 DUP1 REVERT JUMPDEST POP PUSH2 0xA0 PUSH2 0x1B8 JUMP JUMPDEST PUSH1 0x40 MLOAD PUSH2 0xAD SWAP2 SWAP1 PUSH2 0x7FE JUMP JUMPDEST PUSH1 0x40 MLOAD DUP1 SWAP2 SUB SWAP1 RETURN JUMPDEST PUSH2 0xBE PUSH2 0x1CD JUMP JUMPDEST STOP JUMPDEST CALLVALUE DUP1 ISZERO PUSH2 0xCC JUMPI PUSH1 0x0 DUP1 REVERT JUMPDEST POP PUSH2 0xD5 PUSH2 0x3C0 JUMP JUMPDEST PUSH1 0x40 MLOAD PUSH2 0xE2 SWAP2 SWAP1 PUSH2 0x898 JUMP JUMPDEST PUSH1 0x40 MLOAD DUP1 SWAP2 SUB SWAP1 RETURN JUMPDEST CALLVALUE DUP1 ISZERO PUSH2 0xF7 JUMPI PUSH1 0x0 DUP1 REVERT JUMPDEST POP PUSH2 0x100 PUSH2 0x3E6 JUMP JUMPDEST PUSH1 0x40 MLOAD PUSH2 0x10D SWAP2 SWAP1 PUSH2 0x94C JUMP JUMPDEST PUSH1 0x40 MLOAD DUP1 SWAP2 SUB SWAP1 RETURN JUMPDEST CALLVALUE DUP1 ISZERO PUSH2 0x122 JUMPI PUSH1 0x0 DUP1 REVERT JUMPDEST POP PUSH2 0x12B PUSH2 0x4C2 JUMP JUMPDEST PUSH1 0x40 MLOAD PUSH2 0x138 SWAP2 SWAP1 PUSH2 0x7FE JUMP JUMPDEST PUSH1 0x40 MLOAD DUP1 SWAP2 SUB SWAP1 RETURN JUMPDEST CALLVALUE DUP1 ISZERO PUSH2 0x14D JUMPI PUSH1 0x0 DUP1 REVERT JUMPDEST POP PUSH2 0x156 PUSH2 0x4C8 JUMP JUMPDEST PUSH1 0x40 MLOAD PUSH2 0x163 SWAP2 SWAP1 PUSH2 0x7FE JUMP JUMPDEST PUSH1 0x40 MLOAD DUP1 SWAP2 SUB SWAP1 RETURN JUMPDEST CALLVALUE DUP1 ISZERO PUSH2 0x178 JUMPI PUSH1 0x0 DUP1 REVERT JUMPDEST POP PUSH2 0x181 PUSH2 0x4D6 JUMP JUMPDEST PUSH1 0x40 MLOAD PUSH2 0x18E SWAP2 SWAP1 PUSH2 0x989 JUMP JUMPDEST PUSH1 0x40 MLOAD DUP1 SWAP2 SUB SWAP1 RETURN JUMPDEST CALLVALUE DUP1 ISZERO PUSH2 0x1A3 JUMPI PUSH1 0x0 DUP1 REVERT JUMPDEST POP PUSH2 0x1AC PUSH2 0x4E3 JUMP JUMPDEST STOP JUMPDEST PUSH2 0x1B6 PUSH2 0x507 JUMP JUMPDEST STOP JUMPDEST PUSH1 0x0 NUMBER PUSH1 0x4 SLOAD PUSH2 0x1C8 SWAP2 SWAP1 PUSH2 0x9D3 JUMP JUMPDEST SWAP1 POP SWAP1 JUMP JUMPDEST CALLVALUE PUSH1 0x1 SLOAD DUP2 GT PUSH2 0x212 JUMPI PUSH1 0x40 MLOAD PUSH32 0x8C379A000000000000000000000000000000000000000000000000000000000 DUP2 MSTORE PUSH1 0x4 ADD PUSH2 0x209 SWAP1 PUSH2 0xA53 JUMP JUMPDEST PUSH1 0x40 MLOAD DUP1 SWAP2 SUB SWAP1 REVERT JUMPDEST PUSH2 0x21A PUSH2 0x4D6 JUMP JUMPDEST ISZERO PUSH2 0x25A JUMPI PUSH1 0x40 MLOAD PUSH32 0x8C379A000000000000000000000000000000000000000000000000000000000 DUP2 MSTORE PUSH1 0x4 ADD PUSH2 0x251 SWAP1 PUSH2 0xABF JUMP JUMPDEST PUSH1 0x40 MLOAD DUP1 SWAP2 SUB SWAP1 REVERT JUMPDEST CALLER PUSH20 0xFFFFFFFFFFFFFFFFFFFFFFFFFFFFFFFFFFFFFFFF AND BALANCE CALLVALUE LT PUSH2 0x2B3 JUMPI PUSH1 0x40 MLOAD PUSH32 0x8C379A000000000000000000000000000000000000000000000000000000000 DUP2 MSTORE PUSH1 0x4 ADD PUSH2 0x2AA SWAP1 PUSH2 0xB2B JUMP JUMPDEST PUSH1 0x40 MLOAD DUP1 SWAP2 SUB SWAP1 REVERT JUMPDEST PUSH1 0x0 PUSH1 0x4 PUSH1 0x0 DUP3 DUP3 SLOAD PUSH2 0x2C6 SWAP2 SWAP1 PUSH2 0xB4B JUMP JUMPDEST SWAP3 POP POP DUP2 SWAP1 SSTORE POP CALLVALUE PUSH1 0x1 DUP2 SWAP1 SSTORE POP PUSH1 0x8 PUSH1 0x40 MLOAD DUP1 PUSH1 0x40 ADD PUSH1 0x40 MSTORE DUP1 CALLER PUSH20 0xFFFFFFFFFFFFFFFFFFFFFFFFFFFFFFFFFFFFFFFF AND DUP2 MSTORE PUSH1 0x20 ADD CALLVALUE DUP2 MSTORE POP SWAP1 DUP1 PUSH1 0x1 DUP2 SLOAD ADD DUP1 DUP3 SSTORE DUP1 SWAP2 POP POP PUSH1 0x1 SWAP1 SUB SWAP1 PUSH1 0x0 MSTORE PUSH1 0x20 PUSH1 0x0 KECCAK256 SWAP1 PUSH1 0x2 MUL ADD PUSH1 0x0 SWAP1 SWAP2 SWAP1 SWAP2 SWAP1 SWAP2 POP PUSH1 0x0 DUP3 ADD MLOAD DUP2 PUSH1 0x0 ADD PUSH1 0x0 PUSH2 0x100 EXP DUP2 SLOAD DUP2 PUSH20 0xFFFFFFFFFFFFFFFFFFFFFFFFFFFFFFFFFFFFFFFF MUL NOT AND SWAP1 DUP4 PUSH20 0xFFFFFFFFFFFFFFFFFFFFFFFFFFFFFFFFFFFFFFFF AND MUL OR SWAP1 SSTORE POP PUSH1 0x20 DUP3 ADD MLOAD DUP2 PUSH1 0x1 ADD SSTORE POP POP PUSH32 0x43AD5CAA51C726FDE88B9A8754205F6F718737DF0C9D5D4BD55B17E2847DAEF4 PUSH1 0x1 SLOAD PUSH1 0x1 SLOAD PUSH1 0x8 PUSH1 0x40 MLOAD PUSH2 0x3B5 SWAP4 SWAP3 SWAP2 SWAP1 PUSH2 0xD36 JUMP JUMPDEST PUSH1 0x40 MLOAD DUP1 SWAP2 SUB SWAP1 LOG1 POP JUMP JUMPDEST PUSH1 0x6 PUSH1 0x1 SWAP1 SLOAD SWAP1 PUSH2 0x100 EXP SWAP1 DIV PUSH20 0xFFFFFFFFFFFFFFFFFFFFFFFFFFFFFFFFFFFFFFFF AND DUP2 JUMP JUMPDEST PUSH1 0x60 PUSH32 0x248D3BFDDF405C2684A91805207544032CCD269D9D54219DA4AC941585D609C PUSH1 0x8 PUSH1 0x1 PUSH1 0x8 DUP1 SLOAD SWAP1 POP PUSH2 0x41D SWAP2 SWAP1 PUSH2 0x9D3 JUMP JUMPDEST DUP2 SLOAD DUP2 LT PUSH2 0x42E JUMPI PUSH2 0x42D PUSH2 0xD74 JUMP JUMPDEST JUMPDEST SWAP1 PUSH1 0x0 MSTORE PUSH1 0x20 PUSH1 0x0 KECCAK256 SWAP1 PUSH1 0x2 MUL ADD PUSH1 0x0 ADD PUSH1 0x0 SWAP1 SLOAD SWAP1 PUSH2 0x100 EXP SWAP1 DIV PUSH20 0xFFFFFFFFFFFFFFFFFFFFFFFFFFFFFFFFFFFFFFFF AND PUSH1 0x8 PUSH1 0x1 PUSH1 0x8 DUP1 SLOAD SWAP1 POP PUSH2 0x474 SWAP2 SWAP1 PUSH2 0x9D3 JUMP JUMPDEST DUP2 SLOAD DUP2 LT PUSH2 0x485 JUMPI PUSH2 0x484 PUSH2 0xD74 JUMP JUMPDEST JUMPDEST SWAP1 PUSH1 0x0 MSTORE PUSH1 0x20 PUSH1 0x0 KECCAK256 SWAP1 PUSH1 0x2 MUL ADD PUSH1 0x1 ADD SLOAD PUSH1 0x40 MLOAD PUSH2 0x4A5 SWAP3 SWAP2 SWAP1 PUSH2 0xDC4 JUMP JUMPDEST PUSH1 0x40 MLOAD DUP1 SWAP2 SUB SWAP1 LOG1 PUSH1 0x40 MLOAD DUP1 PUSH1 0x20 ADD PUSH1 0x40 MSTORE DUP1 PUSH1 0x0 DUP2 MSTORE POP SWAP1 POP SWAP1 JUMP JUMPDEST PUSH1 0x7 SLOAD DUP2 JUMP JUMPDEST PUSH1 0x0 DUP1 PUSH1 0x0 SWAP1 POP DUP1 SWAP2 POP POP SWAP1 JUMP JUMPDEST PUSH1 0x0 NUMBER PUSH1 0x4 SLOAD GT ISZERO SWAP1 POP SWAP1 JUMP JUMPDEST NUMBER PUSH1 0x4 DUP2 SWAP1 SSTORE POP PUSH1 0x1 PUSH1 0x6 PUSH1 0x0 PUSH2 0x100 EXP DUP2 SLOAD DUP2 PUSH1 0xFF MUL NOT AND SWAP1 DUP4 ISZERO ISZERO MUL OR SWAP1 SSTORE POP JUMP JUMPDEST PUSH2 0x50F PUSH2 0x4D6 JUMP JUMPDEST PUSH2 0x54E JUMPI PUSH1 0x40 MLOAD PUSH32 0x8C379A000000000000000000000000000000000000000000000000000000000 DUP2 MSTORE PUSH1 0x4 ADD PUSH2 0x545 SWAP1 PUSH2 0xE39 JUMP JUMPDEST PUSH1 0x40 MLOAD DUP1 SWAP2 SUB SWAP1 REVERT JUMPDEST PUSH1 0x6 PUSH1 0x0 SWAP1 SLOAD SWAP1 PUSH2 0x100 EXP SWAP1 DIV PUSH1 0xFF AND PUSH2 0x70D JUMPI PUSH1 0x6 PUSH1 0x1 SWAP1 SLOAD SWAP1 PUSH2 0x100 EXP SWAP1 DIV PUSH20 0xFFFFFFFFFFFFFFFFFFFFFFFFFFFFFFFFFFFFFFFF AND PUSH20 0xFFFFFFFFFFFFFFFFFFFFFFFFFFFFFFFFFFFFFFFF AND PUSH4 0x42842E0E PUSH1 0x0 DUP1 SLOAD SWAP1 PUSH2 0x100 EXP SWAP1 DIV PUSH20 0xFFFFFFFFFFFFFFFFFFFFFFFFFFFFFFFFFFFFFFFF AND PUSH1 0x8 PUSH1 0x1 PUSH1 0x8 DUP1 SLOAD SWAP1 POP PUSH2 0x5D5 SWAP2 SWAP1 PUSH2 0x9D3 JUMP JUMPDEST DUP2 SLOAD DUP2 LT PUSH2 0x5E6 JUMPI PUSH2 0x5E5 PUSH2 0xD74 JUMP JUMPDEST JUMPDEST SWAP1 PUSH1 0x0 MSTORE PUSH1 0x20 PUSH1 0x0 KECCAK256 SWAP1 PUSH1 0x2 MUL ADD PUSH1 0x0 ADD PUSH1 0x0 SWAP1 SLOAD SWAP1 PUSH2 0x100 EXP SWAP1 DIV PUSH20 0xFFFFFFFFFFFFFFFFFFFFFFFFFFFFFFFFFFFFFFFF AND PUSH1 0x5 SLOAD PUSH1 0x40 MLOAD DUP5 PUSH4 0xFFFFFFFF AND PUSH1 0xE0 SHL DUP2 MSTORE PUSH1 0x4 ADD PUSH2 0x639 SWAP4 SWAP3 SWAP2 SWAP1 PUSH2 0xE59 JUMP JUMPDEST PUSH1 0x0 PUSH1 0x40 MLOAD DUP1 DUP4 SUB DUP2 PUSH1 0x0 DUP8 DUP1 EXTCODESIZE ISZERO DUP1 ISZERO PUSH2 0x653 JUMPI PUSH1 0x0 DUP1 REVERT JUMPDEST POP GAS CALL ISZERO DUP1 ISZERO PUSH2 0x667 JUMPI RETURNDATASIZE PUSH1 0x0 DUP1 RETURNDATACOPY RETURNDATASIZE PUSH1 0x0 REVERT JUMPDEST POP POP POP POP PUSH1 0x0 DUP1 SLOAD SWAP1 PUSH2 0x100 EXP SWAP1 DIV PUSH20 0xFFFFFFFFFFFFFFFFFFFFFFFFFFFFFFFFFFFFFFFF AND PUSH20 0xFFFFFFFFFFFFFFFFFFFFFFFFFFFFFFFFFFFFFFFF AND PUSH2 0x8FC PUSH1 0x8 PUSH1 0x1 PUSH1 0x8 DUP1 SLOAD SWAP1 POP PUSH2 0x6B9 SWAP2 SWAP1 PUSH2 0x9D3 JUMP JUMPDEST DUP2 SLOAD DUP2 LT PUSH2 0x6CA JUMPI PUSH2 0x6C9 PUSH2 0xD74 JUMP JUMPDEST JUMPDEST SWAP1 PUSH1 0x0 MSTORE PUSH1 0x20 PUSH1 0x0 KECCAK256 SWAP1 PUSH1 0x2 MUL ADD PUSH1 0x1 ADD SLOAD SWAP1 DUP2 ISZERO MUL SWAP1 PUSH1 0x40 MLOAD PUSH1 0x0 PUSH1 0x40 MLOAD DUP1 DUP4 SUB DUP2 DUP6 DUP9 DUP9 CALL SWAP4 POP POP POP POP ISZERO DUP1 ISZERO PUSH2 0x707 JUMPI RETURNDATASIZE PUSH1 0x0 DUP1 RETURNDATACOPY RETURNDATASIZE PUSH1 0x0 REVERT JUMPDEST POP PUSH2 0x7E3 JUMP JUMPDEST PUSH1 0x0 JUMPDEST PUSH1 0x8 DUP1 SLOAD SWAP1 POP DUP2 LT ISZERO PUSH2 0x7E1 JUMPI PUSH1 0x8 DUP2 DUP2 SLOAD DUP2 LT PUSH2 0x731 JUMPI PUSH2 0x730 PUSH2 0xD74 JUMP JUMPDEST JUMPDEST SWAP1 PUSH1 0x0 MSTORE PUSH1 0x20 PUSH1 0x0 KECCAK256 SWAP1 PUSH1 0x2 MUL ADD PUSH1 0x0 ADD PUSH1 0x0 SWAP1 SLOAD SWAP1 PUSH2 0x100 EXP SWAP1 DIV PUSH20 0xFFFFFFFFFFFFFFFFFFFFFFFFFFFFFFFFFFFFFFFF AND PUSH20 0xFFFFFFFFFFFFFFFFFFFFFFFFFFFFFFFFFFFFFFFF AND PUSH2 0x8FC PUSH1 0x8 DUP4 DUP2 SLOAD DUP2 LT PUSH2 0x790 JUMPI PUSH2 0x78F PUSH2 0xD74 JUMP JUMPDEST JUMPDEST SWAP1 PUSH1 0x0 MSTORE PUSH1 0x20 PUSH1 0x0 KECCAK256 SWAP1 PUSH1 0x2 MUL ADD PUSH1 0x1 ADD SLOAD SWAP1 DUP2 ISZERO MUL SWAP1 PUSH1 0x40 MLOAD PUSH1 0x0 PUSH1 0x40 MLOAD DUP1 DUP4 SUB DUP2 DUP6 DUP9 DUP9 CALL SWAP4 POP POP POP POP ISZERO DUP1 ISZERO PUSH2 0x7CD JUMPI RETURNDATASIZE PUSH1 0x0 DUP1 RETURNDATACOPY RETURNDATASIZE PUSH1 0x0 REVERT JUMPDEST POP DUP1 DUP1 PUSH2 0x7D9 SWAP1 PUSH2 0xE90 JUMP JUMPDEST SWAP2 POP POP PUSH2 0x710 JUMP JUMPDEST POP JUMPDEST JUMP JUMPDEST PUSH1 0x0 DUP2 SWAP1 POP SWAP2 SWAP1 POP JUMP JUMPDEST PUSH2 0x7F8 DUP2 PUSH2 0x7E5 JUMP JUMPDEST DUP3 MSTORE POP POP JUMP JUMPDEST PUSH1 0x0 PUSH1 0x20 DUP3 ADD SWAP1 POP PUSH2 0x813 PUSH1 0x0 DUP4 ADD DUP5 PUSH2 0x7EF JUMP JUMPDEST SWAP3 SWAP2 POP POP JUMP JUMPDEST PUSH1 0x0 PUSH20 0xFFFFFFFFFFFFFFFFFFFFFFFFFFFFFFFFFFFFFFFF DUP3 AND SWAP1 POP SWAP2 SWAP1 POP JUMP JUMPDEST PUSH1 0x0 DUP2 SWAP1 POP SWAP2 SWAP1 POP JUMP JUMPDEST PUSH1 0x0 PUSH2 0x85E PUSH2 0x859 PUSH2 0x854 DUP5 PUSH2 0x819 JUMP JUMPDEST PUSH2 0x839 JUMP JUMPDEST PUSH2 0x819 JUMP JUMPDEST SWAP1 POP SWAP2 SWAP1 POP JUMP JUMPDEST PUSH1 0x0 PUSH2 0x870 DUP3 PUSH2 0x843 JUMP JUMPDEST SWAP1 POP SWAP2 SWAP1 POP JUMP JUMPDEST PUSH1 0x0 PUSH2 0x882 DUP3 PUSH2 0x865 JUMP JUMPDEST SWAP1 POP SWAP2 SWAP1 POP JUMP JUMPDEST PUSH2 0x892 DUP2 PUSH2 0x877 JUMP JUMPDEST DUP3 MSTORE POP POP JUMP JUMPDEST PUSH1 0x0 PUSH1 0x20 DUP3 ADD SWAP1 POP PUSH2 0x8AD PUSH1 0x0 DUP4 ADD DUP5 PUSH2 0x889 JUMP JUMPDEST SWAP3 SWAP2 POP POP JUMP JUMPDEST PUSH1 0x0 DUP2 MLOAD SWAP1 POP SWAP2 SWAP1 POP JUMP JUMPDEST PUSH1 0x0 DUP3 DUP3 MSTORE PUSH1 0x20 DUP3 ADD SWAP1 POP SWAP3 SWAP2 POP POP JUMP JUMPDEST PUSH1 0x0 JUMPDEST DUP4 DUP2 LT ISZERO PUSH2 0x8ED JUMPI DUP1 DUP3 ADD MLOAD DUP2 DUP5 ADD MSTORE PUSH1 0x20 DUP2 ADD SWAP1 POP PUSH2 0x8D2 JUMP JUMPDEST DUP4 DUP2 GT ISZERO PUSH2 0x8FC JUMPI PUSH1 0x0 DUP5 DUP5 ADD MSTORE JUMPDEST POP POP POP POP JUMP JUMPDEST PUSH1 0x0 PUSH1 0x1F NOT PUSH1 0x1F DUP4 ADD AND SWAP1 POP SWAP2 SWAP1 POP JUMP JUMPDEST PUSH1 0x0 PUSH2 0x91E DUP3 PUSH2 0x8B3 JUMP JUMPDEST PUSH2 0x928 DUP2 DUP6 PUSH2 0x8BE JUMP JUMPDEST SWAP4 POP PUSH2 0x938 DUP2 DUP6 PUSH1 0x20 DUP7 ADD PUSH2 0x8CF JUMP JUMPDEST PUSH2 0x941 DUP2 PUSH2 0x902 JUMP JUMPDEST DUP5 ADD SWAP2 POP POP SWAP3 SWAP2 POP POP JUMP JUMPDEST PUSH1 0x0 PUSH1 0x20 DUP3 ADD SWAP1 POP DUP2 DUP2 SUB PUSH1 0x0 DUP4 ADD MSTORE PUSH2 0x966 DUP2 DUP5 PUSH2 0x913 JUMP JUMPDEST SWAP1 POP SWAP3 SWAP2 POP POP JUMP JUMPDEST PUSH1 0x0 DUP2 ISZERO ISZERO SWAP1 POP SWAP2 SWAP1 POP JUMP JUMPDEST PUSH2 0x983 DUP2 PUSH2 0x96E JUMP JUMPDEST DUP3 MSTORE POP POP JUMP JUMPDEST PUSH1 0x0 PUSH1 0x20 DUP3 ADD SWAP1 POP PUSH2 0x99E PUSH1 0x0 DUP4 ADD DUP5 PUSH2 0x97A JUMP JUMPDEST SWAP3 SWAP2 POP POP JUMP JUMPDEST PUSH32 0x4E487B7100000000000000000000000000000000000000000000000000000000 PUSH1 0x0 MSTORE PUSH1 0x11 PUSH1 0x4 MSTORE PUSH1 0x24 PUSH1 0x0 REVERT JUMPDEST PUSH1 0x0 PUSH2 0x9DE DUP3 PUSH2 0x7E5 JUMP JUMPDEST SWAP2 POP PUSH2 0x9E9 DUP4 PUSH2 0x7E5 JUMP JUMPDEST SWAP3 POP DUP3 DUP3 LT ISZERO PUSH2 0x9FC JUMPI PUSH2 0x9FB PUSH2 0x9A4 JUMP JUMPDEST JUMPDEST DUP3 DUP3 SUB SWAP1 POP SWAP3 SWAP2 POP POP JUMP JUMPDEST PUSH32 0x62696420746F6F206C6F77000000000000000000000000000000000000000000 PUSH1 0x0 DUP3 ADD MSTORE POP JUMP JUMPDEST PUSH1 0x0 PUSH2 0xA3D PUSH1 0xB DUP4 PUSH2 0x8BE JUMP JUMPDEST SWAP2 POP PUSH2 0xA48 DUP3 PUSH2 0xA07 JUMP JUMPDEST PUSH1 0x20 DUP3 ADD SWAP1 POP SWAP2 SWAP1 POP JUMP JUMPDEST PUSH1 0x0 PUSH1 0x20 DUP3 ADD SWAP1 POP DUP2 DUP2 SUB PUSH1 0x0 DUP4 ADD MSTORE PUSH2 0xA6C DUP2 PUSH2 0xA30 JUMP JUMPDEST SWAP1 POP SWAP2 SWAP1 POP JUMP JUMPDEST PUSH32 0x61756374696F6E20697320616C7265616479206F766572000000000000000000 PUSH1 0x0 DUP3 ADD MSTORE POP JUMP JUMPDEST PUSH1 0x0 PUSH2 0xAA9 PUSH1 0x17 DUP4 PUSH2 0x8BE JUMP JUMPDEST SWAP2 POP PUSH2 0xAB4 DUP3 PUSH2 0xA73 JUMP JUMPDEST PUSH1 0x20 DUP3 ADD SWAP1 POP SWAP2 SWAP1 POP JUMP JUMPDEST PUSH1 0x0 PUSH1 0x20 DUP3 ADD SWAP1 POP DUP2 DUP2 SUB PUSH1 0x0 DUP4 ADD MSTORE PUSH2 0xAD8 DUP2 PUSH2 0xA9C JUMP JUMPDEST SWAP1 POP SWAP2 SWAP1 POP JUMP JUMPDEST PUSH32 0x62616C616E636520746F6F206C6F772075722062726F6B65206C6F6C00000000 PUSH1 0x0 DUP3 ADD MSTORE POP JUMP JUMPDEST PUSH1 0x0 PUSH2 0xB15 PUSH1 0x1C DUP4 PUSH2 0x8BE JUMP JUMPDEST SWAP2 POP PUSH2 0xB20 DUP3 PUSH2 0xADF JUMP JUMPDEST PUSH1 0x20 DUP3 ADD SWAP1 POP SWAP2 SWAP1 POP JUMP JUMPDEST PUSH1 0x0 PUSH1 0x20 DUP3 ADD SWAP1 POP DUP2 DUP2 SUB PUSH1 0x0 DUP4 ADD MSTORE PUSH2 0xB44 DUP2 PUSH2 0xB08 JUMP JUMPDEST SWAP1 POP SWAP2 SWAP1 POP JUMP JUMPDEST PUSH1 0x0 PUSH2 0xB56 DUP3 PUSH2 0x7E5 JUMP JUMPDEST SWAP2 POP PUSH2 0xB61 DUP4 PUSH2 0x7E5 JUMP JUMPDEST SWAP3 POP DUP3 PUSH32 0xFFFFFFFFFFFFFFFFFFFFFFFFFFFFFFFFFFFFFFFFFFFFFFFFFFFFFFFFFFFFFFFF SUB DUP3 GT ISZERO PUSH2 0xB96 JUMPI PUSH2 0xB95 PUSH2 0x9A4 JUMP JUMPDEST JUMPDEST DUP3 DUP3 ADD SWAP1 POP SWAP3 SWAP2 POP POP JUMP JUMPDEST PUSH1 0x0 DUP2 SLOAD SWAP1 POP SWAP2 SWAP1 POP JUMP JUMPDEST PUSH1 0x0 DUP3 DUP3 MSTORE PUSH1 0x20 DUP3 ADD SWAP1 POP SWAP3 SWAP2 POP POP JUMP JUMPDEST PUSH1 0x0 DUP2 SWAP1 POP DUP2 PUSH1 0x0 MSTORE PUSH1 0x20 PUSH1 0x0 KECCAK256 SWAP1 POP SWAP2 SWAP1 POP JUMP JUMPDEST PUSH1 0x0 DUP2 PUSH1 0x0 SHR SWAP1 POP SWAP2 SWAP1 POP JUMP JUMPDEST PUSH1 0x0 PUSH20 0xFFFFFFFFFFFFFFFFFFFFFFFFFFFFFFFFFFFFFFFF DUP3 AND SWAP1 POP SWAP2 SWAP1 POP JUMP JUMPDEST PUSH1 0x0 PUSH2 0xC12 PUSH2 0xC0D DUP4 PUSH2 0xBD2 JUMP JUMPDEST PUSH2 0xBDF JUMP JUMPDEST SWAP1 POP SWAP2 SWAP1 POP JUMP JUMPDEST PUSH1 0x0 PUSH2 0xC24 DUP3 PUSH2 0x819 JUMP JUMPDEST SWAP1 POP SWAP2 SWAP1 POP JUMP JUMPDEST PUSH2 0xC34 DUP2 PUSH2 0xC19 JUMP JUMPDEST DUP3 MSTORE POP POP JUMP JUMPDEST PUSH1 0x0 DUP2 SWAP1 POP SWAP2 SWAP1 POP JUMP JUMPDEST PUSH1 0x0 PUSH2 0xC57 PUSH2 0xC52 DUP4 PUSH2 0xBD2 JUMP JUMPDEST PUSH2 0xC3A JUMP JUMPDEST SWAP1 POP SWAP2 SWAP1 POP JUMP JUMPDEST PUSH2 0xC67 DUP2 PUSH2 0x7E5 JUMP JUMPDEST DUP3 MSTORE POP POP JUMP JUMPDEST PUSH1 0x40 DUP3 ADD PUSH1 0x0 DUP1 DUP4 ADD SLOAD SWAP1 POP PUSH2 0xC82 DUP2 PUSH2 0xBFF JUMP JUMPDEST PUSH2 0xC8F PUSH1 0x0 DUP7 ADD DUP3 PUSH2 0xC2B JUMP JUMPDEST POP PUSH1 0x1 DUP4 ADD SLOAD SWAP1 POP PUSH2 0xCA0 DUP2 PUSH2 0xC44 JUMP JUMPDEST PUSH2 0xCAD PUSH1 0x20 DUP7 ADD DUP3 PUSH2 0xC5E JUMP JUMPDEST POP POP POP POP POP JUMP JUMPDEST PUSH1 0x0 PUSH2 0xCC0 DUP4 DUP4 PUSH2 0xC6D JUMP JUMPDEST PUSH1 0x40 DUP4 ADD SWAP1 POP SWAP3 SWAP2 POP POP JUMP JUMPDEST PUSH1 0x0 PUSH1 0x2 DUP3 ADD SWAP1 POP SWAP2 SWAP1 POP JUMP JUMPDEST PUSH1 0x0 PUSH2 0xCE4 DUP3 PUSH2 0xBA1 JUMP JUMPDEST PUSH2 0xCEE DUP2 DUP6 PUSH2 0xBAC JUMP JUMPDEST SWAP4 POP PUSH2 0xCF9 DUP4 PUSH2 0xBBD JUMP JUMPDEST DUP1 PUSH1 0x0 JUMPDEST DUP4 DUP2 LT ISZERO PUSH2 0xD29 JUMPI DUP2 PUSH2 0xD10 DUP9 DUP3 PUSH2 0xCB4 JUMP JUMPDEST SWAP8 POP PUSH2 0xD1B DUP4 PUSH2 0xCCC JUMP JUMPDEST SWAP3 POP POP PUSH1 0x1 DUP2 ADD SWAP1 POP PUSH2 0xCFD JUMP JUMPDEST POP DUP6 SWAP4 POP POP POP POP SWAP3 SWAP2 POP POP JUMP JUMPDEST PUSH1 0x0 PUSH1 0x60 DUP3 ADD SWAP1 POP PUSH2 0xD4B PUSH1 0x0 DUP4 ADD DUP7 PUSH2 0x7EF JUMP JUMPDEST PUSH2 0xD58 PUSH1 0x20 DUP4 ADD DUP6 PUSH2 0x7EF JUMP JUMPDEST DUP2 DUP2 SUB PUSH1 0x40 DUP4 ADD MSTORE PUSH2 0xD6A DUP2 DUP5 PUSH2 0xCD9 JUMP JUMPDEST SWAP1 POP SWAP5 SWAP4 POP POP POP POP JUMP JUMPDEST PUSH32 0x4E487B7100000000000000000000000000000000000000000000000000000000 PUSH1 0x0 MSTORE PUSH1 0x32 PUSH1 0x4 MSTORE PUSH1 0x24 PUSH1 0x0 REVERT JUMPDEST PUSH1 0x0 PUSH2 0xDAE DUP3 PUSH2 0x865 JUMP JUMPDEST SWAP1 POP SWAP2 SWAP1 POP JUMP JUMPDEST PUSH2 0xDBE DUP2 PUSH2 0xDA3 JUMP JUMPDEST DUP3 MSTORE POP POP JUMP JUMPDEST PUSH1 0x0 PUSH1 0x40 DUP3 ADD SWAP1 POP PUSH2 0xDD9 PUSH1 0x0 DUP4 ADD DUP6 PUSH2 0xDB5 JUMP JUMPDEST PUSH2 0xDE6 PUSH1 0x20 DUP4 ADD DUP5 PUSH2 0x7EF JUMP JUMPDEST SWAP4 SWAP3 POP POP POP JUMP JUMPDEST PUSH32 0x61756374696F6E206861736E277420656E646564000000000000000000000000 PUSH1 0x0 DUP3 ADD MSTORE POP JUMP JUMPDEST PUSH1 0x0 PUSH2 0xE23 PUSH1 0x14 DUP4 PUSH2 0x8BE JUMP JUMPDEST SWAP2 POP PUSH2 0xE2E DUP3 PUSH2 0xDED JUMP JUMPDEST PUSH1 0x20 DUP3 ADD SWAP1 POP SWAP2 SWAP1 POP JUMP JUMPDEST PUSH1 0x0 PUSH1 0x20 DUP3 ADD SWAP1 POP DUP2 DUP2 SUB PUSH1 0x0 DUP4 ADD MSTORE PUSH2 0xE52 DUP2 PUSH2 0xE16 JUMP JUMPDEST SWAP1 POP SWAP2 SWAP1 POP JUMP JUMPDEST PUSH1 0x0 PUSH1 0x60 DUP3 ADD SWAP1 POP PUSH2 0xE6E PUSH1 0x0 DUP4 ADD DUP7 PUSH2 0xDB5 JUMP JUMPDEST PUSH2 0xE7B PUSH1 0x20 DUP4 ADD DUP6 PUSH2 0xDB5 JUMP JUMPDEST PUSH2 0xE88 PUSH1 0x40 DUP4 ADD DUP5 PUSH2 0x7EF JUMP JUMPDEST SWAP5 SWAP4 POP POP POP POP JUMP JUMPDEST PUSH1 0x0 PUSH2 0xE9B DUP3 PUSH2 0x7E5 JUMP JUMPDEST SWAP2 POP PUSH32 0xFFFFFFFFFFFFFFFFFFFFFFFFFFFFFFFFFFFFFFFFFFFFFFFFFFFFFFFFFFFFFFFF DUP3 EQ ISZERO PUSH2 0xECE JUMPI PUSH2 0xECD PUSH2 0x9A4 JUMP JUMPDEST JUMPDEST PUSH1 0x1 DUP3 ADD SWAP1 POP SWAP2 SWAP1 POP JUMP INVALID LOG2 PUSH5 0x6970667358 0x22 SLT KECCAK256 PUSH17 0xDC44B4055F4F835669C7F99E69C3232E73 EXP 0x29 PUSH15 0xA8B9EB664A4D1AA0A63C5264736F6C PUSH4 0x43000809 STOP CALLER "
		},
		"gasEstimates": {
			"creation": {
				"codeDepositCost": "771000",
				"executionCost": "infinite",
				"totalCost": "infinite"
			},
			"external": {
				"aucEnding()": "2495",
				"countWords()": "372",
				"endAuction()": "infinite",
				"forceEndAuction()": "46590",
				"latestBid()": "infinite",
				"nft()": "infinite",
				"nftId()": "2429",
				"timeLeft()": "infinite",
				"updateBiddingPrice()": "infinite"
			}
		},
		"methodIdentifiers": {
			"aucEnding()": "e5422944",
			"countWords()": "d4d33a6f",
			"endAuction()": "fe67a54b",
			"forceEndAuction()": "fd3b5a69",
			"latestBid()": "5dd672ec",
			"nft()": "47ccca02",
			"nftId()": "c6bc5182",
			"timeLeft()": "1300a6d1",
			"updateBiddingPrice()": "46297c1b"
		}
	},
	"abi": [
		{
			"inputs": [
				{
					"internalType": "address",
					"name": "_nftaddress",
					"type": "address"
				},
				{
					"internalType": "uint256",
					"name": "_nftId",
					"type": "uint256"
				},
				{
					"internalType": "string",
					"name": "_desc",
					"type": "string"
				}
			],
			"stateMutability": "nonpayable",
			"type": "constructor"
		},
		{
			"anonymous": false,
			"inputs": [
				{
					"indexed": false,
					"internalType": "uint256",
					"name": "price",
					"type": "uint256"
				},
				{
					"indexed": false,
					"internalType": "uint256",
					"name": "auctionEnd",
					"type": "uint256"
				},
				{
					"components": [
						{
							"internalType": "address payable",
							"name": "addr",
							"type": "address"
						},
						{
							"internalType": "uint256",
							"name": "price",
							"type": "uint256"
						}
					],
					"indexed": false,
					"internalType": "struct Auction.Bid[]",
					"name": "history",
					"type": "tuple[]"
				}
			],
			"name": "bidUpdated",
			"type": "event"
		},
		{
			"anonymous": false,
			"inputs": [
				{
					"indexed": false,
					"internalType": "address",
					"name": "_address",
					"type": "address"
				},
				{
					"indexed": false,
					"internalType": "uint256",
					"name": "price",
					"type": "uint256"
				}
			],
			"name": "latest",
			"type": "event"
		},
		{
			"inputs": [],
			"name": "aucEnding",
			"outputs": [
				{
					"internalType": "bool",
					"name": "",
					"type": "bool"
				}
			],
			"stateMutability": "view",
			"type": "function"
		},
		{
			"inputs": [],
			"name": "countWords",
			"outputs": [
				{
					"internalType": "uint256",
					"name": "",
					"type": "uint256"
				}
			],
			"stateMutability": "pure",
			"type": "function"
		},
		{
			"inputs": [],
			"name": "endAuction",
			"outputs": [],
			"stateMutability": "payable",
			"type": "function"
		},
		{
			"inputs": [],
			"name": "forceEndAuction",
			"outputs": [],
			"stateMutability": "nonpayable",
			"type": "function"
		},
		{
			"inputs": [],
			"name": "latestBid",
			"outputs": [
				{
					"internalType": "string",
					"name": "",
					"type": "string"
				}
			],
			"stateMutability": "nonpayable",
			"type": "function"
		},
		{
			"inputs": [],
			"name": "nft",
			"outputs": [
				{
					"internalType": "contract IERC721",
					"name": "",
					"type": "address"
				}
			],
			"stateMutability": "view",
			"type": "function"
		},
		{
			"inputs": [],
			"name": "nftId",
			"outputs": [
				{
					"internalType": "uint256",
					"name": "",
					"type": "uint256"
				}
			],
			"stateMutability": "view",
			"type": "function"
		},
		{
			"inputs": [],
			"name": "timeLeft",
			"outputs": [
				{
					"internalType": "uint256",
					"name": "",
					"type": "uint256"
				}
			],
			"stateMutability": "view",
			"type": "function"
		},
		{
			"inputs": [],
			"name": "updateBiddingPrice",
			"outputs": [],
			"stateMutability": "payable",
			"type": "function"
		}
	]
}