{
	"data": {
		"bytecode": {
			"linkReferences": {},
			"object": "60806040523480156200001157600080fd5b50604051620015663803806200156683398181016040528101906200003791906200045a565b80620000486200015f60201b60201c565b6064116200008d576040517f08c379a0000000000000000000000000000000000000000000000000000000008152600401620000849062000536565b60405180910390fd5b83600660006101000a81548173ffffffffffffffffffffffffffffffffffffffff021916908373ffffffffffffffffffffffffffffffffffffffff160217905550826007819055508160029080519060200190620000ed9291906200016d565b50336000806101000a81548173ffffffffffffffffffffffffffffffffffffffff021916908373ffffffffffffffffffffffffffffffffffffffff16021790555043600381905550618ca060035462000147919062000587565b60048190555060006001819055505050505062000649565b600080600090508091505090565b8280546200017b9062000613565b90600052602060002090601f0160209004810192826200019f5760008555620001eb565b82601f10620001ba57805160ff1916838001178555620001eb565b82800160010185558215620001eb579182015b82811115620001ea578251825591602001919060010190620001cd565b5b509050620001fa9190620001fe565b5090565b5b8082111562000219576000816000905550600101620001ff565b5090565b6000604051905090565b600080fd5b600080fd5b600073ffffffffffffffffffffffffffffffffffffffff82169050919050565b60006200025e8262000231565b9050919050565b620002708162000251565b81146200027c57600080fd5b50565b600081519050620002908162000265565b92915050565b6000819050919050565b620002ab8162000296565b8114620002b757600080fd5b50565b600081519050620002cb81620002a0565b92915050565b600080fd5b600080fd5b6000601f19601f8301169050919050565b7f4e487b7100000000000000000000000000000000000000000000000000000000600052604160045260246000fd5b6200032682620002db565b810181811067ffffffffffffffff82111715620003485762000347620002ec565b5b80604052505050565b60006200035d6200021d565b90506200036b82826200031b565b919050565b600067ffffffffffffffff8211156200038e576200038d620002ec565b5b6200039982620002db565b9050602081019050919050565b60005b83811015620003c6578082015181840152602081019050620003a9565b83811115620003d6576000848401525b50505050565b6000620003f3620003ed8462000370565b62000351565b905082815260208101848484011115620004125762000411620002d6565b5b6200041f848285620003a6565b509392505050565b600082601f8301126200043f576200043e620002d1565b5b815162000451848260208601620003dc565b91505092915050565b60008060006060848603121562000476576200047562000227565b5b600062000486868287016200027f565b93505060206200049986828701620002ba565b925050604084015167ffffffffffffffff811115620004bd57620004bc6200022c565b5b620004cb8682870162000427565b9150509250925092565b600082825260208201905092915050565b7f776f72647320746f6f2068696768000000000000000000000000000000000000600082015250565b60006200051e600e83620004d5565b91506200052b82620004e6565b602082019050919050565b6000602082019050818103600083015262000551816200050f565b9050919050565b7f4e487b7100000000000000000000000000000000000000000000000000000000600052601160045260246000fd5b6000620005948262000296565b9150620005a18362000296565b9250827fffffffffffffffffffffffffffffffffffffffffffffffffffffffffffffffff03821115620005d957620005d862000558565b5b828201905092915050565b7f4e487b7100000000000000000000000000000000000000000000000000000000600052602260045260246000fd5b600060028204905060018216806200062c57607f821691505b60208210811415620006435762000642620005e4565b5b50919050565b610f0d80620006596000396000f3fe6080604052600436106100865760003560e01c8063c6bc518211610059578063c6bc518214610135578063d4d33a6f14610160578063e54229441461018b578063fd3b5a69146101b6578063fe67a54b146101cd57610086565b80631300a6d11461008b57806347ccca02146100b65780635dd672ec146100e15780639f2d6b451461010c575b600080fd5b34801561009757600080fd5b506100a06101d7565b6040516100ad919061076c565b60405180910390f35b3480156100c257600080fd5b506100cb6101ec565b6040516100d89190610806565b60405180910390f35b3480156100ed57600080fd5b506100f6610212565b60405161010391906108ba565b60405180910390f35b34801561011857600080fd5b50610133600480360381019061012e919061090d565b6102ee565b005b34801561014157600080fd5b5061014a6104e2565b604051610157919061076c565b60405180910390f35b34801561016c57600080fd5b506101756104e8565b604051610182919061076c565b60405180910390f35b34801561019757600080fd5b506101a06104f6565b6040516101ad9190610955565b60405180910390f35b3480156101c257600080fd5b506101cb610503565b005b6101d561050c565b005b6000436004546101e7919061099f565b905090565b600660009054906101000a900473ffffffffffffffffffffffffffffffffffffffff1681565b60607f0248d3bfddf405c2684a91805207544032ccd269d9d54219da4ac941585d609c60086001600880549050610249919061099f565b8154811061025a576102596109d3565b5b906000526020600020906002020160000160009054906101000a900473ffffffffffffffffffffffffffffffffffffffff16600860016008805490506102a0919061099f565b815481106102b1576102b06109d3565b5b9060005260206000209060020201600101546040516102d1929190610a23565b60405180910390a160405180602001604052806000815250905090565b806001548111610333576040517f08c379a000000000000000000000000000000000000000000000000000000000815260040161032a90610a98565b60405180910390fd5b61033b6104f6565b1561037b576040517f08c379a000000000000000000000000000000000000000000000000000000000815260040161037290610b04565b60405180910390fd5b3373ffffffffffffffffffffffffffffffffffffffff163182106103d4576040517f08c379a00000000000000000000000000000000000000000000000000000000081526004016103cb90610b70565b60405180910390fd5b6000600460008282546103e79190610b90565b9250508190555081600181905550600860405180604001604052803373ffffffffffffffffffffffffffffffffffffffff16815260200184815250908060018154018082558091505060019003906000526020600020906002020160009091909190915060008201518160000160006101000a81548173ffffffffffffffffffffffffffffffffffffffff021916908373ffffffffffffffffffffffffffffffffffffffff1602179055506020820151816001015550507f43ad5caa51c726fde88b9a8754205f6f718737df0c9d5d4bd55b17e2847daef460015460015460086040516104d693929190610d69565b60405180910390a15050565b60075481565b600080600090508091505090565b6000436004541115905090565b43600481905550565b60008054906101000a900473ffffffffffffffffffffffffffffffffffffffff1673ffffffffffffffffffffffffffffffffffffffff163373ffffffffffffffffffffffffffffffffffffffff161461059a576040517f08c379a000000000000000000000000000000000000000000000000000000000815260040161059190610df3565b60405180910390fd5b6105a26104f6565b6105e1576040517f08c379a00000000000000000000000000000000000000000000000000000000081526004016105d890610e5f565b60405180910390fd5b600660009054906101000a900473ffffffffffffffffffffffffffffffffffffffff1673ffffffffffffffffffffffffffffffffffffffff166342842e0e60008054906101000a900473ffffffffffffffffffffffffffffffffffffffff1660086001600880549050610654919061099f565b81548110610665576106646109d3565b5b906000526020600020906002020160000160009054906101000a900473ffffffffffffffffffffffffffffffffffffffff166005546040518463ffffffff1660e01b81526004016106b893929190610ea0565b600060405180830381600087803b1580156106d257600080fd5b505af11580156106e6573d6000803e3d6000fd5b5050505060008054906101000a900473ffffffffffffffffffffffffffffffffffffffff1673ffffffffffffffffffffffffffffffffffffffff166108fc349081150290604051600060405180830381858888f19350505050158015610750573d6000803e3d6000fd5b50565b6000819050919050565b61076681610753565b82525050565b6000602082019050610781600083018461075d565b92915050565b600073ffffffffffffffffffffffffffffffffffffffff82169050919050565b6000819050919050565b60006107cc6107c76107c284610787565b6107a7565b610787565b9050919050565b60006107de826107b1565b9050919050565b60006107f0826107d3565b9050919050565b610800816107e5565b82525050565b600060208201905061081b60008301846107f7565b92915050565b600081519050919050565b600082825260208201905092915050565b60005b8381101561085b578082015181840152602081019050610840565b8381111561086a576000848401525b50505050565b6000601f19601f8301169050919050565b600061088c82610821565b610896818561082c565b93506108a681856020860161083d565b6108af81610870565b840191505092915050565b600060208201905081810360008301526108d48184610881565b905092915050565b600080fd5b6108ea81610753565b81146108f557600080fd5b50565b600081359050610907816108e1565b92915050565b600060208284031215610923576109226108dc565b5b6000610931848285016108f8565b91505092915050565b60008115159050919050565b61094f8161093a565b82525050565b600060208201905061096a6000830184610946565b92915050565b7f4e487b7100000000000000000000000000000000000000000000000000000000600052601160045260246000fd5b60006109aa82610753565b91506109b583610753565b9250828210156109c8576109c7610970565b5b828203905092915050565b7f4e487b7100000000000000000000000000000000000000000000000000000000600052603260045260246000fd5b6000610a0d82610787565b9050919050565b610a1d81610a02565b82525050565b6000604082019050610a386000830185610a14565b610a45602083018461075d565b9392505050565b7f62696420746f6f206c6f77000000000000000000000000000000000000000000600082015250565b6000610a82600b8361082c565b9150610a8d82610a4c565b602082019050919050565b60006020820190508181036000830152610ab181610a75565b9050919050565b7f61756374696f6e20697320616c7265616479206f766572000000000000000000600082015250565b6000610aee60178361082c565b9150610af982610ab8565b602082019050919050565b60006020820190508181036000830152610b1d81610ae1565b9050919050565b7f62616c616e636520746f6f206c6f772075722062726f6b65206c6f6c00000000600082015250565b6000610b5a601c8361082c565b9150610b6582610b24565b602082019050919050565b60006020820190508181036000830152610b8981610b4d565b9050919050565b6000610b9b82610753565b9150610ba683610753565b9250827fffffffffffffffffffffffffffffffffffffffffffffffffffffffffffffffff03821115610bdb57610bda610970565b5b828201905092915050565b600081549050919050565b600082825260208201905092915050565b60008190508160005260206000209050919050565b60008160001c9050919050565b600073ffffffffffffffffffffffffffffffffffffffff82169050919050565b6000610c57610c5283610c17565b610c24565b9050919050565b610c6781610a02565b82525050565b6000819050919050565b6000610c8a610c8583610c17565b610c6d565b9050919050565b610c9a81610753565b82525050565b604082016000808301549050610cb581610c44565b610cc26000860182610c5e565b5060018301549050610cd381610c77565b610ce06020860182610c91565b5050505050565b6000610cf38383610ca0565b60408301905092915050565b6000600282019050919050565b6000610d1782610be6565b610d218185610bf1565b9350610d2c83610c02565b8060005b83811015610d5c5781610d438882610ce7565b9750610d4e83610cff565b925050600181019050610d30565b5085935050505092915050565b6000606082019050610d7e600083018661075d565b610d8b602083018561075d565b8181036040830152610d9d8184610d0c565b9050949350505050565b7f4e6f74206f776e65720000000000000000000000000000000000000000000000600082015250565b6000610ddd60098361082c565b9150610de882610da7565b602082019050919050565b60006020820190508181036000830152610e0c81610dd0565b9050919050565b7f61756374696f6e206861736e277420656e646564000000000000000000000000600082015250565b6000610e4960148361082c565b9150610e5482610e13565b602082019050919050565b60006020820190508181036000830152610e7881610e3c565b9050919050565b6000610e8a826107d3565b9050919050565b610e9a81610e7f565b82525050565b6000606082019050610eb56000830186610e91565b610ec26020830185610a14565b610ecf604083018461075d565b94935050505056fea26469706673582212207699b3b3e7995aa8cd67a8acdb5f4ccb33291de88e01b9c16473e065c5f8438264736f6c63430008090033",
			"opcodes": "PUSH1 0x80 PUSH1 0x40 MSTORE CALLVALUE DUP1 ISZERO PUSH3 0x11 JUMPI PUSH1 0x0 DUP1 REVERT JUMPDEST POP PUSH1 0x40 MLOAD PUSH3 0x1566 CODESIZE SUB DUP1 PUSH3 0x1566 DUP4 CODECOPY DUP2 DUP2 ADD PUSH1 0x40 MSTORE DUP2 ADD SWAP1 PUSH3 0x37 SWAP2 SWAP1 PUSH3 0x45A JUMP JUMPDEST DUP1 PUSH3 0x48 PUSH3 0x15F PUSH1 0x20 SHL PUSH1 0x20 SHR JUMP JUMPDEST PUSH1 0x64 GT PUSH3 0x8D JUMPI PUSH1 0x40 MLOAD PUSH32 0x8C379A000000000000000000000000000000000000000000000000000000000 DUP2 MSTORE PUSH1 0x4 ADD PUSH3 0x84 SWAP1 PUSH3 0x536 JUMP JUMPDEST PUSH1 0x40 MLOAD DUP1 SWAP2 SUB SWAP1 REVERT JUMPDEST DUP4 PUSH1 0x6 PUSH1 0x0 PUSH2 0x100 EXP DUP2 SLOAD DUP2 PUSH20 0xFFFFFFFFFFFFFFFFFFFFFFFFFFFFFFFFFFFFFFFF MUL NOT AND SWAP1 DUP4 PUSH20 0xFFFFFFFFFFFFFFFFFFFFFFFFFFFFFFFFFFFFFFFF AND MUL OR SWAP1 SSTORE POP DUP3 PUSH1 0x7 DUP2 SWAP1 SSTORE POP DUP2 PUSH1 0x2 SWAP1 DUP1 MLOAD SWAP1 PUSH1 0x20 ADD SWAP1 PUSH3 0xED SWAP3 SWAP2 SWAP1 PUSH3 0x16D JUMP JUMPDEST POP CALLER PUSH1 0x0 DUP1 PUSH2 0x100 EXP DUP2 SLOAD DUP2 PUSH20 0xFFFFFFFFFFFFFFFFFFFFFFFFFFFFFFFFFFFFFFFF MUL NOT AND SWAP1 DUP4 PUSH20 0xFFFFFFFFFFFFFFFFFFFFFFFFFFFFFFFFFFFFFFFF AND MUL OR SWAP1 SSTORE POP NUMBER PUSH1 0x3 DUP2 SWAP1 SSTORE POP PUSH2 0x8CA0 PUSH1 0x3 SLOAD PUSH3 0x147 SWAP2 SWAP1 PUSH3 0x587 JUMP JUMPDEST PUSH1 0x4 DUP2 SWAP1 SSTORE POP PUSH1 0x0 PUSH1 0x1 DUP2 SWAP1 SSTORE POP POP POP POP POP PUSH3 0x649 JUMP JUMPDEST PUSH1 0x0 DUP1 PUSH1 0x0 SWAP1 POP DUP1 SWAP2 POP POP SWAP1 JUMP JUMPDEST DUP3 DUP1 SLOAD PUSH3 0x17B SWAP1 PUSH3 0x613 JUMP JUMPDEST SWAP1 PUSH1 0x0 MSTORE PUSH1 0x20 PUSH1 0x0 KECCAK256 SWAP1 PUSH1 0x1F ADD PUSH1 0x20 SWAP1 DIV DUP2 ADD SWAP3 DUP3 PUSH3 0x19F JUMPI PUSH1 0x0 DUP6 SSTORE PUSH3 0x1EB JUMP JUMPDEST DUP3 PUSH1 0x1F LT PUSH3 0x1BA JUMPI DUP1 MLOAD PUSH1 0xFF NOT AND DUP4 DUP1 ADD OR DUP6 SSTORE PUSH3 0x1EB JUMP JUMPDEST DUP3 DUP1 ADD PUSH1 0x1 ADD DUP6 SSTORE DUP3 ISZERO PUSH3 0x1EB JUMPI SWAP2 DUP3 ADD JUMPDEST DUP3 DUP2 GT ISZERO PUSH3 0x1EA JUMPI DUP3 MLOAD DUP3 SSTORE SWAP2 PUSH1 0x20 ADD SWAP2 SWAP1 PUSH1 0x1 ADD SWAP1 PUSH3 0x1CD JUMP JUMPDEST JUMPDEST POP SWAP1 POP PUSH3 0x1FA SWAP2 SWAP1 PUSH3 0x1FE JUMP JUMPDEST POP SWAP1 JUMP JUMPDEST JUMPDEST DUP1 DUP3 GT ISZERO PUSH3 0x219 JUMPI PUSH1 0x0 DUP2 PUSH1 0x0 SWAP1 SSTORE POP PUSH1 0x1 ADD PUSH3 0x1FF JUMP JUMPDEST POP SWAP1 JUMP JUMPDEST PUSH1 0x0 PUSH1 0x40 MLOAD SWAP1 POP SWAP1 JUMP JUMPDEST PUSH1 0x0 DUP1 REVERT JUMPDEST PUSH1 0x0 DUP1 REVERT JUMPDEST PUSH1 0x0 PUSH20 0xFFFFFFFFFFFFFFFFFFFFFFFFFFFFFFFFFFFFFFFF DUP3 AND SWAP1 POP SWAP2 SWAP1 POP JUMP JUMPDEST PUSH1 0x0 PUSH3 0x25E DUP3 PUSH3 0x231 JUMP JUMPDEST SWAP1 POP SWAP2 SWAP1 POP JUMP JUMPDEST PUSH3 0x270 DUP2 PUSH3 0x251 JUMP JUMPDEST DUP2 EQ PUSH3 0x27C JUMPI PUSH1 0x0 DUP1 REVERT JUMPDEST POP JUMP JUMPDEST PUSH1 0x0 DUP2 MLOAD SWAP1 POP PUSH3 0x290 DUP2 PUSH3 0x265 JUMP JUMPDEST SWAP3 SWAP2 POP POP JUMP JUMPDEST PUSH1 0x0 DUP2 SWAP1 POP SWAP2 SWAP1 POP JUMP JUMPDEST PUSH3 0x2AB DUP2 PUSH3 0x296 JUMP JUMPDEST DUP2 EQ PUSH3 0x2B7 JUMPI PUSH1 0x0 DUP1 REVERT JUMPDEST POP JUMP JUMPDEST PUSH1 0x0 DUP2 MLOAD SWAP1 POP PUSH3 0x2CB DUP2 PUSH3 0x2A0 JUMP JUMPDEST SWAP3 SWAP2 POP POP JUMP JUMPDEST PUSH1 0x0 DUP1 REVERT JUMPDEST PUSH1 0x0 DUP1 REVERT JUMPDEST PUSH1 0x0 PUSH1 0x1F NOT PUSH1 0x1F DUP4 ADD AND SWAP1 POP SWAP2 SWAP1 POP JUMP JUMPDEST PUSH32 0x4E487B7100000000000000000000000000000000000000000000000000000000 PUSH1 0x0 MSTORE PUSH1 0x41 PUSH1 0x4 MSTORE PUSH1 0x24 PUSH1 0x0 REVERT JUMPDEST PUSH3 0x326 DUP3 PUSH3 0x2DB JUMP JUMPDEST DUP2 ADD DUP2 DUP2 LT PUSH8 0xFFFFFFFFFFFFFFFF DUP3 GT OR ISZERO PUSH3 0x348 JUMPI PUSH3 0x347 PUSH3 0x2EC JUMP JUMPDEST JUMPDEST DUP1 PUSH1 0x40 MSTORE POP POP POP JUMP JUMPDEST PUSH1 0x0 PUSH3 0x35D PUSH3 0x21D JUMP JUMPDEST SWAP1 POP PUSH3 0x36B DUP3 DUP3 PUSH3 0x31B JUMP JUMPDEST SWAP2 SWAP1 POP JUMP JUMPDEST PUSH1 0x0 PUSH8 0xFFFFFFFFFFFFFFFF DUP3 GT ISZERO PUSH3 0x38E JUMPI PUSH3 0x38D PUSH3 0x2EC JUMP JUMPDEST JUMPDEST PUSH3 0x399 DUP3 PUSH3 0x2DB JUMP JUMPDEST SWAP1 POP PUSH1 0x20 DUP2 ADD SWAP1 POP SWAP2 SWAP1 POP JUMP JUMPDEST PUSH1 0x0 JUMPDEST DUP4 DUP2 LT ISZERO PUSH3 0x3C6 JUMPI DUP1 DUP3 ADD MLOAD DUP2 DUP5 ADD MSTORE PUSH1 0x20 DUP2 ADD SWAP1 POP PUSH3 0x3A9 JUMP JUMPDEST DUP4 DUP2 GT ISZERO PUSH3 0x3D6 JUMPI PUSH1 0x0 DUP5 DUP5 ADD MSTORE JUMPDEST POP POP POP POP JUMP JUMPDEST PUSH1 0x0 PUSH3 0x3F3 PUSH3 0x3ED DUP5 PUSH3 0x370 JUMP JUMPDEST PUSH3 0x351 JUMP JUMPDEST SWAP1 POP DUP3 DUP2 MSTORE PUSH1 0x20 DUP2 ADD DUP5 DUP5 DUP5 ADD GT ISZERO PUSH3 0x412 JUMPI PUSH3 0x411 PUSH3 0x2D6 JUMP JUMPDEST JUMPDEST PUSH3 0x41F DUP5 DUP3 DUP6 PUSH3 0x3A6 JUMP JUMPDEST POP SWAP4 SWAP3 POP POP POP JUMP JUMPDEST PUSH1 0x0 DUP3 PUSH1 0x1F DUP4 ADD SLT PUSH3 0x43F JUMPI PUSH3 0x43E PUSH3 0x2D1 JUMP JUMPDEST JUMPDEST DUP2 MLOAD PUSH3 0x451 DUP5 DUP3 PUSH1 0x20 DUP7 ADD PUSH3 0x3DC JUMP JUMPDEST SWAP2 POP POP SWAP3 SWAP2 POP POP JUMP JUMPDEST PUSH1 0x0 DUP1 PUSH1 0x0 PUSH1 0x60 DUP5 DUP7 SUB SLT ISZERO PUSH3 0x476 JUMPI PUSH3 0x475 PUSH3 0x227 JUMP JUMPDEST JUMPDEST PUSH1 0x0 PUSH3 0x486 DUP7 DUP3 DUP8 ADD PUSH3 0x27F JUMP JUMPDEST SWAP4 POP POP PUSH1 0x20 PUSH3 0x499 DUP7 DUP3 DUP8 ADD PUSH3 0x2BA JUMP JUMPDEST SWAP3 POP POP PUSH1 0x40 DUP5 ADD MLOAD PUSH8 0xFFFFFFFFFFFFFFFF DUP2 GT ISZERO PUSH3 0x4BD JUMPI PUSH3 0x4BC PUSH3 0x22C JUMP JUMPDEST JUMPDEST PUSH3 0x4CB DUP7 DUP3 DUP8 ADD PUSH3 0x427 JUMP JUMPDEST SWAP2 POP POP SWAP3 POP SWAP3 POP SWAP3 JUMP JUMPDEST PUSH1 0x0 DUP3 DUP3 MSTORE PUSH1 0x20 DUP3 ADD SWAP1 POP SWAP3 SWAP2 POP POP JUMP JUMPDEST PUSH32 0x776F72647320746F6F2068696768000000000000000000000000000000000000 PUSH1 0x0 DUP3 ADD MSTORE POP JUMP JUMPDEST PUSH1 0x0 PUSH3 0x51E PUSH1 0xE DUP4 PUSH3 0x4D5 JUMP JUMPDEST SWAP2 POP PUSH3 0x52B DUP3 PUSH3 0x4E6 JUMP JUMPDEST PUSH1 0x20 DUP3 ADD SWAP1 POP SWAP2 SWAP1 POP JUMP JUMPDEST PUSH1 0x0 PUSH1 0x20 DUP3 ADD SWAP1 POP DUP2 DUP2 SUB PUSH1 0x0 DUP4 ADD MSTORE PUSH3 0x551 DUP2 PUSH3 0x50F JUMP JUMPDEST SWAP1 POP SWAP2 SWAP1 POP JUMP JUMPDEST PUSH32 0x4E487B7100000000000000000000000000000000000000000000000000000000 PUSH1 0x0 MSTORE PUSH1 0x11 PUSH1 0x4 MSTORE PUSH1 0x24 PUSH1 0x0 REVERT JUMPDEST PUSH1 0x0 PUSH3 0x594 DUP3 PUSH3 0x296 JUMP JUMPDEST SWAP2 POP PUSH3 0x5A1 DUP4 PUSH3 0x296 JUMP JUMPDEST SWAP3 POP DUP3 PUSH32 0xFFFFFFFFFFFFFFFFFFFFFFFFFFFFFFFFFFFFFFFFFFFFFFFFFFFFFFFFFFFFFFFF SUB DUP3 GT ISZERO PUSH3 0x5D9 JUMPI PUSH3 0x5D8 PUSH3 0x558 JUMP JUMPDEST JUMPDEST DUP3 DUP3 ADD SWAP1 POP SWAP3 SWAP2 POP POP JUMP JUMPDEST PUSH32 0x4E487B7100000000000000000000000000000000000000000000000000000000 PUSH1 0x0 MSTORE PUSH1 0x22 PUSH1 0x4 MSTORE PUSH1 0x24 PUSH1 0x0 REVERT JUMPDEST PUSH1 0x0 PUSH1 0x2 DUP3 DIV SWAP1 POP PUSH1 0x1 DUP3 AND DUP1 PUSH3 0x62C JUMPI PUSH1 0x7F DUP3 AND SWAP2 POP JUMPDEST PUSH1 0x20 DUP3 LT DUP2 EQ ISZERO PUSH3 0x643 JUMPI PUSH3 0x642 PUSH3 0x5E4 JUMP JUMPDEST JUMPDEST POP SWAP2 SWAP1 POP JUMP JUMPDEST PUSH2 0xF0D DUP1 PUSH3 0x659 PUSH1 0x0 CODECOPY PUSH1 0x0 RETURN INVALID PUSH1 0x80 PUSH1 0x40 MSTORE PUSH1 0x4 CALLDATASIZE LT PUSH2 0x86 JUMPI PUSH1 0x0 CALLDATALOAD PUSH1 0xE0 SHR DUP1 PUSH4 0xC6BC5182 GT PUSH2 0x59 JUMPI DUP1 PUSH4 0xC6BC5182 EQ PUSH2 0x135 JUMPI DUP1 PUSH4 0xD4D33A6F EQ PUSH2 0x160 JUMPI DUP1 PUSH4 0xE5422944 EQ PUSH2 0x18B JUMPI DUP1 PUSH4 0xFD3B5A69 EQ PUSH2 0x1B6 JUMPI DUP1 PUSH4 0xFE67A54B EQ PUSH2 0x1CD JUMPI PUSH2 0x86 JUMP JUMPDEST DUP1 PUSH4 0x1300A6D1 EQ PUSH2 0x8B JUMPI DUP1 PUSH4 0x47CCCA02 EQ PUSH2 0xB6 JUMPI DUP1 PUSH4 0x5DD672EC EQ PUSH2 0xE1 JUMPI DUP1 PUSH4 0x9F2D6B45 EQ PUSH2 0x10C JUMPI JUMPDEST PUSH1 0x0 DUP1 REVERT JUMPDEST CALLVALUE DUP1 ISZERO PUSH2 0x97 JUMPI PUSH1 0x0 DUP1 REVERT JUMPDEST POP PUSH2 0xA0 PUSH2 0x1D7 JUMP JUMPDEST PUSH1 0x40 MLOAD PUSH2 0xAD SWAP2 SWAP1 PUSH2 0x76C JUMP JUMPDEST PUSH1 0x40 MLOAD DUP1 SWAP2 SUB SWAP1 RETURN JUMPDEST CALLVALUE DUP1 ISZERO PUSH2 0xC2 JUMPI PUSH1 0x0 DUP1 REVERT JUMPDEST POP PUSH2 0xCB PUSH2 0x1EC JUMP JUMPDEST PUSH1 0x40 MLOAD PUSH2 0xD8 SWAP2 SWAP1 PUSH2 0x806 JUMP JUMPDEST PUSH1 0x40 MLOAD DUP1 SWAP2 SUB SWAP1 RETURN JUMPDEST CALLVALUE DUP1 ISZERO PUSH2 0xED JUMPI PUSH1 0x0 DUP1 REVERT JUMPDEST POP PUSH2 0xF6 PUSH2 0x212 JUMP JUMPDEST PUSH1 0x40 MLOAD PUSH2 0x103 SWAP2 SWAP1 PUSH2 0x8BA JUMP JUMPDEST PUSH1 0x40 MLOAD DUP1 SWAP2 SUB SWAP1 RETURN JUMPDEST CALLVALUE DUP1 ISZERO PUSH2 0x118 JUMPI PUSH1 0x0 DUP1 REVERT JUMPDEST POP PUSH2 0x133 PUSH1 0x4 DUP1 CALLDATASIZE SUB DUP2 ADD SWAP1 PUSH2 0x12E SWAP2 SWAP1 PUSH2 0x90D JUMP JUMPDEST PUSH2 0x2EE JUMP JUMPDEST STOP JUMPDEST CALLVALUE DUP1 ISZERO PUSH2 0x141 JUMPI PUSH1 0x0 DUP1 REVERT JUMPDEST POP PUSH2 0x14A PUSH2 0x4E2 JUMP JUMPDEST PUSH1 0x40 MLOAD PUSH2 0x157 SWAP2 SWAP1 PUSH2 0x76C JUMP JUMPDEST PUSH1 0x40 MLOAD DUP1 SWAP2 SUB SWAP1 RETURN JUMPDEST CALLVALUE DUP1 ISZERO PUSH2 0x16C JUMPI PUSH1 0x0 DUP1 REVERT JUMPDEST POP PUSH2 0x175 PUSH2 0x4E8 JUMP JUMPDEST PUSH1 0x40 MLOAD PUSH2 0x182 SWAP2 SWAP1 PUSH2 0x76C JUMP JUMPDEST PUSH1 0x40 MLOAD DUP1 SWAP2 SUB SWAP1 RETURN JUMPDEST CALLVALUE DUP1 ISZERO PUSH2 0x197 JUMPI PUSH1 0x0 DUP1 REVERT JUMPDEST POP PUSH2 0x1A0 PUSH2 0x4F6 JUMP JUMPDEST PUSH1 0x40 MLOAD PUSH2 0x1AD SWAP2 SWAP1 PUSH2 0x955 JUMP JUMPDEST PUSH1 0x40 MLOAD DUP1 SWAP2 SUB SWAP1 RETURN JUMPDEST CALLVALUE DUP1 ISZERO PUSH2 0x1C2 JUMPI PUSH1 0x0 DUP1 REVERT JUMPDEST POP PUSH2 0x1CB PUSH2 0x503 JUMP JUMPDEST STOP JUMPDEST PUSH2 0x1D5 PUSH2 0x50C JUMP JUMPDEST STOP JUMPDEST PUSH1 0x0 NUMBER PUSH1 0x4 SLOAD PUSH2 0x1E7 SWAP2 SWAP1 PUSH2 0x99F JUMP JUMPDEST SWAP1 POP SWAP1 JUMP JUMPDEST PUSH1 0x6 PUSH1 0x0 SWAP1 SLOAD SWAP1 PUSH2 0x100 EXP SWAP1 DIV PUSH20 0xFFFFFFFFFFFFFFFFFFFFFFFFFFFFFFFFFFFFFFFF AND DUP2 JUMP JUMPDEST PUSH1 0x60 PUSH32 0x248D3BFDDF405C2684A91805207544032CCD269D9D54219DA4AC941585D609C PUSH1 0x8 PUSH1 0x1 PUSH1 0x8 DUP1 SLOAD SWAP1 POP PUSH2 0x249 SWAP2 SWAP1 PUSH2 0x99F JUMP JUMPDEST DUP2 SLOAD DUP2 LT PUSH2 0x25A JUMPI PUSH2 0x259 PUSH2 0x9D3 JUMP JUMPDEST JUMPDEST SWAP1 PUSH1 0x0 MSTORE PUSH1 0x20 PUSH1 0x0 KECCAK256 SWAP1 PUSH1 0x2 MUL ADD PUSH1 0x0 ADD PUSH1 0x0 SWAP1 SLOAD SWAP1 PUSH2 0x100 EXP SWAP1 DIV PUSH20 0xFFFFFFFFFFFFFFFFFFFFFFFFFFFFFFFFFFFFFFFF AND PUSH1 0x8 PUSH1 0x1 PUSH1 0x8 DUP1 SLOAD SWAP1 POP PUSH2 0x2A0 SWAP2 SWAP1 PUSH2 0x99F JUMP JUMPDEST DUP2 SLOAD DUP2 LT PUSH2 0x2B1 JUMPI PUSH2 0x2B0 PUSH2 0x9D3 JUMP JUMPDEST JUMPDEST SWAP1 PUSH1 0x0 MSTORE PUSH1 0x20 PUSH1 0x0 KECCAK256 SWAP1 PUSH1 0x2 MUL ADD PUSH1 0x1 ADD SLOAD PUSH1 0x40 MLOAD PUSH2 0x2D1 SWAP3 SWAP2 SWAP1 PUSH2 0xA23 JUMP JUMPDEST PUSH1 0x40 MLOAD DUP1 SWAP2 SUB SWAP1 LOG1 PUSH1 0x40 MLOAD DUP1 PUSH1 0x20 ADD PUSH1 0x40 MSTORE DUP1 PUSH1 0x0 DUP2 MSTORE POP SWAP1 POP SWAP1 JUMP JUMPDEST DUP1 PUSH1 0x1 SLOAD DUP2 GT PUSH2 0x333 JUMPI PUSH1 0x40 MLOAD PUSH32 0x8C379A000000000000000000000000000000000000000000000000000000000 DUP2 MSTORE PUSH1 0x4 ADD PUSH2 0x32A SWAP1 PUSH2 0xA98 JUMP JUMPDEST PUSH1 0x40 MLOAD DUP1 SWAP2 SUB SWAP1 REVERT JUMPDEST PUSH2 0x33B PUSH2 0x4F6 JUMP JUMPDEST ISZERO PUSH2 0x37B JUMPI PUSH1 0x40 MLOAD PUSH32 0x8C379A000000000000000000000000000000000000000000000000000000000 DUP2 MSTORE PUSH1 0x4 ADD PUSH2 0x372 SWAP1 PUSH2 0xB04 JUMP JUMPDEST PUSH1 0x40 MLOAD DUP1 SWAP2 SUB SWAP1 REVERT JUMPDEST CALLER PUSH20 0xFFFFFFFFFFFFFFFFFFFFFFFFFFFFFFFFFFFFFFFF AND BALANCE DUP3 LT PUSH2 0x3D4 JUMPI PUSH1 0x40 MLOAD PUSH32 0x8C379A000000000000000000000000000000000000000000000000000000000 DUP2 MSTORE PUSH1 0x4 ADD PUSH2 0x3CB SWAP1 PUSH2 0xB70 JUMP JUMPDEST PUSH1 0x40 MLOAD DUP1 SWAP2 SUB SWAP1 REVERT JUMPDEST PUSH1 0x0 PUSH1 0x4 PUSH1 0x0 DUP3 DUP3 SLOAD PUSH2 0x3E7 SWAP2 SWAP1 PUSH2 0xB90 JUMP JUMPDEST SWAP3 POP POP DUP2 SWAP1 SSTORE POP DUP2 PUSH1 0x1 DUP2 SWAP1 SSTORE POP PUSH1 0x8 PUSH1 0x40 MLOAD DUP1 PUSH1 0x40 ADD PUSH1 0x40 MSTORE DUP1 CALLER PUSH20 0xFFFFFFFFFFFFFFFFFFFFFFFFFFFFFFFFFFFFFFFF AND DUP2 MSTORE PUSH1 0x20 ADD DUP5 DUP2 MSTORE POP SWAP1 DUP1 PUSH1 0x1 DUP2 SLOAD ADD DUP1 DUP3 SSTORE DUP1 SWAP2 POP POP PUSH1 0x1 SWAP1 SUB SWAP1 PUSH1 0x0 MSTORE PUSH1 0x20 PUSH1 0x0 KECCAK256 SWAP1 PUSH1 0x2 MUL ADD PUSH1 0x0 SWAP1 SWAP2 SWAP1 SWAP2 SWAP1 SWAP2 POP PUSH1 0x0 DUP3 ADD MLOAD DUP2 PUSH1 0x0 ADD PUSH1 0x0 PUSH2 0x100 EXP DUP2 SLOAD DUP2 PUSH20 0xFFFFFFFFFFFFFFFFFFFFFFFFFFFFFFFFFFFFFFFF MUL NOT AND SWAP1 DUP4 PUSH20 0xFFFFFFFFFFFFFFFFFFFFFFFFFFFFFFFFFFFFFFFF AND MUL OR SWAP1 SSTORE POP PUSH1 0x20 DUP3 ADD MLOAD DUP2 PUSH1 0x1 ADD SSTORE POP POP PUSH32 0x43AD5CAA51C726FDE88B9A8754205F6F718737DF0C9D5D4BD55B17E2847DAEF4 PUSH1 0x1 SLOAD PUSH1 0x1 SLOAD PUSH1 0x8 PUSH1 0x40 MLOAD PUSH2 0x4D6 SWAP4 SWAP3 SWAP2 SWAP1 PUSH2 0xD69 JUMP JUMPDEST PUSH1 0x40 MLOAD DUP1 SWAP2 SUB SWAP1 LOG1 POP POP JUMP JUMPDEST PUSH1 0x7 SLOAD DUP2 JUMP JUMPDEST PUSH1 0x0 DUP1 PUSH1 0x0 SWAP1 POP DUP1 SWAP2 POP POP SWAP1 JUMP JUMPDEST PUSH1 0x0 NUMBER PUSH1 0x4 SLOAD GT ISZERO SWAP1 POP SWAP1 JUMP JUMPDEST NUMBER PUSH1 0x4 DUP2 SWAP1 SSTORE POP JUMP JUMPDEST PUSH1 0x0 DUP1 SLOAD SWAP1 PUSH2 0x100 EXP SWAP1 DIV PUSH20 0xFFFFFFFFFFFFFFFFFFFFFFFFFFFFFFFFFFFFFFFF AND PUSH20 0xFFFFFFFFFFFFFFFFFFFFFFFFFFFFFFFFFFFFFFFF AND CALLER PUSH20 0xFFFFFFFFFFFFFFFFFFFFFFFFFFFFFFFFFFFFFFFF AND EQ PUSH2 0x59A JUMPI PUSH1 0x40 MLOAD PUSH32 0x8C379A000000000000000000000000000000000000000000000000000000000 DUP2 MSTORE PUSH1 0x4 ADD PUSH2 0x591 SWAP1 PUSH2 0xDF3 JUMP JUMPDEST PUSH1 0x40 MLOAD DUP1 SWAP2 SUB SWAP1 REVERT JUMPDEST PUSH2 0x5A2 PUSH2 0x4F6 JUMP JUMPDEST PUSH2 0x5E1 JUMPI PUSH1 0x40 MLOAD PUSH32 0x8C379A000000000000000000000000000000000000000000000000000000000 DUP2 MSTORE PUSH1 0x4 ADD PUSH2 0x5D8 SWAP1 PUSH2 0xE5F JUMP JUMPDEST PUSH1 0x40 MLOAD DUP1 SWAP2 SUB SWAP1 REVERT JUMPDEST PUSH1 0x6 PUSH1 0x0 SWAP1 SLOAD SWAP1 PUSH2 0x100 EXP SWAP1 DIV PUSH20 0xFFFFFFFFFFFFFFFFFFFFFFFFFFFFFFFFFFFFFFFF AND PUSH20 0xFFFFFFFFFFFFFFFFFFFFFFFFFFFFFFFFFFFFFFFF AND PUSH4 0x42842E0E PUSH1 0x0 DUP1 SLOAD SWAP1 PUSH2 0x100 EXP SWAP1 DIV PUSH20 0xFFFFFFFFFFFFFFFFFFFFFFFFFFFFFFFFFFFFFFFF AND PUSH1 0x8 PUSH1 0x1 PUSH1 0x8 DUP1 SLOAD SWAP1 POP PUSH2 0x654 SWAP2 SWAP1 PUSH2 0x99F JUMP JUMPDEST DUP2 SLOAD DUP2 LT PUSH2 0x665 JUMPI PUSH2 0x664 PUSH2 0x9D3 JUMP JUMPDEST JUMPDEST SWAP1 PUSH1 0x0 MSTORE PUSH1 0x20 PUSH1 0x0 KECCAK256 SWAP1 PUSH1 0x2 MUL ADD PUSH1 0x0 ADD PUSH1 0x0 SWAP1 SLOAD SWAP1 PUSH2 0x100 EXP SWAP1 DIV PUSH20 0xFFFFFFFFFFFFFFFFFFFFFFFFFFFFFFFFFFFFFFFF AND PUSH1 0x5 SLOAD PUSH1 0x40 MLOAD DUP5 PUSH4 0xFFFFFFFF AND PUSH1 0xE0 SHL DUP2 MSTORE PUSH1 0x4 ADD PUSH2 0x6B8 SWAP4 SWAP3 SWAP2 SWAP1 PUSH2 0xEA0 JUMP JUMPDEST PUSH1 0x0 PUSH1 0x40 MLOAD DUP1 DUP4 SUB DUP2 PUSH1 0x0 DUP8 DUP1 EXTCODESIZE ISZERO DUP1 ISZERO PUSH2 0x6D2 JUMPI PUSH1 0x0 DUP1 REVERT JUMPDEST POP GAS CALL ISZERO DUP1 ISZERO PUSH2 0x6E6 JUMPI RETURNDATASIZE PUSH1 0x0 DUP1 RETURNDATACOPY RETURNDATASIZE PUSH1 0x0 REVERT JUMPDEST POP POP POP POP PUSH1 0x0 DUP1 SLOAD SWAP1 PUSH2 0x100 EXP SWAP1 DIV PUSH20 0xFFFFFFFFFFFFFFFFFFFFFFFFFFFFFFFFFFFFFFFF AND PUSH20 0xFFFFFFFFFFFFFFFFFFFFFFFFFFFFFFFFFFFFFFFF AND PUSH2 0x8FC CALLVALUE SWAP1 DUP2 ISZERO MUL SWAP1 PUSH1 0x40 MLOAD PUSH1 0x0 PUSH1 0x40 MLOAD DUP1 DUP4 SUB DUP2 DUP6 DUP9 DUP9 CALL SWAP4 POP POP POP POP ISZERO DUP1 ISZERO PUSH2 0x750 JUMPI RETURNDATASIZE PUSH1 0x0 DUP1 RETURNDATACOPY RETURNDATASIZE PUSH1 0x0 REVERT JUMPDEST POP JUMP JUMPDEST PUSH1 0x0 DUP2 SWAP1 POP SWAP2 SWAP1 POP JUMP JUMPDEST PUSH2 0x766 DUP2 PUSH2 0x753 JUMP JUMPDEST DUP3 MSTORE POP POP JUMP JUMPDEST PUSH1 0x0 PUSH1 0x20 DUP3 ADD SWAP1 POP PUSH2 0x781 PUSH1 0x0 DUP4 ADD DUP5 PUSH2 0x75D JUMP JUMPDEST SWAP3 SWAP2 POP POP JUMP JUMPDEST PUSH1 0x0 PUSH20 0xFFFFFFFFFFFFFFFFFFFFFFFFFFFFFFFFFFFFFFFF DUP3 AND SWAP1 POP SWAP2 SWAP1 POP JUMP JUMPDEST PUSH1 0x0 DUP2 SWAP1 POP SWAP2 SWAP1 POP JUMP JUMPDEST PUSH1 0x0 PUSH2 0x7CC PUSH2 0x7C7 PUSH2 0x7C2 DUP5 PUSH2 0x787 JUMP JUMPDEST PUSH2 0x7A7 JUMP JUMPDEST PUSH2 0x787 JUMP JUMPDEST SWAP1 POP SWAP2 SWAP1 POP JUMP JUMPDEST PUSH1 0x0 PUSH2 0x7DE DUP3 PUSH2 0x7B1 JUMP JUMPDEST SWAP1 POP SWAP2 SWAP1 POP JUMP JUMPDEST PUSH1 0x0 PUSH2 0x7F0 DUP3 PUSH2 0x7D3 JUMP JUMPDEST SWAP1 POP SWAP2 SWAP1 POP JUMP JUMPDEST PUSH2 0x800 DUP2 PUSH2 0x7E5 JUMP JUMPDEST DUP3 MSTORE POP POP JUMP JUMPDEST PUSH1 0x0 PUSH1 0x20 DUP3 ADD SWAP1 POP PUSH2 0x81B PUSH1 0x0 DUP4 ADD DUP5 PUSH2 0x7F7 JUMP JUMPDEST SWAP3 SWAP2 POP POP JUMP JUMPDEST PUSH1 0x0 DUP2 MLOAD SWAP1 POP SWAP2 SWAP1 POP JUMP JUMPDEST PUSH1 0x0 DUP3 DUP3 MSTORE PUSH1 0x20 DUP3 ADD SWAP1 POP SWAP3 SWAP2 POP POP JUMP JUMPDEST PUSH1 0x0 JUMPDEST DUP4 DUP2 LT ISZERO PUSH2 0x85B JUMPI DUP1 DUP3 ADD MLOAD DUP2 DUP5 ADD MSTORE PUSH1 0x20 DUP2 ADD SWAP1 POP PUSH2 0x840 JUMP JUMPDEST DUP4 DUP2 GT ISZERO PUSH2 0x86A JUMPI PUSH1 0x0 DUP5 DUP5 ADD MSTORE JUMPDEST POP POP POP POP JUMP JUMPDEST PUSH1 0x0 PUSH1 0x1F NOT PUSH1 0x1F DUP4 ADD AND SWAP1 POP SWAP2 SWAP1 POP JUMP JUMPDEST PUSH1 0x0 PUSH2 0x88C DUP3 PUSH2 0x821 JUMP JUMPDEST PUSH2 0x896 DUP2 DUP6 PUSH2 0x82C JUMP JUMPDEST SWAP4 POP PUSH2 0x8A6 DUP2 DUP6 PUSH1 0x20 DUP7 ADD PUSH2 0x83D JUMP JUMPDEST PUSH2 0x8AF DUP2 PUSH2 0x870 JUMP JUMPDEST DUP5 ADD SWAP2 POP POP SWAP3 SWAP2 POP POP JUMP JUMPDEST PUSH1 0x0 PUSH1 0x20 DUP3 ADD SWAP1 POP DUP2 DUP2 SUB PUSH1 0x0 DUP4 ADD MSTORE PUSH2 0x8D4 DUP2 DUP5 PUSH2 0x881 JUMP JUMPDEST SWAP1 POP SWAP3 SWAP2 POP POP JUMP JUMPDEST PUSH1 0x0 DUP1 REVERT JUMPDEST PUSH2 0x8EA DUP2 PUSH2 0x753 JUMP JUMPDEST DUP2 EQ PUSH2 0x8F5 JUMPI PUSH1 0x0 DUP1 REVERT JUMPDEST POP JUMP JUMPDEST PUSH1 0x0 DUP2 CALLDATALOAD SWAP1 POP PUSH2 0x907 DUP2 PUSH2 0x8E1 JUMP JUMPDEST SWAP3 SWAP2 POP POP JUMP JUMPDEST PUSH1 0x0 PUSH1 0x20 DUP3 DUP5 SUB SLT ISZERO PUSH2 0x923 JUMPI PUSH2 0x922 PUSH2 0x8DC JUMP JUMPDEST JUMPDEST PUSH1 0x0 PUSH2 0x931 DUP5 DUP3 DUP6 ADD PUSH2 0x8F8 JUMP JUMPDEST SWAP2 POP POP SWAP3 SWAP2 POP POP JUMP JUMPDEST PUSH1 0x0 DUP2 ISZERO ISZERO SWAP1 POP SWAP2 SWAP1 POP JUMP JUMPDEST PUSH2 0x94F DUP2 PUSH2 0x93A JUMP JUMPDEST DUP3 MSTORE POP POP JUMP JUMPDEST PUSH1 0x0 PUSH1 0x20 DUP3 ADD SWAP1 POP PUSH2 0x96A PUSH1 0x0 DUP4 ADD DUP5 PUSH2 0x946 JUMP JUMPDEST SWAP3 SWAP2 POP POP JUMP JUMPDEST PUSH32 0x4E487B7100000000000000000000000000000000000000000000000000000000 PUSH1 0x0 MSTORE PUSH1 0x11 PUSH1 0x4 MSTORE PUSH1 0x24 PUSH1 0x0 REVERT JUMPDEST PUSH1 0x0 PUSH2 0x9AA DUP3 PUSH2 0x753 JUMP JUMPDEST SWAP2 POP PUSH2 0x9B5 DUP4 PUSH2 0x753 JUMP JUMPDEST SWAP3 POP DUP3 DUP3 LT ISZERO PUSH2 0x9C8 JUMPI PUSH2 0x9C7 PUSH2 0x970 JUMP JUMPDEST JUMPDEST DUP3 DUP3 SUB SWAP1 POP SWAP3 SWAP2 POP POP JUMP JUMPDEST PUSH32 0x4E487B7100000000000000000000000000000000000000000000000000000000 PUSH1 0x0 MSTORE PUSH1 0x32 PUSH1 0x4 MSTORE PUSH1 0x24 PUSH1 0x0 REVERT JUMPDEST PUSH1 0x0 PUSH2 0xA0D DUP3 PUSH2 0x787 JUMP JUMPDEST SWAP1 POP SWAP2 SWAP1 POP JUMP JUMPDEST PUSH2 0xA1D DUP2 PUSH2 0xA02 JUMP JUMPDEST DUP3 MSTORE POP POP JUMP JUMPDEST PUSH1 0x0 PUSH1 0x40 DUP3 ADD SWAP1 POP PUSH2 0xA38 PUSH1 0x0 DUP4 ADD DUP6 PUSH2 0xA14 JUMP JUMPDEST PUSH2 0xA45 PUSH1 0x20 DUP4 ADD DUP5 PUSH2 0x75D JUMP JUMPDEST SWAP4 SWAP3 POP POP POP JUMP JUMPDEST PUSH32 0x62696420746F6F206C6F77000000000000000000000000000000000000000000 PUSH1 0x0 DUP3 ADD MSTORE POP JUMP JUMPDEST PUSH1 0x0 PUSH2 0xA82 PUSH1 0xB DUP4 PUSH2 0x82C JUMP JUMPDEST SWAP2 POP PUSH2 0xA8D DUP3 PUSH2 0xA4C JUMP JUMPDEST PUSH1 0x20 DUP3 ADD SWAP1 POP SWAP2 SWAP1 POP JUMP JUMPDEST PUSH1 0x0 PUSH1 0x20 DUP3 ADD SWAP1 POP DUP2 DUP2 SUB PUSH1 0x0 DUP4 ADD MSTORE PUSH2 0xAB1 DUP2 PUSH2 0xA75 JUMP JUMPDEST SWAP1 POP SWAP2 SWAP1 POP JUMP JUMPDEST PUSH32 0x61756374696F6E20697320616C7265616479206F766572000000000000000000 PUSH1 0x0 DUP3 ADD MSTORE POP JUMP JUMPDEST PUSH1 0x0 PUSH2 0xAEE PUSH1 0x17 DUP4 PUSH2 0x82C JUMP JUMPDEST SWAP2 POP PUSH2 0xAF9 DUP3 PUSH2 0xAB8 JUMP JUMPDEST PUSH1 0x20 DUP3 ADD SWAP1 POP SWAP2 SWAP1 POP JUMP JUMPDEST PUSH1 0x0 PUSH1 0x20 DUP3 ADD SWAP1 POP DUP2 DUP2 SUB PUSH1 0x0 DUP4 ADD MSTORE PUSH2 0xB1D DUP2 PUSH2 0xAE1 JUMP JUMPDEST SWAP1 POP SWAP2 SWAP1 POP JUMP JUMPDEST PUSH32 0x62616C616E636520746F6F206C6F772075722062726F6B65206C6F6C00000000 PUSH1 0x0 DUP3 ADD MSTORE POP JUMP JUMPDEST PUSH1 0x0 PUSH2 0xB5A PUSH1 0x1C DUP4 PUSH2 0x82C JUMP JUMPDEST SWAP2 POP PUSH2 0xB65 DUP3 PUSH2 0xB24 JUMP JUMPDEST PUSH1 0x20 DUP3 ADD SWAP1 POP SWAP2 SWAP1 POP JUMP JUMPDEST PUSH1 0x0 PUSH1 0x20 DUP3 ADD SWAP1 POP DUP2 DUP2 SUB PUSH1 0x0 DUP4 ADD MSTORE PUSH2 0xB89 DUP2 PUSH2 0xB4D JUMP JUMPDEST SWAP1 POP SWAP2 SWAP1 POP JUMP JUMPDEST PUSH1 0x0 PUSH2 0xB9B DUP3 PUSH2 0x753 JUMP JUMPDEST SWAP2 POP PUSH2 0xBA6 DUP4 PUSH2 0x753 JUMP JUMPDEST SWAP3 POP DUP3 PUSH32 0xFFFFFFFFFFFFFFFFFFFFFFFFFFFFFFFFFFFFFFFFFFFFFFFFFFFFFFFFFFFFFFFF SUB DUP3 GT ISZERO PUSH2 0xBDB JUMPI PUSH2 0xBDA PUSH2 0x970 JUMP JUMPDEST JUMPDEST DUP3 DUP3 ADD SWAP1 POP SWAP3 SWAP2 POP POP JUMP JUMPDEST PUSH1 0x0 DUP2 SLOAD SWAP1 POP SWAP2 SWAP1 POP JUMP JUMPDEST PUSH1 0x0 DUP3 DUP3 MSTORE PUSH1 0x20 DUP3 ADD SWAP1 POP SWAP3 SWAP2 POP POP JUMP JUMPDEST PUSH1 0x0 DUP2 SWAP1 POP DUP2 PUSH1 0x0 MSTORE PUSH1 0x20 PUSH1 0x0 KECCAK256 SWAP1 POP SWAP2 SWAP1 POP JUMP JUMPDEST PUSH1 0x0 DUP2 PUSH1 0x0 SHR SWAP1 POP SWAP2 SWAP1 POP JUMP JUMPDEST PUSH1 0x0 PUSH20 0xFFFFFFFFFFFFFFFFFFFFFFFFFFFFFFFFFFFFFFFF DUP3 AND SWAP1 POP SWAP2 SWAP1 POP JUMP JUMPDEST PUSH1 0x0 PUSH2 0xC57 PUSH2 0xC52 DUP4 PUSH2 0xC17 JUMP JUMPDEST PUSH2 0xC24 JUMP JUMPDEST SWAP1 POP SWAP2 SWAP1 POP JUMP JUMPDEST PUSH2 0xC67 DUP2 PUSH2 0xA02 JUMP JUMPDEST DUP3 MSTORE POP POP JUMP JUMPDEST PUSH1 0x0 DUP2 SWAP1 POP SWAP2 SWAP1 POP JUMP JUMPDEST PUSH1 0x0 PUSH2 0xC8A PUSH2 0xC85 DUP4 PUSH2 0xC17 JUMP JUMPDEST PUSH2 0xC6D JUMP JUMPDEST SWAP1 POP SWAP2 SWAP1 POP JUMP JUMPDEST PUSH2 0xC9A DUP2 PUSH2 0x753 JUMP JUMPDEST DUP3 MSTORE POP POP JUMP JUMPDEST PUSH1 0x40 DUP3 ADD PUSH1 0x0 DUP1 DUP4 ADD SLOAD SWAP1 POP PUSH2 0xCB5 DUP2 PUSH2 0xC44 JUMP JUMPDEST PUSH2 0xCC2 PUSH1 0x0 DUP7 ADD DUP3 PUSH2 0xC5E JUMP JUMPDEST POP PUSH1 0x1 DUP4 ADD SLOAD SWAP1 POP PUSH2 0xCD3 DUP2 PUSH2 0xC77 JUMP JUMPDEST PUSH2 0xCE0 PUSH1 0x20 DUP7 ADD DUP3 PUSH2 0xC91 JUMP JUMPDEST POP POP POP POP POP JUMP JUMPDEST PUSH1 0x0 PUSH2 0xCF3 DUP4 DUP4 PUSH2 0xCA0 JUMP JUMPDEST PUSH1 0x40 DUP4 ADD SWAP1 POP SWAP3 SWAP2 POP POP JUMP JUMPDEST PUSH1 0x0 PUSH1 0x2 DUP3 ADD SWAP1 POP SWAP2 SWAP1 POP JUMP JUMPDEST PUSH1 0x0 PUSH2 0xD17 DUP3 PUSH2 0xBE6 JUMP JUMPDEST PUSH2 0xD21 DUP2 DUP6 PUSH2 0xBF1 JUMP JUMPDEST SWAP4 POP PUSH2 0xD2C DUP4 PUSH2 0xC02 JUMP JUMPDEST DUP1 PUSH1 0x0 JUMPDEST DUP4 DUP2 LT ISZERO PUSH2 0xD5C JUMPI DUP2 PUSH2 0xD43 DUP9 DUP3 PUSH2 0xCE7 JUMP JUMPDEST SWAP8 POP PUSH2 0xD4E DUP4 PUSH2 0xCFF JUMP JUMPDEST SWAP3 POP POP PUSH1 0x1 DUP2 ADD SWAP1 POP PUSH2 0xD30 JUMP JUMPDEST POP DUP6 SWAP4 POP POP POP POP SWAP3 SWAP2 POP POP JUMP JUMPDEST PUSH1 0x0 PUSH1 0x60 DUP3 ADD SWAP1 POP PUSH2 0xD7E PUSH1 0x0 DUP4 ADD DUP7 PUSH2 0x75D JUMP JUMPDEST PUSH2 0xD8B PUSH1 0x20 DUP4 ADD DUP6 PUSH2 0x75D JUMP JUMPDEST DUP2 DUP2 SUB PUSH1 0x40 DUP4 ADD MSTORE PUSH2 0xD9D DUP2 DUP5 PUSH2 0xD0C JUMP JUMPDEST SWAP1 POP SWAP5 SWAP4 POP POP POP POP JUMP JUMPDEST PUSH32 0x4E6F74206F776E65720000000000000000000000000000000000000000000000 PUSH1 0x0 DUP3 ADD MSTORE POP JUMP JUMPDEST PUSH1 0x0 PUSH2 0xDDD PUSH1 0x9 DUP4 PUSH2 0x82C JUMP JUMPDEST SWAP2 POP PUSH2 0xDE8 DUP3 PUSH2 0xDA7 JUMP JUMPDEST PUSH1 0x20 DUP3 ADD SWAP1 POP SWAP2 SWAP1 POP JUMP JUMPDEST PUSH1 0x0 PUSH1 0x20 DUP3 ADD SWAP1 POP DUP2 DUP2 SUB PUSH1 0x0 DUP4 ADD MSTORE PUSH2 0xE0C DUP2 PUSH2 0xDD0 JUMP JUMPDEST SWAP1 POP SWAP2 SWAP1 POP JUMP JUMPDEST PUSH32 0x61756374696F6E206861736E277420656E646564000000000000000000000000 PUSH1 0x0 DUP3 ADD MSTORE POP JUMP JUMPDEST PUSH1 0x0 PUSH2 0xE49 PUSH1 0x14 DUP4 PUSH2 0x82C JUMP JUMPDEST SWAP2 POP PUSH2 0xE54 DUP3 PUSH2 0xE13 JUMP JUMPDEST PUSH1 0x20 DUP3 ADD SWAP1 POP SWAP2 SWAP1 POP JUMP JUMPDEST PUSH1 0x0 PUSH1 0x20 DUP3 ADD SWAP1 POP DUP2 DUP2 SUB PUSH1 0x0 DUP4 ADD MSTORE PUSH2 0xE78 DUP2 PUSH2 0xE3C JUMP JUMPDEST SWAP1 POP SWAP2 SWAP1 POP JUMP JUMPDEST PUSH1 0x0 PUSH2 0xE8A DUP3 PUSH2 0x7D3 JUMP JUMPDEST SWAP1 POP SWAP2 SWAP1 POP JUMP JUMPDEST PUSH2 0xE9A DUP2 PUSH2 0xE7F JUMP JUMPDEST DUP3 MSTORE POP POP JUMP JUMPDEST PUSH1 0x0 PUSH1 0x60 DUP3 ADD SWAP1 POP PUSH2 0xEB5 PUSH1 0x0 DUP4 ADD DUP7 PUSH2 0xE91 JUMP JUMPDEST PUSH2 0xEC2 PUSH1 0x20 DUP4 ADD DUP6 PUSH2 0xA14 JUMP JUMPDEST PUSH2 0xECF PUSH1 0x40 DUP4 ADD DUP5 PUSH2 0x75D JUMP JUMPDEST SWAP5 SWAP4 POP POP POP POP JUMP INVALID LOG2 PUSH5 0x6970667358 0x22 SLT KECCAK256 PUSH23 0x99B3B3E7995AA8CD67A8ACDB5F4CCB33291DE88E01B9C1 PUSH5 0x73E065C5F8 NUMBER DUP3 PUSH5 0x736F6C6343 STOP ADDMOD MULMOD STOP CALLER "
		},
		"gasEstimates": {
			"creation": {
				"codeDepositCost": "770600",
				"executionCost": "infinite",
				"totalCost": "infinite"
			},
			"external": {
				"aucEnding()": "2495",
				"countWords()": "372",
				"endAuction()": "infinite",
				"forceEndAuction()": "22323",
				"latestBid()": "infinite",
				"nft()": "infinite",
				"nftId()": "2429",
				"timeLeft()": "infinite",
				"updateBiddingPrice(uint256)": "infinite"
			}
		},
		"methodIdentifiers": {
			"aucEnding()": "e5422944",
			"countWords()": "d4d33a6f",
			"endAuction()": "fe67a54b",
			"forceEndAuction()": "fd3b5a69",
			"latestBid()": "5dd672ec",
			"nft()": "47ccca02",
			"nftId()": "c6bc5182",
			"timeLeft()": "1300a6d1",
			"updateBiddingPrice(uint256)": "9f2d6b45"
		}
	},
	"abi": [
		{
			"inputs": [
				{
					"internalType": "address",
					"name": "_nftaddress",
					"type": "address"
				},
				{
					"internalType": "uint256",
					"name": "_nftId",
					"type": "uint256"
				},
				{
					"internalType": "string",
					"name": "_desc",
					"type": "string"
				}
			],
			"stateMutability": "nonpayable",
			"type": "constructor"
		},
		{
			"anonymous": false,
			"inputs": [
				{
					"indexed": false,
					"internalType": "uint256",
					"name": "price",
					"type": "uint256"
				},
				{
					"indexed": false,
					"internalType": "uint256",
					"name": "auctionEnd",
					"type": "uint256"
				},
				{
					"components": [
						{
							"internalType": "address",
							"name": "addr",
							"type": "address"
						},
						{
							"internalType": "uint256",
							"name": "price",
							"type": "uint256"
						}
					],
					"indexed": false,
					"internalType": "struct Auction.Bid[]",
					"name": "history",
					"type": "tuple[]"
				}
			],
			"name": "bidUpdated",
			"type": "event"
		},
		{
			"anonymous": false,
			"inputs": [
				{
					"indexed": false,
					"internalType": "address",
					"name": "_address",
					"type": "address"
				},
				{
					"indexed": false,
					"internalType": "uint256",
					"name": "price",
					"type": "uint256"
				}
			],
			"name": "latest",
			"type": "event"
		},
		{
			"inputs": [],
			"name": "aucEnding",
			"outputs": [
				{
					"internalType": "bool",
					"name": "",
					"type": "bool"
				}
			],
			"stateMutability": "view",
			"type": "function"
		},
		{
			"inputs": [],
			"name": "countWords",
			"outputs": [
				{
					"internalType": "uint256",
					"name": "",
					"type": "uint256"
				}
			],
			"stateMutability": "pure",
			"type": "function"
		},
		{
			"inputs": [],
			"name": "endAuction",
			"outputs": [],
			"stateMutability": "payable",
			"type": "function"
		},
		{
			"inputs": [],
			"name": "forceEndAuction",
			"outputs": [],
			"stateMutability": "nonpayable",
			"type": "function"
		},
		{
			"inputs": [],
			"name": "latestBid",
			"outputs": [
				{
					"internalType": "string",
					"name": "",
					"type": "string"
				}
			],
			"stateMutability": "nonpayable",
			"type": "function"
		},
		{
			"inputs": [],
			"name": "nft",
			"outputs": [
				{
					"internalType": "contract IERC721",
					"name": "",
					"type": "address"
				}
			],
			"stateMutability": "view",
			"type": "function"
		},
		{
			"inputs": [],
			"name": "nftId",
			"outputs": [
				{
					"internalType": "uint256",
					"name": "",
					"type": "uint256"
				}
			],
			"stateMutability": "view",
			"type": "function"
		},
		{
			"inputs": [],
			"name": "timeLeft",
			"outputs": [
				{
					"internalType": "uint256",
					"name": "",
					"type": "uint256"
				}
			],
			"stateMutability": "view",
			"type": "function"
		},
		{
			"inputs": [
				{
					"internalType": "uint256",
					"name": "bid",
					"type": "uint256"
				}
			],
			"name": "updateBiddingPrice",
			"outputs": [],
			"stateMutability": "nonpayable",
			"type": "function"
		}
	]
}