{
	"data": {
		"bytecode": {
			"linkReferences": {},
			"object": "6080604052348015600f57600080fd5b5060878061001e6000396000f3fe6080604052348015600f57600080fd5b506004361060325760003560e01c806346297c1b146037578063e2096cd614603f575b600080fd5b603d6047565b005b6045604f565b005b604d604f565b565b56fea2646970667358221220fbc4cff8adf4c6b7716f1dc45a56cf176489f22cee5f0a329c926102fd884b3364736f6c63430008090033",
			"opcodes": "PUSH1 0x80 PUSH1 0x40 MSTORE CALLVALUE DUP1 ISZERO PUSH1 0xF JUMPI PUSH1 0x0 DUP1 REVERT JUMPDEST POP PUSH1 0x87 DUP1 PUSH2 0x1E PUSH1 0x0 CODECOPY PUSH1 0x0 RETURN INVALID PUSH1 0x80 PUSH1 0x40 MSTORE CALLVALUE DUP1 ISZERO PUSH1 0xF JUMPI PUSH1 0x0 DUP1 REVERT JUMPDEST POP PUSH1 0x4 CALLDATASIZE LT PUSH1 0x32 JUMPI PUSH1 0x0 CALLDATALOAD PUSH1 0xE0 SHR DUP1 PUSH4 0x46297C1B EQ PUSH1 0x37 JUMPI DUP1 PUSH4 0xE2096CD6 EQ PUSH1 0x3F JUMPI JUMPDEST PUSH1 0x0 DUP1 REVERT JUMPDEST PUSH1 0x3D PUSH1 0x47 JUMP JUMPDEST STOP JUMPDEST PUSH1 0x45 PUSH1 0x4F JUMP JUMPDEST STOP JUMPDEST PUSH1 0x4D PUSH1 0x4F JUMP JUMPDEST JUMP JUMPDEST JUMP INVALID LOG2 PUSH5 0x6970667358 0x22 SLT KECCAK256 0xFB 0xC4 0xCF 0xF8 0xAD DELEGATECALL 0xC6 0xB7 PUSH18 0x6F1DC45A56CF176489F22CEE5F0A329C9261 MUL REVERT DUP9 0x4B CALLER PUSH5 0x736F6C6343 STOP ADDMOD MULMOD STOP CALLER "
		},
		"gasEstimates": {
			"creation": {
				"codeDepositCost": "27000",
				"executionCost": "81",
				"totalCost": "27081"
			},
			"external": {
				"checkAucTime()": "144",
				"updateBiddingPrice()": "146"
			}
		},
		"methodIdentifiers": {
			"checkAucTime()": "e2096cd6",
			"updateBiddingPrice()": "46297c1b"
		}
	},
	"abi": [
		{
			"inputs": [],
			"name": "checkAucTime",
			"outputs": [],
			"stateMutability": "view",
			"type": "function"
		},
		{
			"inputs": [],
			"name": "updateBiddingPrice",
			"outputs": [],
			"stateMutability": "nonpayable",
			"type": "function"
		}
	]
}