{
	"data": {
		"bytecode": {
			"linkReferences": {},
			"object": "608060405234801561001057600080fd5b50336000806101000a81548173ffffffffffffffffffffffffffffffffffffffff021916908373ffffffffffffffffffffffffffffffffffffffff16021790555043600281905550618ca060025461006891906100ac565b600381905550610102565b6000819050919050565b7f4e487b7100000000000000000000000000000000000000000000000000000000600052601160045260246000fd5b60006100b782610073565b91506100c283610073565b9250827fffffffffffffffffffffffffffffffffffffffffffffffffffffffffffffffff038211156100f7576100f661007d565b5b828201905092915050565b610605806101116000396000f3fe608060405234801561001057600080fd5b50600436106100415760003560e01c80639f2d6b4514610046578063e542294414610062578063fe67a54b14610080575b600080fd5b610060600480360381019061005b9190610326565b61008a565b005b61006a61023e565b604051610077919061036e565b60405180910390f35b61008861025b565b005b8060015481116100cf576040517f08c379a00000000000000000000000000000000000000000000000000000000081526004016100c6906103e6565b60405180910390fd5b6100d761023e565b15610117576040517f08c379a000000000000000000000000000000000000000000000000000000000815260040161010e90610452565b60405180910390fd5b3373ffffffffffffffffffffffffffffffffffffffff16318210610170576040517f08c379a0000000000000000000000000000000000000000000000000000000008152600401610167906104be565b60405180910390fd5b604560036000828254610183919061050d565b9250508190555081600181905550600560405180604001604052803373ffffffffffffffffffffffffffffffffffffffff16815260200184815250908060018154018082558091505060019003906000526020600020906002020160009091909190915060008201518160000160006101000a81548173ffffffffffffffffffffffffffffffffffffffff021916908373ffffffffffffffffffffffffffffffffffffffff1602179055506020820151816001015550505050565b60004360035414156102535760019050610258565b600090505b90565b60008054906101000a900473ffffffffffffffffffffffffffffffffffffffff1673ffffffffffffffffffffffffffffffffffffffff163373ffffffffffffffffffffffffffffffffffffffff16146102e9576040517f08c379a00000000000000000000000000000000000000000000000000000000081526004016102e0906105af565b60405180910390fd5b565b600080fd5b6000819050919050565b610303816102f0565b811461030e57600080fd5b50565b600081359050610320816102fa565b92915050565b60006020828403121561033c5761033b6102eb565b5b600061034a84828501610311565b91505092915050565b60008115159050919050565b61036881610353565b82525050565b6000602082019050610383600083018461035f565b92915050565b600082825260208201905092915050565b7f62696420746f6f206c6f77000000000000000000000000000000000000000000600082015250565b60006103d0600b83610389565b91506103db8261039a565b602082019050919050565b600060208201905081810360008301526103ff816103c3565b9050919050565b7f61756374696f6e20697320616c7265616479206f766572000000000000000000600082015250565b600061043c601783610389565b915061044782610406565b602082019050919050565b6000602082019050818103600083015261046b8161042f565b9050919050565b7f62616c616e636520746f6f206c6f772075722062726f6b65206c6f6c00000000600082015250565b60006104a8601c83610389565b91506104b382610472565b602082019050919050565b600060208201905081810360008301526104d78161049b565b9050919050565b7f4e487b7100000000000000000000000000000000000000000000000000000000600052601160045260246000fd5b6000610518826102f0565b9150610523836102f0565b9250827fffffffffffffffffffffffffffffffffffffffffffffffffffffffffffffffff03821115610558576105576104de565b5b828201905092915050565b7f4e6f74206f776e65720000000000000000000000000000000000000000000000600082015250565b6000610599600983610389565b91506105a482610563565b602082019050919050565b600060208201905081810360008301526105c88161058c565b905091905056fea2646970667358221220a5a185ee5148969fafe4fcc7452df14a64179d186169f8972778b3c3e1f41b0e64736f6c63430008090033",
			"opcodes": "PUSH1 0x80 PUSH1 0x40 MSTORE CALLVALUE DUP1 ISZERO PUSH2 0x10 JUMPI PUSH1 0x0 DUP1 REVERT JUMPDEST POP CALLER PUSH1 0x0 DUP1 PUSH2 0x100 EXP DUP2 SLOAD DUP2 PUSH20 0xFFFFFFFFFFFFFFFFFFFFFFFFFFFFFFFFFFFFFFFF MUL NOT AND SWAP1 DUP4 PUSH20 0xFFFFFFFFFFFFFFFFFFFFFFFFFFFFFFFFFFFFFFFF AND MUL OR SWAP1 SSTORE POP NUMBER PUSH1 0x2 DUP2 SWAP1 SSTORE POP PUSH2 0x8CA0 PUSH1 0x2 SLOAD PUSH2 0x68 SWAP2 SWAP1 PUSH2 0xAC JUMP JUMPDEST PUSH1 0x3 DUP2 SWAP1 SSTORE POP PUSH2 0x102 JUMP JUMPDEST PUSH1 0x0 DUP2 SWAP1 POP SWAP2 SWAP1 POP JUMP JUMPDEST PUSH32 0x4E487B7100000000000000000000000000000000000000000000000000000000 PUSH1 0x0 MSTORE PUSH1 0x11 PUSH1 0x4 MSTORE PUSH1 0x24 PUSH1 0x0 REVERT JUMPDEST PUSH1 0x0 PUSH2 0xB7 DUP3 PUSH2 0x73 JUMP JUMPDEST SWAP2 POP PUSH2 0xC2 DUP4 PUSH2 0x73 JUMP JUMPDEST SWAP3 POP DUP3 PUSH32 0xFFFFFFFFFFFFFFFFFFFFFFFFFFFFFFFFFFFFFFFFFFFFFFFFFFFFFFFFFFFFFFFF SUB DUP3 GT ISZERO PUSH2 0xF7 JUMPI PUSH2 0xF6 PUSH2 0x7D JUMP JUMPDEST JUMPDEST DUP3 DUP3 ADD SWAP1 POP SWAP3 SWAP2 POP POP JUMP JUMPDEST PUSH2 0x605 DUP1 PUSH2 0x111 PUSH1 0x0 CODECOPY PUSH1 0x0 RETURN INVALID PUSH1 0x80 PUSH1 0x40 MSTORE CALLVALUE DUP1 ISZERO PUSH2 0x10 JUMPI PUSH1 0x0 DUP1 REVERT JUMPDEST POP PUSH1 0x4 CALLDATASIZE LT PUSH2 0x41 JUMPI PUSH1 0x0 CALLDATALOAD PUSH1 0xE0 SHR DUP1 PUSH4 0x9F2D6B45 EQ PUSH2 0x46 JUMPI DUP1 PUSH4 0xE5422944 EQ PUSH2 0x62 JUMPI DUP1 PUSH4 0xFE67A54B EQ PUSH2 0x80 JUMPI JUMPDEST PUSH1 0x0 DUP1 REVERT JUMPDEST PUSH2 0x60 PUSH1 0x4 DUP1 CALLDATASIZE SUB DUP2 ADD SWAP1 PUSH2 0x5B SWAP2 SWAP1 PUSH2 0x326 JUMP JUMPDEST PUSH2 0x8A JUMP JUMPDEST STOP JUMPDEST PUSH2 0x6A PUSH2 0x23E JUMP JUMPDEST PUSH1 0x40 MLOAD PUSH2 0x77 SWAP2 SWAP1 PUSH2 0x36E JUMP JUMPDEST PUSH1 0x40 MLOAD DUP1 SWAP2 SUB SWAP1 RETURN JUMPDEST PUSH2 0x88 PUSH2 0x25B JUMP JUMPDEST STOP JUMPDEST DUP1 PUSH1 0x1 SLOAD DUP2 GT PUSH2 0xCF JUMPI PUSH1 0x40 MLOAD PUSH32 0x8C379A000000000000000000000000000000000000000000000000000000000 DUP2 MSTORE PUSH1 0x4 ADD PUSH2 0xC6 SWAP1 PUSH2 0x3E6 JUMP JUMPDEST PUSH1 0x40 MLOAD DUP1 SWAP2 SUB SWAP1 REVERT JUMPDEST PUSH2 0xD7 PUSH2 0x23E JUMP JUMPDEST ISZERO PUSH2 0x117 JUMPI PUSH1 0x40 MLOAD PUSH32 0x8C379A000000000000000000000000000000000000000000000000000000000 DUP2 MSTORE PUSH1 0x4 ADD PUSH2 0x10E SWAP1 PUSH2 0x452 JUMP JUMPDEST PUSH1 0x40 MLOAD DUP1 SWAP2 SUB SWAP1 REVERT JUMPDEST CALLER PUSH20 0xFFFFFFFFFFFFFFFFFFFFFFFFFFFFFFFFFFFFFFFF AND BALANCE DUP3 LT PUSH2 0x170 JUMPI PUSH1 0x40 MLOAD PUSH32 0x8C379A000000000000000000000000000000000000000000000000000000000 DUP2 MSTORE PUSH1 0x4 ADD PUSH2 0x167 SWAP1 PUSH2 0x4BE JUMP JUMPDEST PUSH1 0x40 MLOAD DUP1 SWAP2 SUB SWAP1 REVERT JUMPDEST PUSH1 0x45 PUSH1 0x3 PUSH1 0x0 DUP3 DUP3 SLOAD PUSH2 0x183 SWAP2 SWAP1 PUSH2 0x50D JUMP JUMPDEST SWAP3 POP POP DUP2 SWAP1 SSTORE POP DUP2 PUSH1 0x1 DUP2 SWAP1 SSTORE POP PUSH1 0x5 PUSH1 0x40 MLOAD DUP1 PUSH1 0x40 ADD PUSH1 0x40 MSTORE DUP1 CALLER PUSH20 0xFFFFFFFFFFFFFFFFFFFFFFFFFFFFFFFFFFFFFFFF AND DUP2 MSTORE PUSH1 0x20 ADD DUP5 DUP2 MSTORE POP SWAP1 DUP1 PUSH1 0x1 DUP2 SLOAD ADD DUP1 DUP3 SSTORE DUP1 SWAP2 POP POP PUSH1 0x1 SWAP1 SUB SWAP1 PUSH1 0x0 MSTORE PUSH1 0x20 PUSH1 0x0 KECCAK256 SWAP1 PUSH1 0x2 MUL ADD PUSH1 0x0 SWAP1 SWAP2 SWAP1 SWAP2 SWAP1 SWAP2 POP PUSH1 0x0 DUP3 ADD MLOAD DUP2 PUSH1 0x0 ADD PUSH1 0x0 PUSH2 0x100 EXP DUP2 SLOAD DUP2 PUSH20 0xFFFFFFFFFFFFFFFFFFFFFFFFFFFFFFFFFFFFFFFF MUL NOT AND SWAP1 DUP4 PUSH20 0xFFFFFFFFFFFFFFFFFFFFFFFFFFFFFFFFFFFFFFFF AND MUL OR SWAP1 SSTORE POP PUSH1 0x20 DUP3 ADD MLOAD DUP2 PUSH1 0x1 ADD SSTORE POP POP POP POP JUMP JUMPDEST PUSH1 0x0 NUMBER PUSH1 0x3 SLOAD EQ ISZERO PUSH2 0x253 JUMPI PUSH1 0x1 SWAP1 POP PUSH2 0x258 JUMP JUMPDEST PUSH1 0x0 SWAP1 POP JUMPDEST SWAP1 JUMP JUMPDEST PUSH1 0x0 DUP1 SLOAD SWAP1 PUSH2 0x100 EXP SWAP1 DIV PUSH20 0xFFFFFFFFFFFFFFFFFFFFFFFFFFFFFFFFFFFFFFFF AND PUSH20 0xFFFFFFFFFFFFFFFFFFFFFFFFFFFFFFFFFFFFFFFF AND CALLER PUSH20 0xFFFFFFFFFFFFFFFFFFFFFFFFFFFFFFFFFFFFFFFF AND EQ PUSH2 0x2E9 JUMPI PUSH1 0x40 MLOAD PUSH32 0x8C379A000000000000000000000000000000000000000000000000000000000 DUP2 MSTORE PUSH1 0x4 ADD PUSH2 0x2E0 SWAP1 PUSH2 0x5AF JUMP JUMPDEST PUSH1 0x40 MLOAD DUP1 SWAP2 SUB SWAP1 REVERT JUMPDEST JUMP JUMPDEST PUSH1 0x0 DUP1 REVERT JUMPDEST PUSH1 0x0 DUP2 SWAP1 POP SWAP2 SWAP1 POP JUMP JUMPDEST PUSH2 0x303 DUP2 PUSH2 0x2F0 JUMP JUMPDEST DUP2 EQ PUSH2 0x30E JUMPI PUSH1 0x0 DUP1 REVERT JUMPDEST POP JUMP JUMPDEST PUSH1 0x0 DUP2 CALLDATALOAD SWAP1 POP PUSH2 0x320 DUP2 PUSH2 0x2FA JUMP JUMPDEST SWAP3 SWAP2 POP POP JUMP JUMPDEST PUSH1 0x0 PUSH1 0x20 DUP3 DUP5 SUB SLT ISZERO PUSH2 0x33C JUMPI PUSH2 0x33B PUSH2 0x2EB JUMP JUMPDEST JUMPDEST PUSH1 0x0 PUSH2 0x34A DUP5 DUP3 DUP6 ADD PUSH2 0x311 JUMP JUMPDEST SWAP2 POP POP SWAP3 SWAP2 POP POP JUMP JUMPDEST PUSH1 0x0 DUP2 ISZERO ISZERO SWAP1 POP SWAP2 SWAP1 POP JUMP JUMPDEST PUSH2 0x368 DUP2 PUSH2 0x353 JUMP JUMPDEST DUP3 MSTORE POP POP JUMP JUMPDEST PUSH1 0x0 PUSH1 0x20 DUP3 ADD SWAP1 POP PUSH2 0x383 PUSH1 0x0 DUP4 ADD DUP5 PUSH2 0x35F JUMP JUMPDEST SWAP3 SWAP2 POP POP JUMP JUMPDEST PUSH1 0x0 DUP3 DUP3 MSTORE PUSH1 0x20 DUP3 ADD SWAP1 POP SWAP3 SWAP2 POP POP JUMP JUMPDEST PUSH32 0x62696420746F6F206C6F77000000000000000000000000000000000000000000 PUSH1 0x0 DUP3 ADD MSTORE POP JUMP JUMPDEST PUSH1 0x0 PUSH2 0x3D0 PUSH1 0xB DUP4 PUSH2 0x389 JUMP JUMPDEST SWAP2 POP PUSH2 0x3DB DUP3 PUSH2 0x39A JUMP JUMPDEST PUSH1 0x20 DUP3 ADD SWAP1 POP SWAP2 SWAP1 POP JUMP JUMPDEST PUSH1 0x0 PUSH1 0x20 DUP3 ADD SWAP1 POP DUP2 DUP2 SUB PUSH1 0x0 DUP4 ADD MSTORE PUSH2 0x3FF DUP2 PUSH2 0x3C3 JUMP JUMPDEST SWAP1 POP SWAP2 SWAP1 POP JUMP JUMPDEST PUSH32 0x61756374696F6E20697320616C7265616479206F766572000000000000000000 PUSH1 0x0 DUP3 ADD MSTORE POP JUMP JUMPDEST PUSH1 0x0 PUSH2 0x43C PUSH1 0x17 DUP4 PUSH2 0x389 JUMP JUMPDEST SWAP2 POP PUSH2 0x447 DUP3 PUSH2 0x406 JUMP JUMPDEST PUSH1 0x20 DUP3 ADD SWAP1 POP SWAP2 SWAP1 POP JUMP JUMPDEST PUSH1 0x0 PUSH1 0x20 DUP3 ADD SWAP1 POP DUP2 DUP2 SUB PUSH1 0x0 DUP4 ADD MSTORE PUSH2 0x46B DUP2 PUSH2 0x42F JUMP JUMPDEST SWAP1 POP SWAP2 SWAP1 POP JUMP JUMPDEST PUSH32 0x62616C616E636520746F6F206C6F772075722062726F6B65206C6F6C00000000 PUSH1 0x0 DUP3 ADD MSTORE POP JUMP JUMPDEST PUSH1 0x0 PUSH2 0x4A8 PUSH1 0x1C DUP4 PUSH2 0x389 JUMP JUMPDEST SWAP2 POP PUSH2 0x4B3 DUP3 PUSH2 0x472 JUMP JUMPDEST PUSH1 0x20 DUP3 ADD SWAP1 POP SWAP2 SWAP1 POP JUMP JUMPDEST PUSH1 0x0 PUSH1 0x20 DUP3 ADD SWAP1 POP DUP2 DUP2 SUB PUSH1 0x0 DUP4 ADD MSTORE PUSH2 0x4D7 DUP2 PUSH2 0x49B JUMP JUMPDEST SWAP1 POP SWAP2 SWAP1 POP JUMP JUMPDEST PUSH32 0x4E487B7100000000000000000000000000000000000000000000000000000000 PUSH1 0x0 MSTORE PUSH1 0x11 PUSH1 0x4 MSTORE PUSH1 0x24 PUSH1 0x0 REVERT JUMPDEST PUSH1 0x0 PUSH2 0x518 DUP3 PUSH2 0x2F0 JUMP JUMPDEST SWAP2 POP PUSH2 0x523 DUP4 PUSH2 0x2F0 JUMP JUMPDEST SWAP3 POP DUP3 PUSH32 0xFFFFFFFFFFFFFFFFFFFFFFFFFFFFFFFFFFFFFFFFFFFFFFFFFFFFFFFFFFFFFFFF SUB DUP3 GT ISZERO PUSH2 0x558 JUMPI PUSH2 0x557 PUSH2 0x4DE JUMP JUMPDEST JUMPDEST DUP3 DUP3 ADD SWAP1 POP SWAP3 SWAP2 POP POP JUMP JUMPDEST PUSH32 0x4E6F74206F776E65720000000000000000000000000000000000000000000000 PUSH1 0x0 DUP3 ADD MSTORE POP JUMP JUMPDEST PUSH1 0x0 PUSH2 0x599 PUSH1 0x9 DUP4 PUSH2 0x389 JUMP JUMPDEST SWAP2 POP PUSH2 0x5A4 DUP3 PUSH2 0x563 JUMP JUMPDEST PUSH1 0x20 DUP3 ADD SWAP1 POP SWAP2 SWAP1 POP JUMP JUMPDEST PUSH1 0x0 PUSH1 0x20 DUP3 ADD SWAP1 POP DUP2 DUP2 SUB PUSH1 0x0 DUP4 ADD MSTORE PUSH2 0x5C8 DUP2 PUSH2 0x58C JUMP JUMPDEST SWAP1 POP SWAP2 SWAP1 POP JUMP INVALID LOG2 PUSH5 0x6970667358 0x22 SLT KECCAK256 0xA5 LOG1 DUP6 0xEE MLOAD BASEFEE SWAP7 SWAP16 0xAF 0xE4 0xFC 0xC7 GASLIMIT 0x2D CALL 0x4A PUSH5 0x179D186169 0xF8 SWAP8 0x27 PUSH25 0xB3C3E1F41B0E64736F6C634300080900330000000000000000 "
		},
		"gasEstimates": {
			"creation": {
				"codeDepositCost": "308200",
				"executionCost": "infinite",
				"totalCost": "infinite"
			},
			"external": {
				"aucEnding()": "2479",
				"endAuction()": "2622",
				"updateBiddingPrice(uint256)": "4988"
			}
		},
		"methodIdentifiers": {
			"aucEnding()": "e5422944",
			"endAuction()": "fe67a54b",
			"updateBiddingPrice(uint256)": "9f2d6b45"
		}
	},
	"abi": [
		{
			"inputs": [],
			"stateMutability": "nonpayable",
			"type": "constructor"
		},
		{
			"inputs": [],
			"name": "aucEnding",
			"outputs": [
				{
					"internalType": "bool",
					"name": "",
					"type": "bool"
				}
			],
			"stateMutability": "view",
			"type": "function"
		},
		{
			"inputs": [],
			"name": "endAuction",
			"outputs": [],
			"stateMutability": "nonpayable",
			"type": "function"
		},
		{
			"inputs": [
				{
					"internalType": "uint256",
					"name": "bid",
					"type": "uint256"
				}
			],
			"name": "updateBiddingPrice",
			"outputs": [],
			"stateMutability": "nonpayable",
			"type": "function"
		}
	]
}