{
	"data": {
		"bytecode": {
			"linkReferences": {},
			"object": "60806040523480156200001157600080fd5b506040516200147438038062001474833981810160405281019062000037919062000475565b80620000486200017a60201b60201c565b6064116200008d576040517f08c379a0000000000000000000000000000000000000000000000000000000008152600401620000849062000551565b60405180910390fd5b83600660016101000a81548173ffffffffffffffffffffffffffffffffffffffff021916908373ffffffffffffffffffffffffffffffffffffffff160217905550826007819055508160029080519060200190620000ed92919062000188565b50336000806101000a81548173ffffffffffffffffffffffffffffffffffffffff021916908373ffffffffffffffffffffffffffffffffffffffff16021790555043600381905550618ca0600354620001479190620005a2565b60048190555060006001819055506000600660006101000a81548160ff0219169083151502179055505050505062000664565b600080600090508091505090565b82805462000196906200062e565b90600052602060002090601f016020900481019282620001ba576000855562000206565b82601f10620001d557805160ff191683800117855562000206565b8280016001018555821562000206579182015b8281111562000205578251825591602001919060010190620001e8565b5b50905062000215919062000219565b5090565b5b80821115620002345760008160009055506001016200021a565b5090565b6000604051905090565b600080fd5b600080fd5b600073ffffffffffffffffffffffffffffffffffffffff82169050919050565b600062000279826200024c565b9050919050565b6200028b816200026c565b81146200029757600080fd5b50565b600081519050620002ab8162000280565b92915050565b6000819050919050565b620002c681620002b1565b8114620002d257600080fd5b50565b600081519050620002e681620002bb565b92915050565b600080fd5b600080fd5b6000601f19601f8301169050919050565b7f4e487b7100000000000000000000000000000000000000000000000000000000600052604160045260246000fd5b6200034182620002f6565b810181811067ffffffffffffffff8211171562000363576200036262000307565b5b80604052505050565b60006200037862000238565b905062000386828262000336565b919050565b600067ffffffffffffffff821115620003a957620003a862000307565b5b620003b482620002f6565b9050602081019050919050565b60005b83811015620003e1578082015181840152602081019050620003c4565b83811115620003f1576000848401525b50505050565b60006200040e62000408846200038b565b6200036c565b9050828152602081018484840111156200042d576200042c620002f1565b5b6200043a848285620003c1565b509392505050565b600082601f8301126200045a5762000459620002ec565b5b81516200046c848260208601620003f7565b91505092915050565b60008060006060848603121562000491576200049062000242565b5b6000620004a1868287016200029a565b9350506020620004b486828701620002d5565b925050604084015167ffffffffffffffff811115620004d857620004d762000247565b5b620004e68682870162000442565b9150509250925092565b600082825260208201905092915050565b7f776f72647320746f6f2068696768000000000000000000000000000000000000600082015250565b600062000539600e83620004f0565b9150620005468262000501565b602082019050919050565b600060208201905081810360008301526200056c816200052a565b9050919050565b7f4e487b7100000000000000000000000000000000000000000000000000000000600052601160045260246000fd5b6000620005af82620002b1565b9150620005bc83620002b1565b9250827fffffffffffffffffffffffffffffffffffffffffffffffffffffffffffffffff03821115620005f457620005f362000573565b5b828201905092915050565b7f4e487b7100000000000000000000000000000000000000000000000000000000600052602260045260246000fd5b600060028204905060018216806200064757607f821691505b602082108114156200065e576200065d620005ff565b5b50919050565b610e0080620006746000396000f3fe6080604052600436106100865760003560e01c8063c6bc518211610059578063c6bc518214610116578063d4d33a6f14610141578063e54229441461016c578063fd3b5a6914610197578063fe67a54b146101ae57610086565b80631300a6d11461008b57806346297c1b146100b657806347ccca02146100c05780635dd672ec146100eb575b600080fd5b34801561009757600080fd5b506100a06101b8565b6040516100ad9190610729565b60405180910390f35b6100be6101cd565b005b3480156100cc57600080fd5b506100d56103c0565b6040516100e291906107c3565b60405180910390f35b3480156100f757600080fd5b506101006103e6565b60405161010d9190610877565b60405180910390f35b34801561012257600080fd5b5061012b6104c2565b6040516101389190610729565b60405180910390f35b34801561014d57600080fd5b506101566104c8565b6040516101639190610729565b60405180910390f35b34801561017857600080fd5b506101816104d6565b60405161018e91906108b4565b60405180910390f35b3480156101a357600080fd5b506101ac6104e3565b005b6101b6610507565b005b6000436004546101c891906108fe565b905090565b346001548111610212576040517f08c379a00000000000000000000000000000000000000000000000000000000081526004016102099061097e565b60405180910390fd5b61021a6104d6565b1561025a576040517f08c379a0000000000000000000000000000000000000000000000000000000008152600401610251906109ea565b60405180910390fd5b3373ffffffffffffffffffffffffffffffffffffffff163134106102b3576040517f08c379a00000000000000000000000000000000000000000000000000000000081526004016102aa90610a56565b60405180910390fd5b6000600460008282546102c69190610a76565b9250508190555034600181905550600860405180604001604052803373ffffffffffffffffffffffffffffffffffffffff16815260200134815250908060018154018082558091505060019003906000526020600020906002020160009091909190915060008201518160000160006101000a81548173ffffffffffffffffffffffffffffffffffffffff021916908373ffffffffffffffffffffffffffffffffffffffff1602179055506020820151816001015550507f43ad5caa51c726fde88b9a8754205f6f718737df0c9d5d4bd55b17e2847daef460015460015460086040516103b593929190610c61565b60405180910390a150565b600660019054906101000a900473ffffffffffffffffffffffffffffffffffffffff1681565b60607f0248d3bfddf405c2684a91805207544032ccd269d9d54219da4ac941585d609c6008600160088054905061041d91906108fe565b8154811061042e5761042d610c9f565b5b906000526020600020906002020160000160009054906101000a900473ffffffffffffffffffffffffffffffffffffffff166008600160088054905061047491906108fe565b8154811061048557610484610c9f565b5b9060005260206000209060020201600101546040516104a5929190610cdd565b60405180910390a160405180602001604052806000815250905090565b60075481565b600080600090508091505090565b6000436004541115905090565b436004819055506001600660006101000a81548160ff021916908315150217905550565b61050f6104d6565b61054e576040517f08c379a000000000000000000000000000000000000000000000000000000000815260040161054590610d52565b60405180910390fd5b600660009054906101000a900460ff1661070d57600660019054906101000a900473ffffffffffffffffffffffffffffffffffffffff1673ffffffffffffffffffffffffffffffffffffffff166342842e0e60008054906101000a900473ffffffffffffffffffffffffffffffffffffffff16600860016008805490506105d591906108fe565b815481106105e6576105e5610c9f565b5b906000526020600020906002020160000160009054906101000a900473ffffffffffffffffffffffffffffffffffffffff166005546040518463ffffffff1660e01b815260040161063993929190610d93565b600060405180830381600087803b15801561065357600080fd5b505af1158015610667573d6000803e3d6000fd5b5050505060008054906101000a900473ffffffffffffffffffffffffffffffffffffffff1673ffffffffffffffffffffffffffffffffffffffff166108fc600860016008805490506106b991906108fe565b815481106106ca576106c9610c9f565b5b9060005260206000209060020201600101549081150290604051600060405180830381858888f19350505050158015610707573d6000803e3d6000fd5b5061070e565b5b565b6000819050919050565b61072381610710565b82525050565b600060208201905061073e600083018461071a565b92915050565b600073ffffffffffffffffffffffffffffffffffffffff82169050919050565b6000819050919050565b600061078961078461077f84610744565b610764565b610744565b9050919050565b600061079b8261076e565b9050919050565b60006107ad82610790565b9050919050565b6107bd816107a2565b82525050565b60006020820190506107d860008301846107b4565b92915050565b600081519050919050565b600082825260208201905092915050565b60005b838110156108185780820151818401526020810190506107fd565b83811115610827576000848401525b50505050565b6000601f19601f8301169050919050565b6000610849826107de565b61085381856107e9565b93506108638185602086016107fa565b61086c8161082d565b840191505092915050565b60006020820190508181036000830152610891818461083e565b905092915050565b60008115159050919050565b6108ae81610899565b82525050565b60006020820190506108c960008301846108a5565b92915050565b7f4e487b7100000000000000000000000000000000000000000000000000000000600052601160045260246000fd5b600061090982610710565b915061091483610710565b925082821015610927576109266108cf565b5b828203905092915050565b7f62696420746f6f206c6f77000000000000000000000000000000000000000000600082015250565b6000610968600b836107e9565b915061097382610932565b602082019050919050565b600060208201905081810360008301526109978161095b565b9050919050565b7f61756374696f6e20697320616c7265616479206f766572000000000000000000600082015250565b60006109d46017836107e9565b91506109df8261099e565b602082019050919050565b60006020820190508181036000830152610a03816109c7565b9050919050565b7f62616c616e636520746f6f206c6f772075722062726f6b65206c6f6c00000000600082015250565b6000610a40601c836107e9565b9150610a4b82610a0a565b602082019050919050565b60006020820190508181036000830152610a6f81610a33565b9050919050565b6000610a8182610710565b9150610a8c83610710565b9250827fffffffffffffffffffffffffffffffffffffffffffffffffffffffffffffffff03821115610ac157610ac06108cf565b5b828201905092915050565b600081549050919050565b600082825260208201905092915050565b60008190508160005260206000209050919050565b60008160001c9050919050565b600073ffffffffffffffffffffffffffffffffffffffff82169050919050565b6000610b3d610b3883610afd565b610b0a565b9050919050565b6000610b4f82610744565b9050919050565b610b5f81610b44565b82525050565b6000819050919050565b6000610b82610b7d83610afd565b610b65565b9050919050565b610b9281610710565b82525050565b604082016000808301549050610bad81610b2a565b610bba6000860182610b56565b5060018301549050610bcb81610b6f565b610bd86020860182610b89565b5050505050565b6000610beb8383610b98565b60408301905092915050565b6000600282019050919050565b6000610c0f82610acc565b610c198185610ad7565b9350610c2483610ae8565b8060005b83811015610c545781610c3b8882610bdf565b9750610c4683610bf7565b925050600181019050610c28565b5085935050505092915050565b6000606082019050610c76600083018661071a565b610c83602083018561071a565b8181036040830152610c958184610c04565b9050949350505050565b7f4e487b7100000000000000000000000000000000000000000000000000000000600052603260045260246000fd5b610cd781610b44565b82525050565b6000604082019050610cf26000830185610cce565b610cff602083018461071a565b9392505050565b7f61756374696f6e206861736e277420656e646564000000000000000000000000600082015250565b6000610d3c6014836107e9565b9150610d4782610d06565b602082019050919050565b60006020820190508181036000830152610d6b81610d2f565b9050919050565b6000610d7d82610790565b9050919050565b610d8d81610d72565b82525050565b6000606082019050610da86000830186610d84565b610db56020830185610cce565b610dc2604083018461071a565b94935050505056fea264697066735822122022d0be2baa0c6a162e80f53595d26f6b14f99bae896c90ef8cde32f1f626a04964736f6c63430008090033",
			"opcodes": "PUSH1 0x80 PUSH1 0x40 MSTORE CALLVALUE DUP1 ISZERO PUSH3 0x11 JUMPI PUSH1 0x0 DUP1 REVERT JUMPDEST POP PUSH1 0x40 MLOAD PUSH3 0x1474 CODESIZE SUB DUP1 PUSH3 0x1474 DUP4 CODECOPY DUP2 DUP2 ADD PUSH1 0x40 MSTORE DUP2 ADD SWAP1 PUSH3 0x37 SWAP2 SWAP1 PUSH3 0x475 JUMP JUMPDEST DUP1 PUSH3 0x48 PUSH3 0x17A PUSH1 0x20 SHL PUSH1 0x20 SHR JUMP JUMPDEST PUSH1 0x64 GT PUSH3 0x8D JUMPI PUSH1 0x40 MLOAD PUSH32 0x8C379A000000000000000000000000000000000000000000000000000000000 DUP2 MSTORE PUSH1 0x4 ADD PUSH3 0x84 SWAP1 PUSH3 0x551 JUMP JUMPDEST PUSH1 0x40 MLOAD DUP1 SWAP2 SUB SWAP1 REVERT JUMPDEST DUP4 PUSH1 0x6 PUSH1 0x1 PUSH2 0x100 EXP DUP2 SLOAD DUP2 PUSH20 0xFFFFFFFFFFFFFFFFFFFFFFFFFFFFFFFFFFFFFFFF MUL NOT AND SWAP1 DUP4 PUSH20 0xFFFFFFFFFFFFFFFFFFFFFFFFFFFFFFFFFFFFFFFF AND MUL OR SWAP1 SSTORE POP DUP3 PUSH1 0x7 DUP2 SWAP1 SSTORE POP DUP2 PUSH1 0x2 SWAP1 DUP1 MLOAD SWAP1 PUSH1 0x20 ADD SWAP1 PUSH3 0xED SWAP3 SWAP2 SWAP1 PUSH3 0x188 JUMP JUMPDEST POP CALLER PUSH1 0x0 DUP1 PUSH2 0x100 EXP DUP2 SLOAD DUP2 PUSH20 0xFFFFFFFFFFFFFFFFFFFFFFFFFFFFFFFFFFFFFFFF MUL NOT AND SWAP1 DUP4 PUSH20 0xFFFFFFFFFFFFFFFFFFFFFFFFFFFFFFFFFFFFFFFF AND MUL OR SWAP1 SSTORE POP NUMBER PUSH1 0x3 DUP2 SWAP1 SSTORE POP PUSH2 0x8CA0 PUSH1 0x3 SLOAD PUSH3 0x147 SWAP2 SWAP1 PUSH3 0x5A2 JUMP JUMPDEST PUSH1 0x4 DUP2 SWAP1 SSTORE POP PUSH1 0x0 PUSH1 0x1 DUP2 SWAP1 SSTORE POP PUSH1 0x0 PUSH1 0x6 PUSH1 0x0 PUSH2 0x100 EXP DUP2 SLOAD DUP2 PUSH1 0xFF MUL NOT AND SWAP1 DUP4 ISZERO ISZERO MUL OR SWAP1 SSTORE POP POP POP POP POP PUSH3 0x664 JUMP JUMPDEST PUSH1 0x0 DUP1 PUSH1 0x0 SWAP1 POP DUP1 SWAP2 POP POP SWAP1 JUMP JUMPDEST DUP3 DUP1 SLOAD PUSH3 0x196 SWAP1 PUSH3 0x62E JUMP JUMPDEST SWAP1 PUSH1 0x0 MSTORE PUSH1 0x20 PUSH1 0x0 KECCAK256 SWAP1 PUSH1 0x1F ADD PUSH1 0x20 SWAP1 DIV DUP2 ADD SWAP3 DUP3 PUSH3 0x1BA JUMPI PUSH1 0x0 DUP6 SSTORE PUSH3 0x206 JUMP JUMPDEST DUP3 PUSH1 0x1F LT PUSH3 0x1D5 JUMPI DUP1 MLOAD PUSH1 0xFF NOT AND DUP4 DUP1 ADD OR DUP6 SSTORE PUSH3 0x206 JUMP JUMPDEST DUP3 DUP1 ADD PUSH1 0x1 ADD DUP6 SSTORE DUP3 ISZERO PUSH3 0x206 JUMPI SWAP2 DUP3 ADD JUMPDEST DUP3 DUP2 GT ISZERO PUSH3 0x205 JUMPI DUP3 MLOAD DUP3 SSTORE SWAP2 PUSH1 0x20 ADD SWAP2 SWAP1 PUSH1 0x1 ADD SWAP1 PUSH3 0x1E8 JUMP JUMPDEST JUMPDEST POP SWAP1 POP PUSH3 0x215 SWAP2 SWAP1 PUSH3 0x219 JUMP JUMPDEST POP SWAP1 JUMP JUMPDEST JUMPDEST DUP1 DUP3 GT ISZERO PUSH3 0x234 JUMPI PUSH1 0x0 DUP2 PUSH1 0x0 SWAP1 SSTORE POP PUSH1 0x1 ADD PUSH3 0x21A JUMP JUMPDEST POP SWAP1 JUMP JUMPDEST PUSH1 0x0 PUSH1 0x40 MLOAD SWAP1 POP SWAP1 JUMP JUMPDEST PUSH1 0x0 DUP1 REVERT JUMPDEST PUSH1 0x0 DUP1 REVERT JUMPDEST PUSH1 0x0 PUSH20 0xFFFFFFFFFFFFFFFFFFFFFFFFFFFFFFFFFFFFFFFF DUP3 AND SWAP1 POP SWAP2 SWAP1 POP JUMP JUMPDEST PUSH1 0x0 PUSH3 0x279 DUP3 PUSH3 0x24C JUMP JUMPDEST SWAP1 POP SWAP2 SWAP1 POP JUMP JUMPDEST PUSH3 0x28B DUP2 PUSH3 0x26C JUMP JUMPDEST DUP2 EQ PUSH3 0x297 JUMPI PUSH1 0x0 DUP1 REVERT JUMPDEST POP JUMP JUMPDEST PUSH1 0x0 DUP2 MLOAD SWAP1 POP PUSH3 0x2AB DUP2 PUSH3 0x280 JUMP JUMPDEST SWAP3 SWAP2 POP POP JUMP JUMPDEST PUSH1 0x0 DUP2 SWAP1 POP SWAP2 SWAP1 POP JUMP JUMPDEST PUSH3 0x2C6 DUP2 PUSH3 0x2B1 JUMP JUMPDEST DUP2 EQ PUSH3 0x2D2 JUMPI PUSH1 0x0 DUP1 REVERT JUMPDEST POP JUMP JUMPDEST PUSH1 0x0 DUP2 MLOAD SWAP1 POP PUSH3 0x2E6 DUP2 PUSH3 0x2BB JUMP JUMPDEST SWAP3 SWAP2 POP POP JUMP JUMPDEST PUSH1 0x0 DUP1 REVERT JUMPDEST PUSH1 0x0 DUP1 REVERT JUMPDEST PUSH1 0x0 PUSH1 0x1F NOT PUSH1 0x1F DUP4 ADD AND SWAP1 POP SWAP2 SWAP1 POP JUMP JUMPDEST PUSH32 0x4E487B7100000000000000000000000000000000000000000000000000000000 PUSH1 0x0 MSTORE PUSH1 0x41 PUSH1 0x4 MSTORE PUSH1 0x24 PUSH1 0x0 REVERT JUMPDEST PUSH3 0x341 DUP3 PUSH3 0x2F6 JUMP JUMPDEST DUP2 ADD DUP2 DUP2 LT PUSH8 0xFFFFFFFFFFFFFFFF DUP3 GT OR ISZERO PUSH3 0x363 JUMPI PUSH3 0x362 PUSH3 0x307 JUMP JUMPDEST JUMPDEST DUP1 PUSH1 0x40 MSTORE POP POP POP JUMP JUMPDEST PUSH1 0x0 PUSH3 0x378 PUSH3 0x238 JUMP JUMPDEST SWAP1 POP PUSH3 0x386 DUP3 DUP3 PUSH3 0x336 JUMP JUMPDEST SWAP2 SWAP1 POP JUMP JUMPDEST PUSH1 0x0 PUSH8 0xFFFFFFFFFFFFFFFF DUP3 GT ISZERO PUSH3 0x3A9 JUMPI PUSH3 0x3A8 PUSH3 0x307 JUMP JUMPDEST JUMPDEST PUSH3 0x3B4 DUP3 PUSH3 0x2F6 JUMP JUMPDEST SWAP1 POP PUSH1 0x20 DUP2 ADD SWAP1 POP SWAP2 SWAP1 POP JUMP JUMPDEST PUSH1 0x0 JUMPDEST DUP4 DUP2 LT ISZERO PUSH3 0x3E1 JUMPI DUP1 DUP3 ADD MLOAD DUP2 DUP5 ADD MSTORE PUSH1 0x20 DUP2 ADD SWAP1 POP PUSH3 0x3C4 JUMP JUMPDEST DUP4 DUP2 GT ISZERO PUSH3 0x3F1 JUMPI PUSH1 0x0 DUP5 DUP5 ADD MSTORE JUMPDEST POP POP POP POP JUMP JUMPDEST PUSH1 0x0 PUSH3 0x40E PUSH3 0x408 DUP5 PUSH3 0x38B JUMP JUMPDEST PUSH3 0x36C JUMP JUMPDEST SWAP1 POP DUP3 DUP2 MSTORE PUSH1 0x20 DUP2 ADD DUP5 DUP5 DUP5 ADD GT ISZERO PUSH3 0x42D JUMPI PUSH3 0x42C PUSH3 0x2F1 JUMP JUMPDEST JUMPDEST PUSH3 0x43A DUP5 DUP3 DUP6 PUSH3 0x3C1 JUMP JUMPDEST POP SWAP4 SWAP3 POP POP POP JUMP JUMPDEST PUSH1 0x0 DUP3 PUSH1 0x1F DUP4 ADD SLT PUSH3 0x45A JUMPI PUSH3 0x459 PUSH3 0x2EC JUMP JUMPDEST JUMPDEST DUP2 MLOAD PUSH3 0x46C DUP5 DUP3 PUSH1 0x20 DUP7 ADD PUSH3 0x3F7 JUMP JUMPDEST SWAP2 POP POP SWAP3 SWAP2 POP POP JUMP JUMPDEST PUSH1 0x0 DUP1 PUSH1 0x0 PUSH1 0x60 DUP5 DUP7 SUB SLT ISZERO PUSH3 0x491 JUMPI PUSH3 0x490 PUSH3 0x242 JUMP JUMPDEST JUMPDEST PUSH1 0x0 PUSH3 0x4A1 DUP7 DUP3 DUP8 ADD PUSH3 0x29A JUMP JUMPDEST SWAP4 POP POP PUSH1 0x20 PUSH3 0x4B4 DUP7 DUP3 DUP8 ADD PUSH3 0x2D5 JUMP JUMPDEST SWAP3 POP POP PUSH1 0x40 DUP5 ADD MLOAD PUSH8 0xFFFFFFFFFFFFFFFF DUP2 GT ISZERO PUSH3 0x4D8 JUMPI PUSH3 0x4D7 PUSH3 0x247 JUMP JUMPDEST JUMPDEST PUSH3 0x4E6 DUP7 DUP3 DUP8 ADD PUSH3 0x442 JUMP JUMPDEST SWAP2 POP POP SWAP3 POP SWAP3 POP SWAP3 JUMP JUMPDEST PUSH1 0x0 DUP3 DUP3 MSTORE PUSH1 0x20 DUP3 ADD SWAP1 POP SWAP3 SWAP2 POP POP JUMP JUMPDEST PUSH32 0x776F72647320746F6F2068696768000000000000000000000000000000000000 PUSH1 0x0 DUP3 ADD MSTORE POP JUMP JUMPDEST PUSH1 0x0 PUSH3 0x539 PUSH1 0xE DUP4 PUSH3 0x4F0 JUMP JUMPDEST SWAP2 POP PUSH3 0x546 DUP3 PUSH3 0x501 JUMP JUMPDEST PUSH1 0x20 DUP3 ADD SWAP1 POP SWAP2 SWAP1 POP JUMP JUMPDEST PUSH1 0x0 PUSH1 0x20 DUP3 ADD SWAP1 POP DUP2 DUP2 SUB PUSH1 0x0 DUP4 ADD MSTORE PUSH3 0x56C DUP2 PUSH3 0x52A JUMP JUMPDEST SWAP1 POP SWAP2 SWAP1 POP JUMP JUMPDEST PUSH32 0x4E487B7100000000000000000000000000000000000000000000000000000000 PUSH1 0x0 MSTORE PUSH1 0x11 PUSH1 0x4 MSTORE PUSH1 0x24 PUSH1 0x0 REVERT JUMPDEST PUSH1 0x0 PUSH3 0x5AF DUP3 PUSH3 0x2B1 JUMP JUMPDEST SWAP2 POP PUSH3 0x5BC DUP4 PUSH3 0x2B1 JUMP JUMPDEST SWAP3 POP DUP3 PUSH32 0xFFFFFFFFFFFFFFFFFFFFFFFFFFFFFFFFFFFFFFFFFFFFFFFFFFFFFFFFFFFFFFFF SUB DUP3 GT ISZERO PUSH3 0x5F4 JUMPI PUSH3 0x5F3 PUSH3 0x573 JUMP JUMPDEST JUMPDEST DUP3 DUP3 ADD SWAP1 POP SWAP3 SWAP2 POP POP JUMP JUMPDEST PUSH32 0x4E487B7100000000000000000000000000000000000000000000000000000000 PUSH1 0x0 MSTORE PUSH1 0x22 PUSH1 0x4 MSTORE PUSH1 0x24 PUSH1 0x0 REVERT JUMPDEST PUSH1 0x0 PUSH1 0x2 DUP3 DIV SWAP1 POP PUSH1 0x1 DUP3 AND DUP1 PUSH3 0x647 JUMPI PUSH1 0x7F DUP3 AND SWAP2 POP JUMPDEST PUSH1 0x20 DUP3 LT DUP2 EQ ISZERO PUSH3 0x65E JUMPI PUSH3 0x65D PUSH3 0x5FF JUMP JUMPDEST JUMPDEST POP SWAP2 SWAP1 POP JUMP JUMPDEST PUSH2 0xE00 DUP1 PUSH3 0x674 PUSH1 0x0 CODECOPY PUSH1 0x0 RETURN INVALID PUSH1 0x80 PUSH1 0x40 MSTORE PUSH1 0x4 CALLDATASIZE LT PUSH2 0x86 JUMPI PUSH1 0x0 CALLDATALOAD PUSH1 0xE0 SHR DUP1 PUSH4 0xC6BC5182 GT PUSH2 0x59 JUMPI DUP1 PUSH4 0xC6BC5182 EQ PUSH2 0x116 JUMPI DUP1 PUSH4 0xD4D33A6F EQ PUSH2 0x141 JUMPI DUP1 PUSH4 0xE5422944 EQ PUSH2 0x16C JUMPI DUP1 PUSH4 0xFD3B5A69 EQ PUSH2 0x197 JUMPI DUP1 PUSH4 0xFE67A54B EQ PUSH2 0x1AE JUMPI PUSH2 0x86 JUMP JUMPDEST DUP1 PUSH4 0x1300A6D1 EQ PUSH2 0x8B JUMPI DUP1 PUSH4 0x46297C1B EQ PUSH2 0xB6 JUMPI DUP1 PUSH4 0x47CCCA02 EQ PUSH2 0xC0 JUMPI DUP1 PUSH4 0x5DD672EC EQ PUSH2 0xEB JUMPI JUMPDEST PUSH1 0x0 DUP1 REVERT JUMPDEST CALLVALUE DUP1 ISZERO PUSH2 0x97 JUMPI PUSH1 0x0 DUP1 REVERT JUMPDEST POP PUSH2 0xA0 PUSH2 0x1B8 JUMP JUMPDEST PUSH1 0x40 MLOAD PUSH2 0xAD SWAP2 SWAP1 PUSH2 0x729 JUMP JUMPDEST PUSH1 0x40 MLOAD DUP1 SWAP2 SUB SWAP1 RETURN JUMPDEST PUSH2 0xBE PUSH2 0x1CD JUMP JUMPDEST STOP JUMPDEST CALLVALUE DUP1 ISZERO PUSH2 0xCC JUMPI PUSH1 0x0 DUP1 REVERT JUMPDEST POP PUSH2 0xD5 PUSH2 0x3C0 JUMP JUMPDEST PUSH1 0x40 MLOAD PUSH2 0xE2 SWAP2 SWAP1 PUSH2 0x7C3 JUMP JUMPDEST PUSH1 0x40 MLOAD DUP1 SWAP2 SUB SWAP1 RETURN JUMPDEST CALLVALUE DUP1 ISZERO PUSH2 0xF7 JUMPI PUSH1 0x0 DUP1 REVERT JUMPDEST POP PUSH2 0x100 PUSH2 0x3E6 JUMP JUMPDEST PUSH1 0x40 MLOAD PUSH2 0x10D SWAP2 SWAP1 PUSH2 0x877 JUMP JUMPDEST PUSH1 0x40 MLOAD DUP1 SWAP2 SUB SWAP1 RETURN JUMPDEST CALLVALUE DUP1 ISZERO PUSH2 0x122 JUMPI PUSH1 0x0 DUP1 REVERT JUMPDEST POP PUSH2 0x12B PUSH2 0x4C2 JUMP JUMPDEST PUSH1 0x40 MLOAD PUSH2 0x138 SWAP2 SWAP1 PUSH2 0x729 JUMP JUMPDEST PUSH1 0x40 MLOAD DUP1 SWAP2 SUB SWAP1 RETURN JUMPDEST CALLVALUE DUP1 ISZERO PUSH2 0x14D JUMPI PUSH1 0x0 DUP1 REVERT JUMPDEST POP PUSH2 0x156 PUSH2 0x4C8 JUMP JUMPDEST PUSH1 0x40 MLOAD PUSH2 0x163 SWAP2 SWAP1 PUSH2 0x729 JUMP JUMPDEST PUSH1 0x40 MLOAD DUP1 SWAP2 SUB SWAP1 RETURN JUMPDEST CALLVALUE DUP1 ISZERO PUSH2 0x178 JUMPI PUSH1 0x0 DUP1 REVERT JUMPDEST POP PUSH2 0x181 PUSH2 0x4D6 JUMP JUMPDEST PUSH1 0x40 MLOAD PUSH2 0x18E SWAP2 SWAP1 PUSH2 0x8B4 JUMP JUMPDEST PUSH1 0x40 MLOAD DUP1 SWAP2 SUB SWAP1 RETURN JUMPDEST CALLVALUE DUP1 ISZERO PUSH2 0x1A3 JUMPI PUSH1 0x0 DUP1 REVERT JUMPDEST POP PUSH2 0x1AC PUSH2 0x4E3 JUMP JUMPDEST STOP JUMPDEST PUSH2 0x1B6 PUSH2 0x507 JUMP JUMPDEST STOP JUMPDEST PUSH1 0x0 NUMBER PUSH1 0x4 SLOAD PUSH2 0x1C8 SWAP2 SWAP1 PUSH2 0x8FE JUMP JUMPDEST SWAP1 POP SWAP1 JUMP JUMPDEST CALLVALUE PUSH1 0x1 SLOAD DUP2 GT PUSH2 0x212 JUMPI PUSH1 0x40 MLOAD PUSH32 0x8C379A000000000000000000000000000000000000000000000000000000000 DUP2 MSTORE PUSH1 0x4 ADD PUSH2 0x209 SWAP1 PUSH2 0x97E JUMP JUMPDEST PUSH1 0x40 MLOAD DUP1 SWAP2 SUB SWAP1 REVERT JUMPDEST PUSH2 0x21A PUSH2 0x4D6 JUMP JUMPDEST ISZERO PUSH2 0x25A JUMPI PUSH1 0x40 MLOAD PUSH32 0x8C379A000000000000000000000000000000000000000000000000000000000 DUP2 MSTORE PUSH1 0x4 ADD PUSH2 0x251 SWAP1 PUSH2 0x9EA JUMP JUMPDEST PUSH1 0x40 MLOAD DUP1 SWAP2 SUB SWAP1 REVERT JUMPDEST CALLER PUSH20 0xFFFFFFFFFFFFFFFFFFFFFFFFFFFFFFFFFFFFFFFF AND BALANCE CALLVALUE LT PUSH2 0x2B3 JUMPI PUSH1 0x40 MLOAD PUSH32 0x8C379A000000000000000000000000000000000000000000000000000000000 DUP2 MSTORE PUSH1 0x4 ADD PUSH2 0x2AA SWAP1 PUSH2 0xA56 JUMP JUMPDEST PUSH1 0x40 MLOAD DUP1 SWAP2 SUB SWAP1 REVERT JUMPDEST PUSH1 0x0 PUSH1 0x4 PUSH1 0x0 DUP3 DUP3 SLOAD PUSH2 0x2C6 SWAP2 SWAP1 PUSH2 0xA76 JUMP JUMPDEST SWAP3 POP POP DUP2 SWAP1 SSTORE POP CALLVALUE PUSH1 0x1 DUP2 SWAP1 SSTORE POP PUSH1 0x8 PUSH1 0x40 MLOAD DUP1 PUSH1 0x40 ADD PUSH1 0x40 MSTORE DUP1 CALLER PUSH20 0xFFFFFFFFFFFFFFFFFFFFFFFFFFFFFFFFFFFFFFFF AND DUP2 MSTORE PUSH1 0x20 ADD CALLVALUE DUP2 MSTORE POP SWAP1 DUP1 PUSH1 0x1 DUP2 SLOAD ADD DUP1 DUP3 SSTORE DUP1 SWAP2 POP POP PUSH1 0x1 SWAP1 SUB SWAP1 PUSH1 0x0 MSTORE PUSH1 0x20 PUSH1 0x0 KECCAK256 SWAP1 PUSH1 0x2 MUL ADD PUSH1 0x0 SWAP1 SWAP2 SWAP1 SWAP2 SWAP1 SWAP2 POP PUSH1 0x0 DUP3 ADD MLOAD DUP2 PUSH1 0x0 ADD PUSH1 0x0 PUSH2 0x100 EXP DUP2 SLOAD DUP2 PUSH20 0xFFFFFFFFFFFFFFFFFFFFFFFFFFFFFFFFFFFFFFFF MUL NOT AND SWAP1 DUP4 PUSH20 0xFFFFFFFFFFFFFFFFFFFFFFFFFFFFFFFFFFFFFFFF AND MUL OR SWAP1 SSTORE POP PUSH1 0x20 DUP3 ADD MLOAD DUP2 PUSH1 0x1 ADD SSTORE POP POP PUSH32 0x43AD5CAA51C726FDE88B9A8754205F6F718737DF0C9D5D4BD55B17E2847DAEF4 PUSH1 0x1 SLOAD PUSH1 0x1 SLOAD PUSH1 0x8 PUSH1 0x40 MLOAD PUSH2 0x3B5 SWAP4 SWAP3 SWAP2 SWAP1 PUSH2 0xC61 JUMP JUMPDEST PUSH1 0x40 MLOAD DUP1 SWAP2 SUB SWAP1 LOG1 POP JUMP JUMPDEST PUSH1 0x6 PUSH1 0x1 SWAP1 SLOAD SWAP1 PUSH2 0x100 EXP SWAP1 DIV PUSH20 0xFFFFFFFFFFFFFFFFFFFFFFFFFFFFFFFFFFFFFFFF AND DUP2 JUMP JUMPDEST PUSH1 0x60 PUSH32 0x248D3BFDDF405C2684A91805207544032CCD269D9D54219DA4AC941585D609C PUSH1 0x8 PUSH1 0x1 PUSH1 0x8 DUP1 SLOAD SWAP1 POP PUSH2 0x41D SWAP2 SWAP1 PUSH2 0x8FE JUMP JUMPDEST DUP2 SLOAD DUP2 LT PUSH2 0x42E JUMPI PUSH2 0x42D PUSH2 0xC9F JUMP JUMPDEST JUMPDEST SWAP1 PUSH1 0x0 MSTORE PUSH1 0x20 PUSH1 0x0 KECCAK256 SWAP1 PUSH1 0x2 MUL ADD PUSH1 0x0 ADD PUSH1 0x0 SWAP1 SLOAD SWAP1 PUSH2 0x100 EXP SWAP1 DIV PUSH20 0xFFFFFFFFFFFFFFFFFFFFFFFFFFFFFFFFFFFFFFFF AND PUSH1 0x8 PUSH1 0x1 PUSH1 0x8 DUP1 SLOAD SWAP1 POP PUSH2 0x474 SWAP2 SWAP1 PUSH2 0x8FE JUMP JUMPDEST DUP2 SLOAD DUP2 LT PUSH2 0x485 JUMPI PUSH2 0x484 PUSH2 0xC9F JUMP JUMPDEST JUMPDEST SWAP1 PUSH1 0x0 MSTORE PUSH1 0x20 PUSH1 0x0 KECCAK256 SWAP1 PUSH1 0x2 MUL ADD PUSH1 0x1 ADD SLOAD PUSH1 0x40 MLOAD PUSH2 0x4A5 SWAP3 SWAP2 SWAP1 PUSH2 0xCDD JUMP JUMPDEST PUSH1 0x40 MLOAD DUP1 SWAP2 SUB SWAP1 LOG1 PUSH1 0x40 MLOAD DUP1 PUSH1 0x20 ADD PUSH1 0x40 MSTORE DUP1 PUSH1 0x0 DUP2 MSTORE POP SWAP1 POP SWAP1 JUMP JUMPDEST PUSH1 0x7 SLOAD DUP2 JUMP JUMPDEST PUSH1 0x0 DUP1 PUSH1 0x0 SWAP1 POP DUP1 SWAP2 POP POP SWAP1 JUMP JUMPDEST PUSH1 0x0 NUMBER PUSH1 0x4 SLOAD GT ISZERO SWAP1 POP SWAP1 JUMP JUMPDEST NUMBER PUSH1 0x4 DUP2 SWAP1 SSTORE POP PUSH1 0x1 PUSH1 0x6 PUSH1 0x0 PUSH2 0x100 EXP DUP2 SLOAD DUP2 PUSH1 0xFF MUL NOT AND SWAP1 DUP4 ISZERO ISZERO MUL OR SWAP1 SSTORE POP JUMP JUMPDEST PUSH2 0x50F PUSH2 0x4D6 JUMP JUMPDEST PUSH2 0x54E JUMPI PUSH1 0x40 MLOAD PUSH32 0x8C379A000000000000000000000000000000000000000000000000000000000 DUP2 MSTORE PUSH1 0x4 ADD PUSH2 0x545 SWAP1 PUSH2 0xD52 JUMP JUMPDEST PUSH1 0x40 MLOAD DUP1 SWAP2 SUB SWAP1 REVERT JUMPDEST PUSH1 0x6 PUSH1 0x0 SWAP1 SLOAD SWAP1 PUSH2 0x100 EXP SWAP1 DIV PUSH1 0xFF AND PUSH2 0x70D JUMPI PUSH1 0x6 PUSH1 0x1 SWAP1 SLOAD SWAP1 PUSH2 0x100 EXP SWAP1 DIV PUSH20 0xFFFFFFFFFFFFFFFFFFFFFFFFFFFFFFFFFFFFFFFF AND PUSH20 0xFFFFFFFFFFFFFFFFFFFFFFFFFFFFFFFFFFFFFFFF AND PUSH4 0x42842E0E PUSH1 0x0 DUP1 SLOAD SWAP1 PUSH2 0x100 EXP SWAP1 DIV PUSH20 0xFFFFFFFFFFFFFFFFFFFFFFFFFFFFFFFFFFFFFFFF AND PUSH1 0x8 PUSH1 0x1 PUSH1 0x8 DUP1 SLOAD SWAP1 POP PUSH2 0x5D5 SWAP2 SWAP1 PUSH2 0x8FE JUMP JUMPDEST DUP2 SLOAD DUP2 LT PUSH2 0x5E6 JUMPI PUSH2 0x5E5 PUSH2 0xC9F JUMP JUMPDEST JUMPDEST SWAP1 PUSH1 0x0 MSTORE PUSH1 0x20 PUSH1 0x0 KECCAK256 SWAP1 PUSH1 0x2 MUL ADD PUSH1 0x0 ADD PUSH1 0x0 SWAP1 SLOAD SWAP1 PUSH2 0x100 EXP SWAP1 DIV PUSH20 0xFFFFFFFFFFFFFFFFFFFFFFFFFFFFFFFFFFFFFFFF AND PUSH1 0x5 SLOAD PUSH1 0x40 MLOAD DUP5 PUSH4 0xFFFFFFFF AND PUSH1 0xE0 SHL DUP2 MSTORE PUSH1 0x4 ADD PUSH2 0x639 SWAP4 SWAP3 SWAP2 SWAP1 PUSH2 0xD93 JUMP JUMPDEST PUSH1 0x0 PUSH1 0x40 MLOAD DUP1 DUP4 SUB DUP2 PUSH1 0x0 DUP8 DUP1 EXTCODESIZE ISZERO DUP1 ISZERO PUSH2 0x653 JUMPI PUSH1 0x0 DUP1 REVERT JUMPDEST POP GAS CALL ISZERO DUP1 ISZERO PUSH2 0x667 JUMPI RETURNDATASIZE PUSH1 0x0 DUP1 RETURNDATACOPY RETURNDATASIZE PUSH1 0x0 REVERT JUMPDEST POP POP POP POP PUSH1 0x0 DUP1 SLOAD SWAP1 PUSH2 0x100 EXP SWAP1 DIV PUSH20 0xFFFFFFFFFFFFFFFFFFFFFFFFFFFFFFFFFFFFFFFF AND PUSH20 0xFFFFFFFFFFFFFFFFFFFFFFFFFFFFFFFFFFFFFFFF AND PUSH2 0x8FC PUSH1 0x8 PUSH1 0x1 PUSH1 0x8 DUP1 SLOAD SWAP1 POP PUSH2 0x6B9 SWAP2 SWAP1 PUSH2 0x8FE JUMP JUMPDEST DUP2 SLOAD DUP2 LT PUSH2 0x6CA JUMPI PUSH2 0x6C9 PUSH2 0xC9F JUMP JUMPDEST JUMPDEST SWAP1 PUSH1 0x0 MSTORE PUSH1 0x20 PUSH1 0x0 KECCAK256 SWAP1 PUSH1 0x2 MUL ADD PUSH1 0x1 ADD SLOAD SWAP1 DUP2 ISZERO MUL SWAP1 PUSH1 0x40 MLOAD PUSH1 0x0 PUSH1 0x40 MLOAD DUP1 DUP4 SUB DUP2 DUP6 DUP9 DUP9 CALL SWAP4 POP POP POP POP ISZERO DUP1 ISZERO PUSH2 0x707 JUMPI RETURNDATASIZE PUSH1 0x0 DUP1 RETURNDATACOPY RETURNDATASIZE PUSH1 0x0 REVERT JUMPDEST POP PUSH2 0x70E JUMP JUMPDEST JUMPDEST JUMP JUMPDEST PUSH1 0x0 DUP2 SWAP1 POP SWAP2 SWAP1 POP JUMP JUMPDEST PUSH2 0x723 DUP2 PUSH2 0x710 JUMP JUMPDEST DUP3 MSTORE POP POP JUMP JUMPDEST PUSH1 0x0 PUSH1 0x20 DUP3 ADD SWAP1 POP PUSH2 0x73E PUSH1 0x0 DUP4 ADD DUP5 PUSH2 0x71A JUMP JUMPDEST SWAP3 SWAP2 POP POP JUMP JUMPDEST PUSH1 0x0 PUSH20 0xFFFFFFFFFFFFFFFFFFFFFFFFFFFFFFFFFFFFFFFF DUP3 AND SWAP1 POP SWAP2 SWAP1 POP JUMP JUMPDEST PUSH1 0x0 DUP2 SWAP1 POP SWAP2 SWAP1 POP JUMP JUMPDEST PUSH1 0x0 PUSH2 0x789 PUSH2 0x784 PUSH2 0x77F DUP5 PUSH2 0x744 JUMP JUMPDEST PUSH2 0x764 JUMP JUMPDEST PUSH2 0x744 JUMP JUMPDEST SWAP1 POP SWAP2 SWAP1 POP JUMP JUMPDEST PUSH1 0x0 PUSH2 0x79B DUP3 PUSH2 0x76E JUMP JUMPDEST SWAP1 POP SWAP2 SWAP1 POP JUMP JUMPDEST PUSH1 0x0 PUSH2 0x7AD DUP3 PUSH2 0x790 JUMP JUMPDEST SWAP1 POP SWAP2 SWAP1 POP JUMP JUMPDEST PUSH2 0x7BD DUP2 PUSH2 0x7A2 JUMP JUMPDEST DUP3 MSTORE POP POP JUMP JUMPDEST PUSH1 0x0 PUSH1 0x20 DUP3 ADD SWAP1 POP PUSH2 0x7D8 PUSH1 0x0 DUP4 ADD DUP5 PUSH2 0x7B4 JUMP JUMPDEST SWAP3 SWAP2 POP POP JUMP JUMPDEST PUSH1 0x0 DUP2 MLOAD SWAP1 POP SWAP2 SWAP1 POP JUMP JUMPDEST PUSH1 0x0 DUP3 DUP3 MSTORE PUSH1 0x20 DUP3 ADD SWAP1 POP SWAP3 SWAP2 POP POP JUMP JUMPDEST PUSH1 0x0 JUMPDEST DUP4 DUP2 LT ISZERO PUSH2 0x818 JUMPI DUP1 DUP3 ADD MLOAD DUP2 DUP5 ADD MSTORE PUSH1 0x20 DUP2 ADD SWAP1 POP PUSH2 0x7FD JUMP JUMPDEST DUP4 DUP2 GT ISZERO PUSH2 0x827 JUMPI PUSH1 0x0 DUP5 DUP5 ADD MSTORE JUMPDEST POP POP POP POP JUMP JUMPDEST PUSH1 0x0 PUSH1 0x1F NOT PUSH1 0x1F DUP4 ADD AND SWAP1 POP SWAP2 SWAP1 POP JUMP JUMPDEST PUSH1 0x0 PUSH2 0x849 DUP3 PUSH2 0x7DE JUMP JUMPDEST PUSH2 0x853 DUP2 DUP6 PUSH2 0x7E9 JUMP JUMPDEST SWAP4 POP PUSH2 0x863 DUP2 DUP6 PUSH1 0x20 DUP7 ADD PUSH2 0x7FA JUMP JUMPDEST PUSH2 0x86C DUP2 PUSH2 0x82D JUMP JUMPDEST DUP5 ADD SWAP2 POP POP SWAP3 SWAP2 POP POP JUMP JUMPDEST PUSH1 0x0 PUSH1 0x20 DUP3 ADD SWAP1 POP DUP2 DUP2 SUB PUSH1 0x0 DUP4 ADD MSTORE PUSH2 0x891 DUP2 DUP5 PUSH2 0x83E JUMP JUMPDEST SWAP1 POP SWAP3 SWAP2 POP POP JUMP JUMPDEST PUSH1 0x0 DUP2 ISZERO ISZERO SWAP1 POP SWAP2 SWAP1 POP JUMP JUMPDEST PUSH2 0x8AE DUP2 PUSH2 0x899 JUMP JUMPDEST DUP3 MSTORE POP POP JUMP JUMPDEST PUSH1 0x0 PUSH1 0x20 DUP3 ADD SWAP1 POP PUSH2 0x8C9 PUSH1 0x0 DUP4 ADD DUP5 PUSH2 0x8A5 JUMP JUMPDEST SWAP3 SWAP2 POP POP JUMP JUMPDEST PUSH32 0x4E487B7100000000000000000000000000000000000000000000000000000000 PUSH1 0x0 MSTORE PUSH1 0x11 PUSH1 0x4 MSTORE PUSH1 0x24 PUSH1 0x0 REVERT JUMPDEST PUSH1 0x0 PUSH2 0x909 DUP3 PUSH2 0x710 JUMP JUMPDEST SWAP2 POP PUSH2 0x914 DUP4 PUSH2 0x710 JUMP JUMPDEST SWAP3 POP DUP3 DUP3 LT ISZERO PUSH2 0x927 JUMPI PUSH2 0x926 PUSH2 0x8CF JUMP JUMPDEST JUMPDEST DUP3 DUP3 SUB SWAP1 POP SWAP3 SWAP2 POP POP JUMP JUMPDEST PUSH32 0x62696420746F6F206C6F77000000000000000000000000000000000000000000 PUSH1 0x0 DUP3 ADD MSTORE POP JUMP JUMPDEST PUSH1 0x0 PUSH2 0x968 PUSH1 0xB DUP4 PUSH2 0x7E9 JUMP JUMPDEST SWAP2 POP PUSH2 0x973 DUP3 PUSH2 0x932 JUMP JUMPDEST PUSH1 0x20 DUP3 ADD SWAP1 POP SWAP2 SWAP1 POP JUMP JUMPDEST PUSH1 0x0 PUSH1 0x20 DUP3 ADD SWAP1 POP DUP2 DUP2 SUB PUSH1 0x0 DUP4 ADD MSTORE PUSH2 0x997 DUP2 PUSH2 0x95B JUMP JUMPDEST SWAP1 POP SWAP2 SWAP1 POP JUMP JUMPDEST PUSH32 0x61756374696F6E20697320616C7265616479206F766572000000000000000000 PUSH1 0x0 DUP3 ADD MSTORE POP JUMP JUMPDEST PUSH1 0x0 PUSH2 0x9D4 PUSH1 0x17 DUP4 PUSH2 0x7E9 JUMP JUMPDEST SWAP2 POP PUSH2 0x9DF DUP3 PUSH2 0x99E JUMP JUMPDEST PUSH1 0x20 DUP3 ADD SWAP1 POP SWAP2 SWAP1 POP JUMP JUMPDEST PUSH1 0x0 PUSH1 0x20 DUP3 ADD SWAP1 POP DUP2 DUP2 SUB PUSH1 0x0 DUP4 ADD MSTORE PUSH2 0xA03 DUP2 PUSH2 0x9C7 JUMP JUMPDEST SWAP1 POP SWAP2 SWAP1 POP JUMP JUMPDEST PUSH32 0x62616C616E636520746F6F206C6F772075722062726F6B65206C6F6C00000000 PUSH1 0x0 DUP3 ADD MSTORE POP JUMP JUMPDEST PUSH1 0x0 PUSH2 0xA40 PUSH1 0x1C DUP4 PUSH2 0x7E9 JUMP JUMPDEST SWAP2 POP PUSH2 0xA4B DUP3 PUSH2 0xA0A JUMP JUMPDEST PUSH1 0x20 DUP3 ADD SWAP1 POP SWAP2 SWAP1 POP JUMP JUMPDEST PUSH1 0x0 PUSH1 0x20 DUP3 ADD SWAP1 POP DUP2 DUP2 SUB PUSH1 0x0 DUP4 ADD MSTORE PUSH2 0xA6F DUP2 PUSH2 0xA33 JUMP JUMPDEST SWAP1 POP SWAP2 SWAP1 POP JUMP JUMPDEST PUSH1 0x0 PUSH2 0xA81 DUP3 PUSH2 0x710 JUMP JUMPDEST SWAP2 POP PUSH2 0xA8C DUP4 PUSH2 0x710 JUMP JUMPDEST SWAP3 POP DUP3 PUSH32 0xFFFFFFFFFFFFFFFFFFFFFFFFFFFFFFFFFFFFFFFFFFFFFFFFFFFFFFFFFFFFFFFF SUB DUP3 GT ISZERO PUSH2 0xAC1 JUMPI PUSH2 0xAC0 PUSH2 0x8CF JUMP JUMPDEST JUMPDEST DUP3 DUP3 ADD SWAP1 POP SWAP3 SWAP2 POP POP JUMP JUMPDEST PUSH1 0x0 DUP2 SLOAD SWAP1 POP SWAP2 SWAP1 POP JUMP JUMPDEST PUSH1 0x0 DUP3 DUP3 MSTORE PUSH1 0x20 DUP3 ADD SWAP1 POP SWAP3 SWAP2 POP POP JUMP JUMPDEST PUSH1 0x0 DUP2 SWAP1 POP DUP2 PUSH1 0x0 MSTORE PUSH1 0x20 PUSH1 0x0 KECCAK256 SWAP1 POP SWAP2 SWAP1 POP JUMP JUMPDEST PUSH1 0x0 DUP2 PUSH1 0x0 SHR SWAP1 POP SWAP2 SWAP1 POP JUMP JUMPDEST PUSH1 0x0 PUSH20 0xFFFFFFFFFFFFFFFFFFFFFFFFFFFFFFFFFFFFFFFF DUP3 AND SWAP1 POP SWAP2 SWAP1 POP JUMP JUMPDEST PUSH1 0x0 PUSH2 0xB3D PUSH2 0xB38 DUP4 PUSH2 0xAFD JUMP JUMPDEST PUSH2 0xB0A JUMP JUMPDEST SWAP1 POP SWAP2 SWAP1 POP JUMP JUMPDEST PUSH1 0x0 PUSH2 0xB4F DUP3 PUSH2 0x744 JUMP JUMPDEST SWAP1 POP SWAP2 SWAP1 POP JUMP JUMPDEST PUSH2 0xB5F DUP2 PUSH2 0xB44 JUMP JUMPDEST DUP3 MSTORE POP POP JUMP JUMPDEST PUSH1 0x0 DUP2 SWAP1 POP SWAP2 SWAP1 POP JUMP JUMPDEST PUSH1 0x0 PUSH2 0xB82 PUSH2 0xB7D DUP4 PUSH2 0xAFD JUMP JUMPDEST PUSH2 0xB65 JUMP JUMPDEST SWAP1 POP SWAP2 SWAP1 POP JUMP JUMPDEST PUSH2 0xB92 DUP2 PUSH2 0x710 JUMP JUMPDEST DUP3 MSTORE POP POP JUMP JUMPDEST PUSH1 0x40 DUP3 ADD PUSH1 0x0 DUP1 DUP4 ADD SLOAD SWAP1 POP PUSH2 0xBAD DUP2 PUSH2 0xB2A JUMP JUMPDEST PUSH2 0xBBA PUSH1 0x0 DUP7 ADD DUP3 PUSH2 0xB56 JUMP JUMPDEST POP PUSH1 0x1 DUP4 ADD SLOAD SWAP1 POP PUSH2 0xBCB DUP2 PUSH2 0xB6F JUMP JUMPDEST PUSH2 0xBD8 PUSH1 0x20 DUP7 ADD DUP3 PUSH2 0xB89 JUMP JUMPDEST POP POP POP POP POP JUMP JUMPDEST PUSH1 0x0 PUSH2 0xBEB DUP4 DUP4 PUSH2 0xB98 JUMP JUMPDEST PUSH1 0x40 DUP4 ADD SWAP1 POP SWAP3 SWAP2 POP POP JUMP JUMPDEST PUSH1 0x0 PUSH1 0x2 DUP3 ADD SWAP1 POP SWAP2 SWAP1 POP JUMP JUMPDEST PUSH1 0x0 PUSH2 0xC0F DUP3 PUSH2 0xACC JUMP JUMPDEST PUSH2 0xC19 DUP2 DUP6 PUSH2 0xAD7 JUMP JUMPDEST SWAP4 POP PUSH2 0xC24 DUP4 PUSH2 0xAE8 JUMP JUMPDEST DUP1 PUSH1 0x0 JUMPDEST DUP4 DUP2 LT ISZERO PUSH2 0xC54 JUMPI DUP2 PUSH2 0xC3B DUP9 DUP3 PUSH2 0xBDF JUMP JUMPDEST SWAP8 POP PUSH2 0xC46 DUP4 PUSH2 0xBF7 JUMP JUMPDEST SWAP3 POP POP PUSH1 0x1 DUP2 ADD SWAP1 POP PUSH2 0xC28 JUMP JUMPDEST POP DUP6 SWAP4 POP POP POP POP SWAP3 SWAP2 POP POP JUMP JUMPDEST PUSH1 0x0 PUSH1 0x60 DUP3 ADD SWAP1 POP PUSH2 0xC76 PUSH1 0x0 DUP4 ADD DUP7 PUSH2 0x71A JUMP JUMPDEST PUSH2 0xC83 PUSH1 0x20 DUP4 ADD DUP6 PUSH2 0x71A JUMP JUMPDEST DUP2 DUP2 SUB PUSH1 0x40 DUP4 ADD MSTORE PUSH2 0xC95 DUP2 DUP5 PUSH2 0xC04 JUMP JUMPDEST SWAP1 POP SWAP5 SWAP4 POP POP POP POP JUMP JUMPDEST PUSH32 0x4E487B7100000000000000000000000000000000000000000000000000000000 PUSH1 0x0 MSTORE PUSH1 0x32 PUSH1 0x4 MSTORE PUSH1 0x24 PUSH1 0x0 REVERT JUMPDEST PUSH2 0xCD7 DUP2 PUSH2 0xB44 JUMP JUMPDEST DUP3 MSTORE POP POP JUMP JUMPDEST PUSH1 0x0 PUSH1 0x40 DUP3 ADD SWAP1 POP PUSH2 0xCF2 PUSH1 0x0 DUP4 ADD DUP6 PUSH2 0xCCE JUMP JUMPDEST PUSH2 0xCFF PUSH1 0x20 DUP4 ADD DUP5 PUSH2 0x71A JUMP JUMPDEST SWAP4 SWAP3 POP POP POP JUMP JUMPDEST PUSH32 0x61756374696F6E206861736E277420656E646564000000000000000000000000 PUSH1 0x0 DUP3 ADD MSTORE POP JUMP JUMPDEST PUSH1 0x0 PUSH2 0xD3C PUSH1 0x14 DUP4 PUSH2 0x7E9 JUMP JUMPDEST SWAP2 POP PUSH2 0xD47 DUP3 PUSH2 0xD06 JUMP JUMPDEST PUSH1 0x20 DUP3 ADD SWAP1 POP SWAP2 SWAP1 POP JUMP JUMPDEST PUSH1 0x0 PUSH1 0x20 DUP3 ADD SWAP1 POP DUP2 DUP2 SUB PUSH1 0x0 DUP4 ADD MSTORE PUSH2 0xD6B DUP2 PUSH2 0xD2F JUMP JUMPDEST SWAP1 POP SWAP2 SWAP1 POP JUMP JUMPDEST PUSH1 0x0 PUSH2 0xD7D DUP3 PUSH2 0x790 JUMP JUMPDEST SWAP1 POP SWAP2 SWAP1 POP JUMP JUMPDEST PUSH2 0xD8D DUP2 PUSH2 0xD72 JUMP JUMPDEST DUP3 MSTORE POP POP JUMP JUMPDEST PUSH1 0x0 PUSH1 0x60 DUP3 ADD SWAP1 POP PUSH2 0xDA8 PUSH1 0x0 DUP4 ADD DUP7 PUSH2 0xD84 JUMP JUMPDEST PUSH2 0xDB5 PUSH1 0x20 DUP4 ADD DUP6 PUSH2 0xCCE JUMP JUMPDEST PUSH2 0xDC2 PUSH1 0x40 DUP4 ADD DUP5 PUSH2 0x71A JUMP JUMPDEST SWAP5 SWAP4 POP POP POP POP JUMP INVALID LOG2 PUSH5 0x6970667358 0x22 SLT KECCAK256 0x22 0xD0 0xBE 0x2B 0xAA 0xC PUSH11 0x162E80F53595D26F6B14F9 SWAP12 0xAE DUP10 PUSH13 0x90EF8CDE32F1F626A04964736F PUSH13 0x63430008090033000000000000 "
		},
		"gasEstimates": {
			"creation": {
				"codeDepositCost": "716800",
				"executionCost": "infinite",
				"totalCost": "infinite"
			},
			"external": {
				"aucEnding()": "2495",
				"countWords()": "372",
				"endAuction()": "infinite",
				"forceEndAuction()": "46590",
				"latestBid()": "infinite",
				"nft()": "infinite",
				"nftId()": "2429",
				"timeLeft()": "infinite",
				"updateBiddingPrice()": "infinite"
			}
		},
		"methodIdentifiers": {
			"aucEnding()": "e5422944",
			"countWords()": "d4d33a6f",
			"endAuction()": "fe67a54b",
			"forceEndAuction()": "fd3b5a69",
			"latestBid()": "5dd672ec",
			"nft()": "47ccca02",
			"nftId()": "c6bc5182",
			"timeLeft()": "1300a6d1",
			"updateBiddingPrice()": "46297c1b"
		}
	},
	"abi": [
		{
			"inputs": [
				{
					"internalType": "address",
					"name": "_nftaddress",
					"type": "address"
				},
				{
					"internalType": "uint256",
					"name": "_nftId",
					"type": "uint256"
				},
				{
					"internalType": "string",
					"name": "_desc",
					"type": "string"
				}
			],
			"stateMutability": "nonpayable",
			"type": "constructor"
		},
		{
			"anonymous": false,
			"inputs": [
				{
					"indexed": false,
					"internalType": "uint256",
					"name": "price",
					"type": "uint256"
				},
				{
					"indexed": false,
					"internalType": "uint256",
					"name": "auctionEnd",
					"type": "uint256"
				},
				{
					"components": [
						{
							"internalType": "address",
							"name": "addr",
							"type": "address"
						},
						{
							"internalType": "uint256",
							"name": "price",
							"type": "uint256"
						}
					],
					"indexed": false,
					"internalType": "struct Auction.Bid[]",
					"name": "history",
					"type": "tuple[]"
				}
			],
			"name": "bidUpdated",
			"type": "event"
		},
		{
			"anonymous": false,
			"inputs": [
				{
					"indexed": false,
					"internalType": "address",
					"name": "_address",
					"type": "address"
				},
				{
					"indexed": false,
					"internalType": "uint256",
					"name": "price",
					"type": "uint256"
				}
			],
			"name": "latest",
			"type": "event"
		},
		{
			"inputs": [],
			"name": "aucEnding",
			"outputs": [
				{
					"internalType": "bool",
					"name": "",
					"type": "bool"
				}
			],
			"stateMutability": "view",
			"type": "function"
		},
		{
			"inputs": [],
			"name": "countWords",
			"outputs": [
				{
					"internalType": "uint256",
					"name": "",
					"type": "uint256"
				}
			],
			"stateMutability": "pure",
			"type": "function"
		},
		{
			"inputs": [],
			"name": "endAuction",
			"outputs": [],
			"stateMutability": "payable",
			"type": "function"
		},
		{
			"inputs": [],
			"name": "forceEndAuction",
			"outputs": [],
			"stateMutability": "nonpayable",
			"type": "function"
		},
		{
			"inputs": [],
			"name": "latestBid",
			"outputs": [
				{
					"internalType": "string",
					"name": "",
					"type": "string"
				}
			],
			"stateMutability": "nonpayable",
			"type": "function"
		},
		{
			"inputs": [],
			"name": "nft",
			"outputs": [
				{
					"internalType": "contract IERC721",
					"name": "",
					"type": "address"
				}
			],
			"stateMutability": "view",
			"type": "function"
		},
		{
			"inputs": [],
			"name": "nftId",
			"outputs": [
				{
					"internalType": "uint256",
					"name": "",
					"type": "uint256"
				}
			],
			"stateMutability": "view",
			"type": "function"
		},
		{
			"inputs": [],
			"name": "timeLeft",
			"outputs": [
				{
					"internalType": "uint256",
					"name": "",
					"type": "uint256"
				}
			],
			"stateMutability": "view",
			"type": "function"
		},
		{
			"inputs": [],
			"name": "updateBiddingPrice",
			"outputs": [],
			"stateMutability": "payable",
			"type": "function"
		}
	]
}