{
	"data": {
		"bytecode": {
			"linkReferences": {},
			"object": "60806040523480156200001157600080fd5b5060405162001051380380620010518339818101604052810190620000379190620003c6565b80620000486200013060201b60201c565b6064116200008d576040517f08c379a000000000000000000000000000000000000000000000000000000000815260040162000084906200048d565b60405180910390fd5b8160029080519060200190620000a59291906200013e565b50336000806101000a81548173ffffffffffffffffffffffffffffffffffffffff021916908373ffffffffffffffffffffffffffffffffffffffff16021790555043600381905550618ca0600354620000ff9190620004de565b600481905550826001819055506000600560006101000a81548160ff021916908315150217905550505050620005a0565b600080600090508091505090565b8280546200014c906200056a565b90600052602060002090601f016020900481019282620001705760008555620001bc565b82601f106200018b57805160ff1916838001178555620001bc565b82800160010185558215620001bc579182015b82811115620001bb5782518255916020019190600101906200019e565b5b509050620001cb9190620001cf565b5090565b5b80821115620001ea576000816000905550600101620001d0565b5090565b6000604051905090565b600080fd5b600080fd5b6000819050919050565b620002178162000202565b81146200022357600080fd5b50565b60008151905062000237816200020c565b92915050565b600080fd5b600080fd5b6000601f19601f8301169050919050565b7f4e487b7100000000000000000000000000000000000000000000000000000000600052604160045260246000fd5b620002928262000247565b810181811067ffffffffffffffff82111715620002b457620002b362000258565b5b80604052505050565b6000620002c9620001ee565b9050620002d7828262000287565b919050565b600067ffffffffffffffff821115620002fa57620002f962000258565b5b620003058262000247565b9050602081019050919050565b60005b838110156200033257808201518184015260208101905062000315565b8381111562000342576000848401525b50505050565b60006200035f6200035984620002dc565b620002bd565b9050828152602081018484840111156200037e576200037d62000242565b5b6200038b84828562000312565b509392505050565b600082601f830112620003ab57620003aa6200023d565b5b8151620003bd84826020860162000348565b91505092915050565b60008060408385031215620003e057620003df620001f8565b5b6000620003f08582860162000226565b925050602083015167ffffffffffffffff811115620004145762000413620001fd565b5b620004228582860162000393565b9150509250929050565b600082825260208201905092915050565b7f776f72647320746f6f2068696768000000000000000000000000000000000000600082015250565b600062000475600e836200042c565b915062000482826200043d565b602082019050919050565b60006020820190508181036000830152620004a88162000466565b9050919050565b7f4e487b7100000000000000000000000000000000000000000000000000000000600052601160045260246000fd5b6000620004eb8262000202565b9150620004f88362000202565b9250827fffffffffffffffffffffffffffffffffffffffffffffffffffffffffffffffff0382111562000530576200052f620004af565b5b828201905092915050565b7f4e487b7100000000000000000000000000000000000000000000000000000000600052602260045260246000fd5b600060028204905060018216806200058357607f821691505b602082108114156200059a57620005996200053b565b5b50919050565b610aa180620005b06000396000f3fe608060405234801561001057600080fd5b50600436106100b45760003560e01c8063c6bc518211610071578063c6bc518214610169578063d4d33a6f14610187578063e5422944146101a5578063e7c03e57146101c3578063fd3b5a69146101e1578063fe67a54b146101eb576100b4565b80631300a6d1146100b957806347ccca02146100d75780635dd672ec146100f5578063901f6552146101135780639f2d6b4514610131578063b896023f1461014d575b600080fd5b6100c16101f5565b6040516100ce919061058b565b60405180910390f35b6100df61020a565b6040516100ec9190610625565b60405180910390f35b6100fd610230565b60405161010a91906106d9565b60405180910390f35b61011b61027f565b604051610128919061071c565b60405180910390f35b61014b60048036038101906101469190610768565b6102a8565b005b610167600480360381019061016291906107c1565b61045d565b005b6101716104a9565b60405161017e919061058b565b60405180910390f35b61018f6104af565b60405161019c919061058b565b60405180910390f35b6101ad6104bd565b6040516101ba919061081c565b60405180910390f35b6101cb6104ca565b6040516101d8919061058b565b60405180910390f35b6101e96104d4565b005b6101f36104dd565b005b6000436004546102059190610866565b905090565b600560019054906101000a900473ffffffffffffffffffffffffffffffffffffffff1681565b60607e07f4a0e162470e17be3635daf366f38cf61529b24227a8df481cbd19d753e6600154604051610262919061058b565b60405180910390a160405180602001604052806000815250905090565b60008060009054906101000a900473ffffffffffffffffffffffffffffffffffffffff16905090565b806001548110156102ee576040517f08c379a00000000000000000000000000000000000000000000000000000000081526004016102e5906108e6565b60405180910390fd5b6102f66104bd565b15610336576040517f08c379a000000000000000000000000000000000000000000000000000000000815260040161032d90610952565b60405180910390fd5b813373ffffffffffffffffffffffffffffffffffffffff16311161038f576040517f08c379a0000000000000000000000000000000000000000000000000000000008152600401610386906109be565b60405180910390fd5b6000600460008282546103a291906109de565b9250508190555081600181905550600760405180604001604052803373ffffffffffffffffffffffffffffffffffffffff16815260200184815250908060018154018082558091505060019003906000526020600020906002020160009091909190915060008201518160000160006101000a81548173ffffffffffffffffffffffffffffffffffffffff021916908373ffffffffffffffffffffffffffffffffffffffff1602179055506020820151816001015550505050565b81600560016101000a81548173ffffffffffffffffffffffffffffffffffffffff021916908373ffffffffffffffffffffffffffffffffffffffff160217905550806006819055505050565b60065481565b600080600090508091505090565b6000436004541115905090565b6000600154905090565b43600481905550565b600560019054906101000a900473ffffffffffffffffffffffffffffffffffffffff1673ffffffffffffffffffffffffffffffffffffffff166342842e0e30336006546040518463ffffffff1660e01b815260040161053e93929190610a34565b600060405180830381600087803b15801561055857600080fd5b505af115801561056c573d6000803e3d6000fd5b50505050565b6000819050919050565b61058581610572565b82525050565b60006020820190506105a0600083018461057c565b92915050565b600073ffffffffffffffffffffffffffffffffffffffff82169050919050565b6000819050919050565b60006105eb6105e66105e1846105a6565b6105c6565b6105a6565b9050919050565b60006105fd826105d0565b9050919050565b600061060f826105f2565b9050919050565b61061f81610604565b82525050565b600060208201905061063a6000830184610616565b92915050565b600081519050919050565b600082825260208201905092915050565b60005b8381101561067a57808201518184015260208101905061065f565b83811115610689576000848401525b50505050565b6000601f19601f8301169050919050565b60006106ab82610640565b6106b5818561064b565b93506106c581856020860161065c565b6106ce8161068f565b840191505092915050565b600060208201905081810360008301526106f381846106a0565b905092915050565b6000610706826105a6565b9050919050565b610716816106fb565b82525050565b6000602082019050610731600083018461070d565b92915050565b600080fd5b61074581610572565b811461075057600080fd5b50565b6000813590506107628161073c565b92915050565b60006020828403121561077e5761077d610737565b5b600061078c84828501610753565b91505092915050565b61079e816106fb565b81146107a957600080fd5b50565b6000813590506107bb81610795565b92915050565b600080604083850312156107d8576107d7610737565b5b60006107e6858286016107ac565b92505060206107f785828601610753565b9150509250929050565b60008115159050919050565b61081681610801565b82525050565b6000602082019050610831600083018461080d565b92915050565b7f4e487b7100000000000000000000000000000000000000000000000000000000600052601160045260246000fd5b600061087182610572565b915061087c83610572565b92508282101561088f5761088e610837565b5b828203905092915050565b7f62696420746f6f206c6f77000000000000000000000000000000000000000000600082015250565b60006108d0600b8361064b565b91506108db8261089a565b602082019050919050565b600060208201905081810360008301526108ff816108c3565b9050919050565b7f61756374696f6e20697320616c7265616479206f766572000000000000000000600082015250565b600061093c60178361064b565b915061094782610906565b602082019050919050565b6000602082019050818103600083015261096b8161092f565b9050919050565b7f752062726f6b6500000000000000000000000000000000000000000000000000600082015250565b60006109a860078361064b565b91506109b382610972565b602082019050919050565b600060208201905081810360008301526109d78161099b565b9050919050565b60006109e982610572565b91506109f483610572565b9250827fffffffffffffffffffffffffffffffffffffffffffffffffffffffffffffffff03821115610a2957610a28610837565b5b828201905092915050565b6000606082019050610a49600083018661070d565b610a56602083018561070d565b610a63604083018461057c565b94935050505056fea2646970667358221220404d3e46a8231046d68238b50513c3fd03a7c0fd7fd1bc761169957f9a72fa9c64736f6c634300080a0033",
			"opcodes": "PUSH1 0x80 PUSH1 0x40 MSTORE CALLVALUE DUP1 ISZERO PUSH3 0x11 JUMPI PUSH1 0x0 DUP1 REVERT JUMPDEST POP PUSH1 0x40 MLOAD PUSH3 0x1051 CODESIZE SUB DUP1 PUSH3 0x1051 DUP4 CODECOPY DUP2 DUP2 ADD PUSH1 0x40 MSTORE DUP2 ADD SWAP1 PUSH3 0x37 SWAP2 SWAP1 PUSH3 0x3C6 JUMP JUMPDEST DUP1 PUSH3 0x48 PUSH3 0x130 PUSH1 0x20 SHL PUSH1 0x20 SHR JUMP JUMPDEST PUSH1 0x64 GT PUSH3 0x8D JUMPI PUSH1 0x40 MLOAD PUSH32 0x8C379A000000000000000000000000000000000000000000000000000000000 DUP2 MSTORE PUSH1 0x4 ADD PUSH3 0x84 SWAP1 PUSH3 0x48D JUMP JUMPDEST PUSH1 0x40 MLOAD DUP1 SWAP2 SUB SWAP1 REVERT JUMPDEST DUP2 PUSH1 0x2 SWAP1 DUP1 MLOAD SWAP1 PUSH1 0x20 ADD SWAP1 PUSH3 0xA5 SWAP3 SWAP2 SWAP1 PUSH3 0x13E JUMP JUMPDEST POP CALLER PUSH1 0x0 DUP1 PUSH2 0x100 EXP DUP2 SLOAD DUP2 PUSH20 0xFFFFFFFFFFFFFFFFFFFFFFFFFFFFFFFFFFFFFFFF MUL NOT AND SWAP1 DUP4 PUSH20 0xFFFFFFFFFFFFFFFFFFFFFFFFFFFFFFFFFFFFFFFF AND MUL OR SWAP1 SSTORE POP NUMBER PUSH1 0x3 DUP2 SWAP1 SSTORE POP PUSH2 0x8CA0 PUSH1 0x3 SLOAD PUSH3 0xFF SWAP2 SWAP1 PUSH3 0x4DE JUMP JUMPDEST PUSH1 0x4 DUP2 SWAP1 SSTORE POP DUP3 PUSH1 0x1 DUP2 SWAP1 SSTORE POP PUSH1 0x0 PUSH1 0x5 PUSH1 0x0 PUSH2 0x100 EXP DUP2 SLOAD DUP2 PUSH1 0xFF MUL NOT AND SWAP1 DUP4 ISZERO ISZERO MUL OR SWAP1 SSTORE POP POP POP POP PUSH3 0x5A0 JUMP JUMPDEST PUSH1 0x0 DUP1 PUSH1 0x0 SWAP1 POP DUP1 SWAP2 POP POP SWAP1 JUMP JUMPDEST DUP3 DUP1 SLOAD PUSH3 0x14C SWAP1 PUSH3 0x56A JUMP JUMPDEST SWAP1 PUSH1 0x0 MSTORE PUSH1 0x20 PUSH1 0x0 KECCAK256 SWAP1 PUSH1 0x1F ADD PUSH1 0x20 SWAP1 DIV DUP2 ADD SWAP3 DUP3 PUSH3 0x170 JUMPI PUSH1 0x0 DUP6 SSTORE PUSH3 0x1BC JUMP JUMPDEST DUP3 PUSH1 0x1F LT PUSH3 0x18B JUMPI DUP1 MLOAD PUSH1 0xFF NOT AND DUP4 DUP1 ADD OR DUP6 SSTORE PUSH3 0x1BC JUMP JUMPDEST DUP3 DUP1 ADD PUSH1 0x1 ADD DUP6 SSTORE DUP3 ISZERO PUSH3 0x1BC JUMPI SWAP2 DUP3 ADD JUMPDEST DUP3 DUP2 GT ISZERO PUSH3 0x1BB JUMPI DUP3 MLOAD DUP3 SSTORE SWAP2 PUSH1 0x20 ADD SWAP2 SWAP1 PUSH1 0x1 ADD SWAP1 PUSH3 0x19E JUMP JUMPDEST JUMPDEST POP SWAP1 POP PUSH3 0x1CB SWAP2 SWAP1 PUSH3 0x1CF JUMP JUMPDEST POP SWAP1 JUMP JUMPDEST JUMPDEST DUP1 DUP3 GT ISZERO PUSH3 0x1EA JUMPI PUSH1 0x0 DUP2 PUSH1 0x0 SWAP1 SSTORE POP PUSH1 0x1 ADD PUSH3 0x1D0 JUMP JUMPDEST POP SWAP1 JUMP JUMPDEST PUSH1 0x0 PUSH1 0x40 MLOAD SWAP1 POP SWAP1 JUMP JUMPDEST PUSH1 0x0 DUP1 REVERT JUMPDEST PUSH1 0x0 DUP1 REVERT JUMPDEST PUSH1 0x0 DUP2 SWAP1 POP SWAP2 SWAP1 POP JUMP JUMPDEST PUSH3 0x217 DUP2 PUSH3 0x202 JUMP JUMPDEST DUP2 EQ PUSH3 0x223 JUMPI PUSH1 0x0 DUP1 REVERT JUMPDEST POP JUMP JUMPDEST PUSH1 0x0 DUP2 MLOAD SWAP1 POP PUSH3 0x237 DUP2 PUSH3 0x20C JUMP JUMPDEST SWAP3 SWAP2 POP POP JUMP JUMPDEST PUSH1 0x0 DUP1 REVERT JUMPDEST PUSH1 0x0 DUP1 REVERT JUMPDEST PUSH1 0x0 PUSH1 0x1F NOT PUSH1 0x1F DUP4 ADD AND SWAP1 POP SWAP2 SWAP1 POP JUMP JUMPDEST PUSH32 0x4E487B7100000000000000000000000000000000000000000000000000000000 PUSH1 0x0 MSTORE PUSH1 0x41 PUSH1 0x4 MSTORE PUSH1 0x24 PUSH1 0x0 REVERT JUMPDEST PUSH3 0x292 DUP3 PUSH3 0x247 JUMP JUMPDEST DUP2 ADD DUP2 DUP2 LT PUSH8 0xFFFFFFFFFFFFFFFF DUP3 GT OR ISZERO PUSH3 0x2B4 JUMPI PUSH3 0x2B3 PUSH3 0x258 JUMP JUMPDEST JUMPDEST DUP1 PUSH1 0x40 MSTORE POP POP POP JUMP JUMPDEST PUSH1 0x0 PUSH3 0x2C9 PUSH3 0x1EE JUMP JUMPDEST SWAP1 POP PUSH3 0x2D7 DUP3 DUP3 PUSH3 0x287 JUMP JUMPDEST SWAP2 SWAP1 POP JUMP JUMPDEST PUSH1 0x0 PUSH8 0xFFFFFFFFFFFFFFFF DUP3 GT ISZERO PUSH3 0x2FA JUMPI PUSH3 0x2F9 PUSH3 0x258 JUMP JUMPDEST JUMPDEST PUSH3 0x305 DUP3 PUSH3 0x247 JUMP JUMPDEST SWAP1 POP PUSH1 0x20 DUP2 ADD SWAP1 POP SWAP2 SWAP1 POP JUMP JUMPDEST PUSH1 0x0 JUMPDEST DUP4 DUP2 LT ISZERO PUSH3 0x332 JUMPI DUP1 DUP3 ADD MLOAD DUP2 DUP5 ADD MSTORE PUSH1 0x20 DUP2 ADD SWAP1 POP PUSH3 0x315 JUMP JUMPDEST DUP4 DUP2 GT ISZERO PUSH3 0x342 JUMPI PUSH1 0x0 DUP5 DUP5 ADD MSTORE JUMPDEST POP POP POP POP JUMP JUMPDEST PUSH1 0x0 PUSH3 0x35F PUSH3 0x359 DUP5 PUSH3 0x2DC JUMP JUMPDEST PUSH3 0x2BD JUMP JUMPDEST SWAP1 POP DUP3 DUP2 MSTORE PUSH1 0x20 DUP2 ADD DUP5 DUP5 DUP5 ADD GT ISZERO PUSH3 0x37E JUMPI PUSH3 0x37D PUSH3 0x242 JUMP JUMPDEST JUMPDEST PUSH3 0x38B DUP5 DUP3 DUP6 PUSH3 0x312 JUMP JUMPDEST POP SWAP4 SWAP3 POP POP POP JUMP JUMPDEST PUSH1 0x0 DUP3 PUSH1 0x1F DUP4 ADD SLT PUSH3 0x3AB JUMPI PUSH3 0x3AA PUSH3 0x23D JUMP JUMPDEST JUMPDEST DUP2 MLOAD PUSH3 0x3BD DUP5 DUP3 PUSH1 0x20 DUP7 ADD PUSH3 0x348 JUMP JUMPDEST SWAP2 POP POP SWAP3 SWAP2 POP POP JUMP JUMPDEST PUSH1 0x0 DUP1 PUSH1 0x40 DUP4 DUP6 SUB SLT ISZERO PUSH3 0x3E0 JUMPI PUSH3 0x3DF PUSH3 0x1F8 JUMP JUMPDEST JUMPDEST PUSH1 0x0 PUSH3 0x3F0 DUP6 DUP3 DUP7 ADD PUSH3 0x226 JUMP JUMPDEST SWAP3 POP POP PUSH1 0x20 DUP4 ADD MLOAD PUSH8 0xFFFFFFFFFFFFFFFF DUP2 GT ISZERO PUSH3 0x414 JUMPI PUSH3 0x413 PUSH3 0x1FD JUMP JUMPDEST JUMPDEST PUSH3 0x422 DUP6 DUP3 DUP7 ADD PUSH3 0x393 JUMP JUMPDEST SWAP2 POP POP SWAP3 POP SWAP3 SWAP1 POP JUMP JUMPDEST PUSH1 0x0 DUP3 DUP3 MSTORE PUSH1 0x20 DUP3 ADD SWAP1 POP SWAP3 SWAP2 POP POP JUMP JUMPDEST PUSH32 0x776F72647320746F6F2068696768000000000000000000000000000000000000 PUSH1 0x0 DUP3 ADD MSTORE POP JUMP JUMPDEST PUSH1 0x0 PUSH3 0x475 PUSH1 0xE DUP4 PUSH3 0x42C JUMP JUMPDEST SWAP2 POP PUSH3 0x482 DUP3 PUSH3 0x43D JUMP JUMPDEST PUSH1 0x20 DUP3 ADD SWAP1 POP SWAP2 SWAP1 POP JUMP JUMPDEST PUSH1 0x0 PUSH1 0x20 DUP3 ADD SWAP1 POP DUP2 DUP2 SUB PUSH1 0x0 DUP4 ADD MSTORE PUSH3 0x4A8 DUP2 PUSH3 0x466 JUMP JUMPDEST SWAP1 POP SWAP2 SWAP1 POP JUMP JUMPDEST PUSH32 0x4E487B7100000000000000000000000000000000000000000000000000000000 PUSH1 0x0 MSTORE PUSH1 0x11 PUSH1 0x4 MSTORE PUSH1 0x24 PUSH1 0x0 REVERT JUMPDEST PUSH1 0x0 PUSH3 0x4EB DUP3 PUSH3 0x202 JUMP JUMPDEST SWAP2 POP PUSH3 0x4F8 DUP4 PUSH3 0x202 JUMP JUMPDEST SWAP3 POP DUP3 PUSH32 0xFFFFFFFFFFFFFFFFFFFFFFFFFFFFFFFFFFFFFFFFFFFFFFFFFFFFFFFFFFFFFFFF SUB DUP3 GT ISZERO PUSH3 0x530 JUMPI PUSH3 0x52F PUSH3 0x4AF JUMP JUMPDEST JUMPDEST DUP3 DUP3 ADD SWAP1 POP SWAP3 SWAP2 POP POP JUMP JUMPDEST PUSH32 0x4E487B7100000000000000000000000000000000000000000000000000000000 PUSH1 0x0 MSTORE PUSH1 0x22 PUSH1 0x4 MSTORE PUSH1 0x24 PUSH1 0x0 REVERT JUMPDEST PUSH1 0x0 PUSH1 0x2 DUP3 DIV SWAP1 POP PUSH1 0x1 DUP3 AND DUP1 PUSH3 0x583 JUMPI PUSH1 0x7F DUP3 AND SWAP2 POP JUMPDEST PUSH1 0x20 DUP3 LT DUP2 EQ ISZERO PUSH3 0x59A JUMPI PUSH3 0x599 PUSH3 0x53B JUMP JUMPDEST JUMPDEST POP SWAP2 SWAP1 POP JUMP JUMPDEST PUSH2 0xAA1 DUP1 PUSH3 0x5B0 PUSH1 0x0 CODECOPY PUSH1 0x0 RETURN INVALID PUSH1 0x80 PUSH1 0x40 MSTORE CALLVALUE DUP1 ISZERO PUSH2 0x10 JUMPI PUSH1 0x0 DUP1 REVERT JUMPDEST POP PUSH1 0x4 CALLDATASIZE LT PUSH2 0xB4 JUMPI PUSH1 0x0 CALLDATALOAD PUSH1 0xE0 SHR DUP1 PUSH4 0xC6BC5182 GT PUSH2 0x71 JUMPI DUP1 PUSH4 0xC6BC5182 EQ PUSH2 0x169 JUMPI DUP1 PUSH4 0xD4D33A6F EQ PUSH2 0x187 JUMPI DUP1 PUSH4 0xE5422944 EQ PUSH2 0x1A5 JUMPI DUP1 PUSH4 0xE7C03E57 EQ PUSH2 0x1C3 JUMPI DUP1 PUSH4 0xFD3B5A69 EQ PUSH2 0x1E1 JUMPI DUP1 PUSH4 0xFE67A54B EQ PUSH2 0x1EB JUMPI PUSH2 0xB4 JUMP JUMPDEST DUP1 PUSH4 0x1300A6D1 EQ PUSH2 0xB9 JUMPI DUP1 PUSH4 0x47CCCA02 EQ PUSH2 0xD7 JUMPI DUP1 PUSH4 0x5DD672EC EQ PUSH2 0xF5 JUMPI DUP1 PUSH4 0x901F6552 EQ PUSH2 0x113 JUMPI DUP1 PUSH4 0x9F2D6B45 EQ PUSH2 0x131 JUMPI DUP1 PUSH4 0xB896023F EQ PUSH2 0x14D JUMPI JUMPDEST PUSH1 0x0 DUP1 REVERT JUMPDEST PUSH2 0xC1 PUSH2 0x1F5 JUMP JUMPDEST PUSH1 0x40 MLOAD PUSH2 0xCE SWAP2 SWAP1 PUSH2 0x58B JUMP JUMPDEST PUSH1 0x40 MLOAD DUP1 SWAP2 SUB SWAP1 RETURN JUMPDEST PUSH2 0xDF PUSH2 0x20A JUMP JUMPDEST PUSH1 0x40 MLOAD PUSH2 0xEC SWAP2 SWAP1 PUSH2 0x625 JUMP JUMPDEST PUSH1 0x40 MLOAD DUP1 SWAP2 SUB SWAP1 RETURN JUMPDEST PUSH2 0xFD PUSH2 0x230 JUMP JUMPDEST PUSH1 0x40 MLOAD PUSH2 0x10A SWAP2 SWAP1 PUSH2 0x6D9 JUMP JUMPDEST PUSH1 0x40 MLOAD DUP1 SWAP2 SUB SWAP1 RETURN JUMPDEST PUSH2 0x11B PUSH2 0x27F JUMP JUMPDEST PUSH1 0x40 MLOAD PUSH2 0x128 SWAP2 SWAP1 PUSH2 0x71C JUMP JUMPDEST PUSH1 0x40 MLOAD DUP1 SWAP2 SUB SWAP1 RETURN JUMPDEST PUSH2 0x14B PUSH1 0x4 DUP1 CALLDATASIZE SUB DUP2 ADD SWAP1 PUSH2 0x146 SWAP2 SWAP1 PUSH2 0x768 JUMP JUMPDEST PUSH2 0x2A8 JUMP JUMPDEST STOP JUMPDEST PUSH2 0x167 PUSH1 0x4 DUP1 CALLDATASIZE SUB DUP2 ADD SWAP1 PUSH2 0x162 SWAP2 SWAP1 PUSH2 0x7C1 JUMP JUMPDEST PUSH2 0x45D JUMP JUMPDEST STOP JUMPDEST PUSH2 0x171 PUSH2 0x4A9 JUMP JUMPDEST PUSH1 0x40 MLOAD PUSH2 0x17E SWAP2 SWAP1 PUSH2 0x58B JUMP JUMPDEST PUSH1 0x40 MLOAD DUP1 SWAP2 SUB SWAP1 RETURN JUMPDEST PUSH2 0x18F PUSH2 0x4AF JUMP JUMPDEST PUSH1 0x40 MLOAD PUSH2 0x19C SWAP2 SWAP1 PUSH2 0x58B JUMP JUMPDEST PUSH1 0x40 MLOAD DUP1 SWAP2 SUB SWAP1 RETURN JUMPDEST PUSH2 0x1AD PUSH2 0x4BD JUMP JUMPDEST PUSH1 0x40 MLOAD PUSH2 0x1BA SWAP2 SWAP1 PUSH2 0x81C JUMP JUMPDEST PUSH1 0x40 MLOAD DUP1 SWAP2 SUB SWAP1 RETURN JUMPDEST PUSH2 0x1CB PUSH2 0x4CA JUMP JUMPDEST PUSH1 0x40 MLOAD PUSH2 0x1D8 SWAP2 SWAP1 PUSH2 0x58B JUMP JUMPDEST PUSH1 0x40 MLOAD DUP1 SWAP2 SUB SWAP1 RETURN JUMPDEST PUSH2 0x1E9 PUSH2 0x4D4 JUMP JUMPDEST STOP JUMPDEST PUSH2 0x1F3 PUSH2 0x4DD JUMP JUMPDEST STOP JUMPDEST PUSH1 0x0 NUMBER PUSH1 0x4 SLOAD PUSH2 0x205 SWAP2 SWAP1 PUSH2 0x866 JUMP JUMPDEST SWAP1 POP SWAP1 JUMP JUMPDEST PUSH1 0x5 PUSH1 0x1 SWAP1 SLOAD SWAP1 PUSH2 0x100 EXP SWAP1 DIV PUSH20 0xFFFFFFFFFFFFFFFFFFFFFFFFFFFFFFFFFFFFFFFF AND DUP2 JUMP JUMPDEST PUSH1 0x60 PUSH31 0x7F4A0E162470E17BE3635DAF366F38CF61529B24227A8DF481CBD19D753E6 PUSH1 0x1 SLOAD PUSH1 0x40 MLOAD PUSH2 0x262 SWAP2 SWAP1 PUSH2 0x58B JUMP JUMPDEST PUSH1 0x40 MLOAD DUP1 SWAP2 SUB SWAP1 LOG1 PUSH1 0x40 MLOAD DUP1 PUSH1 0x20 ADD PUSH1 0x40 MSTORE DUP1 PUSH1 0x0 DUP2 MSTORE POP SWAP1 POP SWAP1 JUMP JUMPDEST PUSH1 0x0 DUP1 PUSH1 0x0 SWAP1 SLOAD SWAP1 PUSH2 0x100 EXP SWAP1 DIV PUSH20 0xFFFFFFFFFFFFFFFFFFFFFFFFFFFFFFFFFFFFFFFF AND SWAP1 POP SWAP1 JUMP JUMPDEST DUP1 PUSH1 0x1 SLOAD DUP2 LT ISZERO PUSH2 0x2EE JUMPI PUSH1 0x40 MLOAD PUSH32 0x8C379A000000000000000000000000000000000000000000000000000000000 DUP2 MSTORE PUSH1 0x4 ADD PUSH2 0x2E5 SWAP1 PUSH2 0x8E6 JUMP JUMPDEST PUSH1 0x40 MLOAD DUP1 SWAP2 SUB SWAP1 REVERT JUMPDEST PUSH2 0x2F6 PUSH2 0x4BD JUMP JUMPDEST ISZERO PUSH2 0x336 JUMPI PUSH1 0x40 MLOAD PUSH32 0x8C379A000000000000000000000000000000000000000000000000000000000 DUP2 MSTORE PUSH1 0x4 ADD PUSH2 0x32D SWAP1 PUSH2 0x952 JUMP JUMPDEST PUSH1 0x40 MLOAD DUP1 SWAP2 SUB SWAP1 REVERT JUMPDEST DUP2 CALLER PUSH20 0xFFFFFFFFFFFFFFFFFFFFFFFFFFFFFFFFFFFFFFFF AND BALANCE GT PUSH2 0x38F JUMPI PUSH1 0x40 MLOAD PUSH32 0x8C379A000000000000000000000000000000000000000000000000000000000 DUP2 MSTORE PUSH1 0x4 ADD PUSH2 0x386 SWAP1 PUSH2 0x9BE JUMP JUMPDEST PUSH1 0x40 MLOAD DUP1 SWAP2 SUB SWAP1 REVERT JUMPDEST PUSH1 0x0 PUSH1 0x4 PUSH1 0x0 DUP3 DUP3 SLOAD PUSH2 0x3A2 SWAP2 SWAP1 PUSH2 0x9DE JUMP JUMPDEST SWAP3 POP POP DUP2 SWAP1 SSTORE POP DUP2 PUSH1 0x1 DUP2 SWAP1 SSTORE POP PUSH1 0x7 PUSH1 0x40 MLOAD DUP1 PUSH1 0x40 ADD PUSH1 0x40 MSTORE DUP1 CALLER PUSH20 0xFFFFFFFFFFFFFFFFFFFFFFFFFFFFFFFFFFFFFFFF AND DUP2 MSTORE PUSH1 0x20 ADD DUP5 DUP2 MSTORE POP SWAP1 DUP1 PUSH1 0x1 DUP2 SLOAD ADD DUP1 DUP3 SSTORE DUP1 SWAP2 POP POP PUSH1 0x1 SWAP1 SUB SWAP1 PUSH1 0x0 MSTORE PUSH1 0x20 PUSH1 0x0 KECCAK256 SWAP1 PUSH1 0x2 MUL ADD PUSH1 0x0 SWAP1 SWAP2 SWAP1 SWAP2 SWAP1 SWAP2 POP PUSH1 0x0 DUP3 ADD MLOAD DUP2 PUSH1 0x0 ADD PUSH1 0x0 PUSH2 0x100 EXP DUP2 SLOAD DUP2 PUSH20 0xFFFFFFFFFFFFFFFFFFFFFFFFFFFFFFFFFFFFFFFF MUL NOT AND SWAP1 DUP4 PUSH20 0xFFFFFFFFFFFFFFFFFFFFFFFFFFFFFFFFFFFFFFFF AND MUL OR SWAP1 SSTORE POP PUSH1 0x20 DUP3 ADD MLOAD DUP2 PUSH1 0x1 ADD SSTORE POP POP POP POP JUMP JUMPDEST DUP2 PUSH1 0x5 PUSH1 0x1 PUSH2 0x100 EXP DUP2 SLOAD DUP2 PUSH20 0xFFFFFFFFFFFFFFFFFFFFFFFFFFFFFFFFFFFFFFFF MUL NOT AND SWAP1 DUP4 PUSH20 0xFFFFFFFFFFFFFFFFFFFFFFFFFFFFFFFFFFFFFFFF AND MUL OR SWAP1 SSTORE POP DUP1 PUSH1 0x6 DUP2 SWAP1 SSTORE POP POP POP JUMP JUMPDEST PUSH1 0x6 SLOAD DUP2 JUMP JUMPDEST PUSH1 0x0 DUP1 PUSH1 0x0 SWAP1 POP DUP1 SWAP2 POP POP SWAP1 JUMP JUMPDEST PUSH1 0x0 NUMBER PUSH1 0x4 SLOAD GT ISZERO SWAP1 POP SWAP1 JUMP JUMPDEST PUSH1 0x0 PUSH1 0x1 SLOAD SWAP1 POP SWAP1 JUMP JUMPDEST NUMBER PUSH1 0x4 DUP2 SWAP1 SSTORE POP JUMP JUMPDEST PUSH1 0x5 PUSH1 0x1 SWAP1 SLOAD SWAP1 PUSH2 0x100 EXP SWAP1 DIV PUSH20 0xFFFFFFFFFFFFFFFFFFFFFFFFFFFFFFFFFFFFFFFF AND PUSH20 0xFFFFFFFFFFFFFFFFFFFFFFFFFFFFFFFFFFFFFFFF AND PUSH4 0x42842E0E ADDRESS CALLER PUSH1 0x6 SLOAD PUSH1 0x40 MLOAD DUP5 PUSH4 0xFFFFFFFF AND PUSH1 0xE0 SHL DUP2 MSTORE PUSH1 0x4 ADD PUSH2 0x53E SWAP4 SWAP3 SWAP2 SWAP1 PUSH2 0xA34 JUMP JUMPDEST PUSH1 0x0 PUSH1 0x40 MLOAD DUP1 DUP4 SUB DUP2 PUSH1 0x0 DUP8 DUP1 EXTCODESIZE ISZERO DUP1 ISZERO PUSH2 0x558 JUMPI PUSH1 0x0 DUP1 REVERT JUMPDEST POP GAS CALL ISZERO DUP1 ISZERO PUSH2 0x56C JUMPI RETURNDATASIZE PUSH1 0x0 DUP1 RETURNDATACOPY RETURNDATASIZE PUSH1 0x0 REVERT JUMPDEST POP POP POP POP JUMP JUMPDEST PUSH1 0x0 DUP2 SWAP1 POP SWAP2 SWAP1 POP JUMP JUMPDEST PUSH2 0x585 DUP2 PUSH2 0x572 JUMP JUMPDEST DUP3 MSTORE POP POP JUMP JUMPDEST PUSH1 0x0 PUSH1 0x20 DUP3 ADD SWAP1 POP PUSH2 0x5A0 PUSH1 0x0 DUP4 ADD DUP5 PUSH2 0x57C JUMP JUMPDEST SWAP3 SWAP2 POP POP JUMP JUMPDEST PUSH1 0x0 PUSH20 0xFFFFFFFFFFFFFFFFFFFFFFFFFFFFFFFFFFFFFFFF DUP3 AND SWAP1 POP SWAP2 SWAP1 POP JUMP JUMPDEST PUSH1 0x0 DUP2 SWAP1 POP SWAP2 SWAP1 POP JUMP JUMPDEST PUSH1 0x0 PUSH2 0x5EB PUSH2 0x5E6 PUSH2 0x5E1 DUP5 PUSH2 0x5A6 JUMP JUMPDEST PUSH2 0x5C6 JUMP JUMPDEST PUSH2 0x5A6 JUMP JUMPDEST SWAP1 POP SWAP2 SWAP1 POP JUMP JUMPDEST PUSH1 0x0 PUSH2 0x5FD DUP3 PUSH2 0x5D0 JUMP JUMPDEST SWAP1 POP SWAP2 SWAP1 POP JUMP JUMPDEST PUSH1 0x0 PUSH2 0x60F DUP3 PUSH2 0x5F2 JUMP JUMPDEST SWAP1 POP SWAP2 SWAP1 POP JUMP JUMPDEST PUSH2 0x61F DUP2 PUSH2 0x604 JUMP JUMPDEST DUP3 MSTORE POP POP JUMP JUMPDEST PUSH1 0x0 PUSH1 0x20 DUP3 ADD SWAP1 POP PUSH2 0x63A PUSH1 0x0 DUP4 ADD DUP5 PUSH2 0x616 JUMP JUMPDEST SWAP3 SWAP2 POP POP JUMP JUMPDEST PUSH1 0x0 DUP2 MLOAD SWAP1 POP SWAP2 SWAP1 POP JUMP JUMPDEST PUSH1 0x0 DUP3 DUP3 MSTORE PUSH1 0x20 DUP3 ADD SWAP1 POP SWAP3 SWAP2 POP POP JUMP JUMPDEST PUSH1 0x0 JUMPDEST DUP4 DUP2 LT ISZERO PUSH2 0x67A JUMPI DUP1 DUP3 ADD MLOAD DUP2 DUP5 ADD MSTORE PUSH1 0x20 DUP2 ADD SWAP1 POP PUSH2 0x65F JUMP JUMPDEST DUP4 DUP2 GT ISZERO PUSH2 0x689 JUMPI PUSH1 0x0 DUP5 DUP5 ADD MSTORE JUMPDEST POP POP POP POP JUMP JUMPDEST PUSH1 0x0 PUSH1 0x1F NOT PUSH1 0x1F DUP4 ADD AND SWAP1 POP SWAP2 SWAP1 POP JUMP JUMPDEST PUSH1 0x0 PUSH2 0x6AB DUP3 PUSH2 0x640 JUMP JUMPDEST PUSH2 0x6B5 DUP2 DUP6 PUSH2 0x64B JUMP JUMPDEST SWAP4 POP PUSH2 0x6C5 DUP2 DUP6 PUSH1 0x20 DUP7 ADD PUSH2 0x65C JUMP JUMPDEST PUSH2 0x6CE DUP2 PUSH2 0x68F JUMP JUMPDEST DUP5 ADD SWAP2 POP POP SWAP3 SWAP2 POP POP JUMP JUMPDEST PUSH1 0x0 PUSH1 0x20 DUP3 ADD SWAP1 POP DUP2 DUP2 SUB PUSH1 0x0 DUP4 ADD MSTORE PUSH2 0x6F3 DUP2 DUP5 PUSH2 0x6A0 JUMP JUMPDEST SWAP1 POP SWAP3 SWAP2 POP POP JUMP JUMPDEST PUSH1 0x0 PUSH2 0x706 DUP3 PUSH2 0x5A6 JUMP JUMPDEST SWAP1 POP SWAP2 SWAP1 POP JUMP JUMPDEST PUSH2 0x716 DUP2 PUSH2 0x6FB JUMP JUMPDEST DUP3 MSTORE POP POP JUMP JUMPDEST PUSH1 0x0 PUSH1 0x20 DUP3 ADD SWAP1 POP PUSH2 0x731 PUSH1 0x0 DUP4 ADD DUP5 PUSH2 0x70D JUMP JUMPDEST SWAP3 SWAP2 POP POP JUMP JUMPDEST PUSH1 0x0 DUP1 REVERT JUMPDEST PUSH2 0x745 DUP2 PUSH2 0x572 JUMP JUMPDEST DUP2 EQ PUSH2 0x750 JUMPI PUSH1 0x0 DUP1 REVERT JUMPDEST POP JUMP JUMPDEST PUSH1 0x0 DUP2 CALLDATALOAD SWAP1 POP PUSH2 0x762 DUP2 PUSH2 0x73C JUMP JUMPDEST SWAP3 SWAP2 POP POP JUMP JUMPDEST PUSH1 0x0 PUSH1 0x20 DUP3 DUP5 SUB SLT ISZERO PUSH2 0x77E JUMPI PUSH2 0x77D PUSH2 0x737 JUMP JUMPDEST JUMPDEST PUSH1 0x0 PUSH2 0x78C DUP5 DUP3 DUP6 ADD PUSH2 0x753 JUMP JUMPDEST SWAP2 POP POP SWAP3 SWAP2 POP POP JUMP JUMPDEST PUSH2 0x79E DUP2 PUSH2 0x6FB JUMP JUMPDEST DUP2 EQ PUSH2 0x7A9 JUMPI PUSH1 0x0 DUP1 REVERT JUMPDEST POP JUMP JUMPDEST PUSH1 0x0 DUP2 CALLDATALOAD SWAP1 POP PUSH2 0x7BB DUP2 PUSH2 0x795 JUMP JUMPDEST SWAP3 SWAP2 POP POP JUMP JUMPDEST PUSH1 0x0 DUP1 PUSH1 0x40 DUP4 DUP6 SUB SLT ISZERO PUSH2 0x7D8 JUMPI PUSH2 0x7D7 PUSH2 0x737 JUMP JUMPDEST JUMPDEST PUSH1 0x0 PUSH2 0x7E6 DUP6 DUP3 DUP7 ADD PUSH2 0x7AC JUMP JUMPDEST SWAP3 POP POP PUSH1 0x20 PUSH2 0x7F7 DUP6 DUP3 DUP7 ADD PUSH2 0x753 JUMP JUMPDEST SWAP2 POP POP SWAP3 POP SWAP3 SWAP1 POP JUMP JUMPDEST PUSH1 0x0 DUP2 ISZERO ISZERO SWAP1 POP SWAP2 SWAP1 POP JUMP JUMPDEST PUSH2 0x816 DUP2 PUSH2 0x801 JUMP JUMPDEST DUP3 MSTORE POP POP JUMP JUMPDEST PUSH1 0x0 PUSH1 0x20 DUP3 ADD SWAP1 POP PUSH2 0x831 PUSH1 0x0 DUP4 ADD DUP5 PUSH2 0x80D JUMP JUMPDEST SWAP3 SWAP2 POP POP JUMP JUMPDEST PUSH32 0x4E487B7100000000000000000000000000000000000000000000000000000000 PUSH1 0x0 MSTORE PUSH1 0x11 PUSH1 0x4 MSTORE PUSH1 0x24 PUSH1 0x0 REVERT JUMPDEST PUSH1 0x0 PUSH2 0x871 DUP3 PUSH2 0x572 JUMP JUMPDEST SWAP2 POP PUSH2 0x87C DUP4 PUSH2 0x572 JUMP JUMPDEST SWAP3 POP DUP3 DUP3 LT ISZERO PUSH2 0x88F JUMPI PUSH2 0x88E PUSH2 0x837 JUMP JUMPDEST JUMPDEST DUP3 DUP3 SUB SWAP1 POP SWAP3 SWAP2 POP POP JUMP JUMPDEST PUSH32 0x62696420746F6F206C6F77000000000000000000000000000000000000000000 PUSH1 0x0 DUP3 ADD MSTORE POP JUMP JUMPDEST PUSH1 0x0 PUSH2 0x8D0 PUSH1 0xB DUP4 PUSH2 0x64B JUMP JUMPDEST SWAP2 POP PUSH2 0x8DB DUP3 PUSH2 0x89A JUMP JUMPDEST PUSH1 0x20 DUP3 ADD SWAP1 POP SWAP2 SWAP1 POP JUMP JUMPDEST PUSH1 0x0 PUSH1 0x20 DUP3 ADD SWAP1 POP DUP2 DUP2 SUB PUSH1 0x0 DUP4 ADD MSTORE PUSH2 0x8FF DUP2 PUSH2 0x8C3 JUMP JUMPDEST SWAP1 POP SWAP2 SWAP1 POP JUMP JUMPDEST PUSH32 0x61756374696F6E20697320616C7265616479206F766572000000000000000000 PUSH1 0x0 DUP3 ADD MSTORE POP JUMP JUMPDEST PUSH1 0x0 PUSH2 0x93C PUSH1 0x17 DUP4 PUSH2 0x64B JUMP JUMPDEST SWAP2 POP PUSH2 0x947 DUP3 PUSH2 0x906 JUMP JUMPDEST PUSH1 0x20 DUP3 ADD SWAP1 POP SWAP2 SWAP1 POP JUMP JUMPDEST PUSH1 0x0 PUSH1 0x20 DUP3 ADD SWAP1 POP DUP2 DUP2 SUB PUSH1 0x0 DUP4 ADD MSTORE PUSH2 0x96B DUP2 PUSH2 0x92F JUMP JUMPDEST SWAP1 POP SWAP2 SWAP1 POP JUMP JUMPDEST PUSH32 0x752062726F6B6500000000000000000000000000000000000000000000000000 PUSH1 0x0 DUP3 ADD MSTORE POP JUMP JUMPDEST PUSH1 0x0 PUSH2 0x9A8 PUSH1 0x7 DUP4 PUSH2 0x64B JUMP JUMPDEST SWAP2 POP PUSH2 0x9B3 DUP3 PUSH2 0x972 JUMP JUMPDEST PUSH1 0x20 DUP3 ADD SWAP1 POP SWAP2 SWAP1 POP JUMP JUMPDEST PUSH1 0x0 PUSH1 0x20 DUP3 ADD SWAP1 POP DUP2 DUP2 SUB PUSH1 0x0 DUP4 ADD MSTORE PUSH2 0x9D7 DUP2 PUSH2 0x99B JUMP JUMPDEST SWAP1 POP SWAP2 SWAP1 POP JUMP JUMPDEST PUSH1 0x0 PUSH2 0x9E9 DUP3 PUSH2 0x572 JUMP JUMPDEST SWAP2 POP PUSH2 0x9F4 DUP4 PUSH2 0x572 JUMP JUMPDEST SWAP3 POP DUP3 PUSH32 0xFFFFFFFFFFFFFFFFFFFFFFFFFFFFFFFFFFFFFFFFFFFFFFFFFFFFFFFFFFFFFFFF SUB DUP3 GT ISZERO PUSH2 0xA29 JUMPI PUSH2 0xA28 PUSH2 0x837 JUMP JUMPDEST JUMPDEST DUP3 DUP3 ADD SWAP1 POP SWAP3 SWAP2 POP POP JUMP JUMPDEST PUSH1 0x0 PUSH1 0x60 DUP3 ADD SWAP1 POP PUSH2 0xA49 PUSH1 0x0 DUP4 ADD DUP7 PUSH2 0x70D JUMP JUMPDEST PUSH2 0xA56 PUSH1 0x20 DUP4 ADD DUP6 PUSH2 0x70D JUMP JUMPDEST PUSH2 0xA63 PUSH1 0x40 DUP4 ADD DUP5 PUSH2 0x57C JUMP JUMPDEST SWAP5 SWAP4 POP POP POP POP JUMP INVALID LOG2 PUSH5 0x6970667358 0x22 SLT KECCAK256 BLOCKHASH 0x4D RETURNDATACOPY CHAINID 0xA8 0x23 LT CHAINID 0xD6 DUP3 CODESIZE 0xB5 SDIV SGT 0xC3 REVERT SUB 0xA7 0xC0 REVERT PUSH32 0xD1BC761169957F9A72FA9C64736F6C634300080A003300000000000000000000 "
		},
		"gasEstimates": {
			"creation": {
				"codeDepositCost": "544200",
				"executionCost": "infinite",
				"totalCost": "infinite"
			},
			"external": {
				"aucEnding()": "2495",
				"countWords()": "372",
				"endAuction()": "infinite",
				"forceEndAuction()": "22345",
				"latestB()": "2503",
				"latestBid()": "3979",
				"nft()": "infinite",
				"nftId()": "2429",
				"ownerBoi()": "2589",
				"setNft(address,uint256)": "47170",
				"timeLeft()": "infinite",
				"updateBiddingPrice(uint256)": "infinite"
			}
		},
		"methodIdentifiers": {
			"aucEnding()": "e5422944",
			"countWords()": "d4d33a6f",
			"endAuction()": "fe67a54b",
			"forceEndAuction()": "fd3b5a69",
			"latestB()": "e7c03e57",
			"latestBid()": "5dd672ec",
			"nft()": "47ccca02",
			"nftId()": "c6bc5182",
			"ownerBoi()": "901f6552",
			"setNft(address,uint256)": "b896023f",
			"timeLeft()": "1300a6d1",
			"updateBiddingPrice(uint256)": "9f2d6b45"
		}
	},
	"abi": [
		{
			"inputs": [
				{
					"internalType": "uint256",
					"name": "startingprice",
					"type": "uint256"
				},
				{
					"internalType": "string",
					"name": "_desc",
					"type": "string"
				}
			],
			"stateMutability": "nonpayable",
			"type": "constructor"
		},
		{
			"anonymous": false,
			"inputs": [
				{
					"indexed": false,
					"internalType": "uint256",
					"name": "price",
					"type": "uint256"
				},
				{
					"indexed": false,
					"internalType": "uint256",
					"name": "auctionEnd",
					"type": "uint256"
				},
				{
					"indexed": false,
					"internalType": "contract Sender[]",
					"name": "history",
					"type": "address[]"
				}
			],
			"name": "bidUpdated",
			"type": "event"
		},
		{
			"anonymous": false,
			"inputs": [
				{
					"indexed": false,
					"internalType": "uint256",
					"name": "price",
					"type": "uint256"
				}
			],
			"name": "latest",
			"type": "event"
		},
		{
			"inputs": [],
			"name": "aucEnding",
			"outputs": [
				{
					"internalType": "bool",
					"name": "",
					"type": "bool"
				}
			],
			"stateMutability": "view",
			"type": "function"
		},
		{
			"inputs": [],
			"name": "countWords",
			"outputs": [
				{
					"internalType": "uint256",
					"name": "",
					"type": "uint256"
				}
			],
			"stateMutability": "pure",
			"type": "function"
		},
		{
			"inputs": [],
			"name": "endAuction",
			"outputs": [],
			"stateMutability": "nonpayable",
			"type": "function"
		},
		{
			"inputs": [],
			"name": "forceEndAuction",
			"outputs": [],
			"stateMutability": "nonpayable",
			"type": "function"
		},
		{
			"inputs": [],
			"name": "latestB",
			"outputs": [
				{
					"internalType": "uint256",
					"name": "price",
					"type": "uint256"
				}
			],
			"stateMutability": "view",
			"type": "function"
		},
		{
			"inputs": [],
			"name": "latestBid",
			"outputs": [
				{
					"internalType": "string",
					"name": "",
					"type": "string"
				}
			],
			"stateMutability": "nonpayable",
			"type": "function"
		},
		{
			"inputs": [],
			"name": "nft",
			"outputs": [
				{
					"internalType": "contract IERC721",
					"name": "",
					"type": "address"
				}
			],
			"stateMutability": "view",
			"type": "function"
		},
		{
			"inputs": [],
			"name": "nftId",
			"outputs": [
				{
					"internalType": "uint256",
					"name": "",
					"type": "uint256"
				}
			],
			"stateMutability": "view",
			"type": "function"
		},
		{
			"inputs": [],
			"name": "ownerBoi",
			"outputs": [
				{
					"internalType": "address",
					"name": "",
					"type": "address"
				}
			],
			"stateMutability": "view",
			"type": "function"
		},
		{
			"inputs": [
				{
					"internalType": "address",
					"name": "_nftaddress",
					"type": "address"
				},
				{
					"internalType": "uint256",
					"name": "_nftId",
					"type": "uint256"
				}
			],
			"name": "setNft",
			"outputs": [],
			"stateMutability": "nonpayable",
			"type": "function"
		},
		{
			"inputs": [],
			"name": "timeLeft",
			"outputs": [
				{
					"internalType": "uint256",
					"name": "",
					"type": "uint256"
				}
			],
			"stateMutability": "view",
			"type": "function"
		},
		{
			"inputs": [
				{
					"internalType": "uint256",
					"name": "bid",
					"type": "uint256"
				}
			],
			"name": "updateBiddingPrice",
			"outputs": [],
			"stateMutability": "nonpayable",
			"type": "function"
		}
	]
}