{
	"data": {
		"bytecode": {
			"linkReferences": {},
			"object": "608060405234801561001057600080fd5b5060405161037e38038061037e83398181016040528101906100329190610119565b816000806101000a81548173ffffffffffffffffffffffffffffffffffffffff021916908373ffffffffffffffffffffffffffffffffffffffff160217905550806001819055505050610159565b600080fd5b600073ffffffffffffffffffffffffffffffffffffffff82169050919050565b60006100b082610085565b9050919050565b6100c0816100a5565b81146100cb57600080fd5b50565b6000815190506100dd816100b7565b92915050565b6000819050919050565b6100f6816100e3565b811461010157600080fd5b50565b600081519050610113816100ed565b92915050565b600080604083850312156101305761012f610080565b5b600061013e858286016100ce565b925050602061014f85828601610104565b9150509250929050565b610216806101686000396000f3fe608060405234801561001057600080fd5b506004361061002b5760003560e01c8063cdbce03d14610030575b600080fd5b61003861004e565b6040516100459190610133565b60405180910390f35b60008060009054906101000a900473ffffffffffffffffffffffffffffffffffffffff1673ffffffffffffffffffffffffffffffffffffffff16636352211e6001546040518263ffffffff1660e01b81526004016100ac9190610167565b602060405180830381865afa1580156100c9573d6000803e3d6000fd5b505050506040513d601f19601f820116820180604052508101906100ed91906101b3565b905090565b600073ffffffffffffffffffffffffffffffffffffffff82169050919050565b600061011d826100f2565b9050919050565b61012d81610112565b82525050565b60006020820190506101486000830184610124565b92915050565b6000819050919050565b6101618161014e565b82525050565b600060208201905061017c6000830184610158565b92915050565b600080fd5b61019081610112565b811461019b57600080fd5b50565b6000815190506101ad81610187565b92915050565b6000602082840312156101c9576101c8610182565b5b60006101d78482850161019e565b9150509291505056fea264697066735822122003e48d652f2899e427e44fcf4ed24f297a80700f48e2f2b60fa55bc4029a2e4f64736f6c634300080a0033",
			"opcodes": "PUSH1 0x80 PUSH1 0x40 MSTORE CALLVALUE DUP1 ISZERO PUSH2 0x10 JUMPI PUSH1 0x0 DUP1 REVERT JUMPDEST POP PUSH1 0x40 MLOAD PUSH2 0x37E CODESIZE SUB DUP1 PUSH2 0x37E DUP4 CODECOPY DUP2 DUP2 ADD PUSH1 0x40 MSTORE DUP2 ADD SWAP1 PUSH2 0x32 SWAP2 SWAP1 PUSH2 0x119 JUMP JUMPDEST DUP2 PUSH1 0x0 DUP1 PUSH2 0x100 EXP DUP2 SLOAD DUP2 PUSH20 0xFFFFFFFFFFFFFFFFFFFFFFFFFFFFFFFFFFFFFFFF MUL NOT AND SWAP1 DUP4 PUSH20 0xFFFFFFFFFFFFFFFFFFFFFFFFFFFFFFFFFFFFFFFF AND MUL OR SWAP1 SSTORE POP DUP1 PUSH1 0x1 DUP2 SWAP1 SSTORE POP POP POP PUSH2 0x159 JUMP JUMPDEST PUSH1 0x0 DUP1 REVERT JUMPDEST PUSH1 0x0 PUSH20 0xFFFFFFFFFFFFFFFFFFFFFFFFFFFFFFFFFFFFFFFF DUP3 AND SWAP1 POP SWAP2 SWAP1 POP JUMP JUMPDEST PUSH1 0x0 PUSH2 0xB0 DUP3 PUSH2 0x85 JUMP JUMPDEST SWAP1 POP SWAP2 SWAP1 POP JUMP JUMPDEST PUSH2 0xC0 DUP2 PUSH2 0xA5 JUMP JUMPDEST DUP2 EQ PUSH2 0xCB JUMPI PUSH1 0x0 DUP1 REVERT JUMPDEST POP JUMP JUMPDEST PUSH1 0x0 DUP2 MLOAD SWAP1 POP PUSH2 0xDD DUP2 PUSH2 0xB7 JUMP JUMPDEST SWAP3 SWAP2 POP POP JUMP JUMPDEST PUSH1 0x0 DUP2 SWAP1 POP SWAP2 SWAP1 POP JUMP JUMPDEST PUSH2 0xF6 DUP2 PUSH2 0xE3 JUMP JUMPDEST DUP2 EQ PUSH2 0x101 JUMPI PUSH1 0x0 DUP1 REVERT JUMPDEST POP JUMP JUMPDEST PUSH1 0x0 DUP2 MLOAD SWAP1 POP PUSH2 0x113 DUP2 PUSH2 0xED JUMP JUMPDEST SWAP3 SWAP2 POP POP JUMP JUMPDEST PUSH1 0x0 DUP1 PUSH1 0x40 DUP4 DUP6 SUB SLT ISZERO PUSH2 0x130 JUMPI PUSH2 0x12F PUSH2 0x80 JUMP JUMPDEST JUMPDEST PUSH1 0x0 PUSH2 0x13E DUP6 DUP3 DUP7 ADD PUSH2 0xCE JUMP JUMPDEST SWAP3 POP POP PUSH1 0x20 PUSH2 0x14F DUP6 DUP3 DUP7 ADD PUSH2 0x104 JUMP JUMPDEST SWAP2 POP POP SWAP3 POP SWAP3 SWAP1 POP JUMP JUMPDEST PUSH2 0x216 DUP1 PUSH2 0x168 PUSH1 0x0 CODECOPY PUSH1 0x0 RETURN INVALID PUSH1 0x80 PUSH1 0x40 MSTORE CALLVALUE DUP1 ISZERO PUSH2 0x10 JUMPI PUSH1 0x0 DUP1 REVERT JUMPDEST POP PUSH1 0x4 CALLDATASIZE LT PUSH2 0x2B JUMPI PUSH1 0x0 CALLDATALOAD PUSH1 0xE0 SHR DUP1 PUSH4 0xCDBCE03D EQ PUSH2 0x30 JUMPI JUMPDEST PUSH1 0x0 DUP1 REVERT JUMPDEST PUSH2 0x38 PUSH2 0x4E JUMP JUMPDEST PUSH1 0x40 MLOAD PUSH2 0x45 SWAP2 SWAP1 PUSH2 0x133 JUMP JUMPDEST PUSH1 0x40 MLOAD DUP1 SWAP2 SUB SWAP1 RETURN JUMPDEST PUSH1 0x0 DUP1 PUSH1 0x0 SWAP1 SLOAD SWAP1 PUSH2 0x100 EXP SWAP1 DIV PUSH20 0xFFFFFFFFFFFFFFFFFFFFFFFFFFFFFFFFFFFFFFFF AND PUSH20 0xFFFFFFFFFFFFFFFFFFFFFFFFFFFFFFFFFFFFFFFF AND PUSH4 0x6352211E PUSH1 0x1 SLOAD PUSH1 0x40 MLOAD DUP3 PUSH4 0xFFFFFFFF AND PUSH1 0xE0 SHL DUP2 MSTORE PUSH1 0x4 ADD PUSH2 0xAC SWAP2 SWAP1 PUSH2 0x167 JUMP JUMPDEST PUSH1 0x20 PUSH1 0x40 MLOAD DUP1 DUP4 SUB DUP2 DUP7 GAS STATICCALL ISZERO DUP1 ISZERO PUSH2 0xC9 JUMPI RETURNDATASIZE PUSH1 0x0 DUP1 RETURNDATACOPY RETURNDATASIZE PUSH1 0x0 REVERT JUMPDEST POP POP POP POP PUSH1 0x40 MLOAD RETURNDATASIZE PUSH1 0x1F NOT PUSH1 0x1F DUP3 ADD AND DUP3 ADD DUP1 PUSH1 0x40 MSTORE POP DUP2 ADD SWAP1 PUSH2 0xED SWAP2 SWAP1 PUSH2 0x1B3 JUMP JUMPDEST SWAP1 POP SWAP1 JUMP JUMPDEST PUSH1 0x0 PUSH20 0xFFFFFFFFFFFFFFFFFFFFFFFFFFFFFFFFFFFFFFFF DUP3 AND SWAP1 POP SWAP2 SWAP1 POP JUMP JUMPDEST PUSH1 0x0 PUSH2 0x11D DUP3 PUSH2 0xF2 JUMP JUMPDEST SWAP1 POP SWAP2 SWAP1 POP JUMP JUMPDEST PUSH2 0x12D DUP2 PUSH2 0x112 JUMP JUMPDEST DUP3 MSTORE POP POP JUMP JUMPDEST PUSH1 0x0 PUSH1 0x20 DUP3 ADD SWAP1 POP PUSH2 0x148 PUSH1 0x0 DUP4 ADD DUP5 PUSH2 0x124 JUMP JUMPDEST SWAP3 SWAP2 POP POP JUMP JUMPDEST PUSH1 0x0 DUP2 SWAP1 POP SWAP2 SWAP1 POP JUMP JUMPDEST PUSH2 0x161 DUP2 PUSH2 0x14E JUMP JUMPDEST DUP3 MSTORE POP POP JUMP JUMPDEST PUSH1 0x0 PUSH1 0x20 DUP3 ADD SWAP1 POP PUSH2 0x17C PUSH1 0x0 DUP4 ADD DUP5 PUSH2 0x158 JUMP JUMPDEST SWAP3 SWAP2 POP POP JUMP JUMPDEST PUSH1 0x0 DUP1 REVERT JUMPDEST PUSH2 0x190 DUP2 PUSH2 0x112 JUMP JUMPDEST DUP2 EQ PUSH2 0x19B JUMPI PUSH1 0x0 DUP1 REVERT JUMPDEST POP JUMP JUMPDEST PUSH1 0x0 DUP2 MLOAD SWAP1 POP PUSH2 0x1AD DUP2 PUSH2 0x187 JUMP JUMPDEST SWAP3 SWAP2 POP POP JUMP JUMPDEST PUSH1 0x0 PUSH1 0x20 DUP3 DUP5 SUB SLT ISZERO PUSH2 0x1C9 JUMPI PUSH2 0x1C8 PUSH2 0x182 JUMP JUMPDEST JUMPDEST PUSH1 0x0 PUSH2 0x1D7 DUP5 DUP3 DUP6 ADD PUSH2 0x19E JUMP JUMPDEST SWAP2 POP POP SWAP3 SWAP2 POP POP JUMP INVALID LOG2 PUSH5 0x6970667358 0x22 SLT KECCAK256 SUB 0xE4 DUP14 PUSH6 0x2F2899E427E4 0x4F 0xCF 0x4E 0xD2 0x4F 0x29 PUSH27 0x80700F48E2F2B60FA55BC4029A2E4F64736F6C634300080A003300 "
		},
		"gasEstimates": {
			"creation": {
				"codeDepositCost": "106800",
				"executionCost": "infinite",
				"totalCost": "infinite"
			},
			"external": {
				"checkOwner()": "infinite"
			}
		},
		"methodIdentifiers": {
			"checkOwner()": "cdbce03d"
		}
	},
	"abi": [
		{
			"inputs": [
				{
					"internalType": "address",
					"name": "_nftaddress",
					"type": "address"
				},
				{
					"internalType": "uint256",
					"name": "_nftId",
					"type": "uint256"
				}
			],
			"stateMutability": "nonpayable",
			"type": "constructor"
		},
		{
			"inputs": [],
			"name": "checkOwner",
			"outputs": [
				{
					"internalType": "address",
					"name": "",
					"type": "address"
				}
			],
			"stateMutability": "view",
			"type": "function"
		}
	]
}